{
  "_format": "hh-sol-artifact-1",
  "contractName": "Rewarder",
  "sourceName": "contracts/Rewarder.sol",
  "abi": [
    {
      "inputs": [],
      "stateMutability": "payable",
      "type": "constructor"
    },
    {
      "anonymous": false,
      "inputs": [
        {
          "indexed": false,
          "internalType": "uint256",
          "name": "amount",
          "type": "uint256"
        }
      ],
      "name": "PrizeAdded",
      "type": "event"
    },
    {
      "anonymous": false,
      "inputs": [
        {
          "indexed": false,
          "internalType": "address",
          "name": "winner",
          "type": "address"
        },
        {
          "indexed": false,
          "internalType": "uint256",
          "name": "prizeAmount",
          "type": "uint256"
        }
      ],
      "name": "WinnerDeclared",
      "type": "event"
    },
    {
      "inputs": [],
      "name": "addFundsForWinner",
      "outputs": [],
      "stateMutability": "payable",
      "type": "function"
    },
    {
      "inputs": [
        {
          "internalType": "address payable",
          "name": "_votingContract",
          "type": "address"
        }
      ],
      "name": "linkVotingContract",
      "outputs": [],
      "stateMutability": "nonpayable",
      "type": "function"
    },
    {
      "inputs": [],
      "name": "sendPrizeToWinner",
      "outputs": [],
      "stateMutability": "nonpayable",
      "type": "function"
    },
    {
      "inputs": [
        {
          "internalType": "uint256",
          "name": "_winnerCandidateId",
          "type": "uint256"
        }
      ],
      "name": "sendPrizeToWinner",
      "outputs": [],
      "stateMutability": "nonpayable",
      "type": "function"
    },
    {
      "inputs": [],
      "name": "totalPrize",
      "outputs": [
        {
          "internalType": "uint256",
          "name": "",
          "type": "uint256"
        }
      ],
      "stateMutability": "view",
      "type": "function"
    },
    {
      "inputs": [],
      "name": "votingAdmin",
      "outputs": [
        {
          "internalType": "address",
          "name": "",
          "type": "address"
        }
      ],
      "stateMutability": "view",
      "type": "function"
    },
    {
      "inputs": [],
      "name": "votingContract",
      "outputs": [
        {
          "internalType": "contract Voting",
          "name": "",
          "type": "address"
        }
      ],
      "stateMutability": "view",
      "type": "function"
    },
    {
      "stateMutability": "payable",
      "type": "receive"
    }
  ],
  "bytecode": "0x608060405260003411610047576040517f08c379a000000000000000000000000000000000000000000000000000000000815260040161003e90610116565b60405180910390fd5b336000806101000a81548173ffffffffffffffffffffffffffffffffffffffff021916908373ffffffffffffffffffffffffffffffffffffffff16021790555034600281905550610136565b600082825260208201905092915050565b7f43616e6e6f7420696e697469616c697a652072657761726420636f6e7472616360008201527f742077697468207a65726f2066756e6473210000000000000000000000000000602082015250565b6000610100603283610093565b915061010b826100a4565b604082019050919050565b6000602082019050818103600083015261012f816100f3565b9050919050565b611142806101456000396000f3fe6080604052600436106100745760003560e01c8063c1fc006a1161004e578063c1fc006a14610122578063d45529f41461014d578063dcc2928714610178578063f1575f3f146101a1576100b2565b806301aab26c146100b757806348bd2c4b146100ce57806382b1ad50146100f7576100b2565b366100b2577f7e4809669d29d4f60fc52cdc899ff62c77b16c6a3893532c483386afa590a271346040516100a89190610947565b60405180910390a1005b600080fd5b3480156100c357600080fd5b506100cc6101ab565b005b3480156100da57600080fd5b506100f560048036038101906100f091906109d4565b610246565b005b34801561010357600080fd5b5061010c61031b565b6040516101199190610947565b60405180910390f35b34801561012e57600080fd5b50610137610321565b6040516101449190610a60565b60405180910390f35b34801561015957600080fd5b50610162610347565b60405161016f9190610a9c565b60405180910390f35b34801561018457600080fd5b5061019f600480360381019061019a9190610ae3565b61036b565b005b6101a961075e565b005b60008054906101000a900473ffffffffffffffffffffffffffffffffffffffff1673ffffffffffffffffffffffffffffffffffffffff163373ffffffffffffffffffffffffffffffffffffffff1614610239576040517f08c379a000000000000000000000000000000000000000000000000000000000815260040161023090610b93565b60405180910390fd5b6102446103e761036b565b565b600073ffffffffffffffffffffffffffffffffffffffff16600160009054906101000a900473ffffffffffffffffffffffffffffffffffffffff1673ffffffffffffffffffffffffffffffffffffffff16146102d7576040517f08c379a00000000000000000000000000000000000000000000000000000000081526004016102ce90610c25565b60405180910390fd5b80600160006101000a81548173ffffffffffffffffffffffffffffffffffffffff021916908373ffffffffffffffffffffffffffffffffffffffff16021790555050565b60025481565b600160009054906101000a900473ffffffffffffffffffffffffffffffffffffffff1681565b60008054906101000a900473ffffffffffffffffffffffffffffffffffffffff1681565b60008054906101000a900473ffffffffffffffffffffffffffffffffffffffff1673ffffffffffffffffffffffffffffffffffffffff163373ffffffffffffffffffffffffffffffffffffffff16146103f9576040517f08c379a00000000000000000000000000000000000000000000000000000000081526004016103f090610b93565b60405180910390fd5b600073ffffffffffffffffffffffffffffffffffffffff16600160009054906101000a900473ffffffffffffffffffffffffffffffffffffffff1673ffffffffffffffffffffffffffffffffffffffff160361048a576040517f08c379a000000000000000000000000000000000000000000000000000000000815260040161048190610c91565b60405180910390fd5b6000600160009054906101000a900473ffffffffffffffffffffffffffffffffffffffff1673ffffffffffffffffffffffffffffffffffffffff1663df15c37e6040518163ffffffff1660e01b8152600401600060405180830381865afa1580156104f9573d6000803e3d6000fd5b505050506040513d6000823e3d601f19601f820116820180604052508101906105229190610e1f565b9050600060018251036105ed57600160009054906101000a900473ffffffffffffffffffffffffffffffffffffffff1673ffffffffffffffffffffffffffffffffffffffff1663515371a38360008151811061058157610580610e68565b5b60200260200101516040518263ffffffff1660e01b81526004016105a59190610947565b602060405180830381865afa1580156105c2573d6000803e3d6000fd5b505050506040513d601f19601f820116820180604052508101906105e69190610ec3565b90506106d5565b6105f782846108d9565b610636576040517f08c379a000000000000000000000000000000000000000000000000000000000815260040161062d90610f62565b60405180910390fd5b600160009054906101000a900473ffffffffffffffffffffffffffffffffffffffff1673ffffffffffffffffffffffffffffffffffffffff1663515371a3846040518263ffffffff1660e01b81526004016106919190610947565b602060405180830381865afa1580156106ae573d6000803e3d6000fd5b505050506040513d601f19601f820116820180604052508101906106d29190610ec3565b90505b8073ffffffffffffffffffffffffffffffffffffffff166108fc6002549081150290604051600060405180830381858888f1935050505015801561071d573d6000803e3d6000fd5b507f3cf1af53e79884a92609ce59db1ec9f584d88e2d14c8eaba43a21db81318301e81600254604051610751929190610f82565b60405180910390a1505050565b60008054906101000a900473ffffffffffffffffffffffffffffffffffffffff1673ffffffffffffffffffffffffffffffffffffffff163373ffffffffffffffffffffffffffffffffffffffff1614806108055750600160009054906101000a900473ffffffffffffffffffffffffffffffffffffffff1673ffffffffffffffffffffffffffffffffffffffff163373ffffffffffffffffffffffffffffffffffffffff16145b610844576040517f08c379a000000000000000000000000000000000000000000000000000000000815260040161083b9061101d565b60405180910390fd5b60003411610887576040517f08c379a000000000000000000000000000000000000000000000000000000000815260040161087e90611089565b60405180910390fd5b346002600082825461089991906110d8565b925050819055507f7e4809669d29d4f60fc52cdc899ff62c77b16c6a3893532c483386afa590a271346040516108cf9190610947565b60405180910390a1565b600080600090505b835181101561092257828482815181106108fe576108fd610e68565b5b602002602001015103610915576001915050610928565b80806001019150506108e1565b50600090505b92915050565b6000819050919050565b6109418161092e565b82525050565b600060208201905061095c6000830184610938565b92915050565b6000604051905090565b600080fd5b600080fd5b600073ffffffffffffffffffffffffffffffffffffffff82169050919050565b60006109a182610976565b9050919050565b6109b181610996565b81146109bc57600080fd5b50565b6000813590506109ce816109a8565b92915050565b6000602082840312156109ea576109e961096c565b5b60006109f8848285016109bf565b91505092915050565b6000819050919050565b6000610a26610a21610a1c84610976565b610a01565b610976565b9050919050565b6000610a3882610a0b565b9050919050565b6000610a4a82610a2d565b9050919050565b610a5a81610a3f565b82525050565b6000602082019050610a756000830184610a51565b92915050565b6000610a8682610976565b9050919050565b610a9681610a7b565b82525050565b6000602082019050610ab16000830184610a8d565b92915050565b610ac08161092e565b8114610acb57600080fd5b50565b600081359050610add81610ab7565b92915050565b600060208284031215610af957610af861096c565b5b6000610b0784828501610ace565b91505092915050565b600082825260208201905092915050565b7f4f6e6c7920766f74696e672061646d696e2063616e20706572666f726d20746860008201527f697320616374696f6e2100000000000000000000000000000000000000000000602082015250565b6000610b7d602a83610b10565b9150610b8882610b21565b604082019050919050565b60006020820190508181036000830152610bac81610b70565b9050919050565b7f4120766f74696e6720636f6e74726163742068617320616c726561647920626560008201527f656e206c696e6b65642100000000000000000000000000000000000000000000602082015250565b6000610c0f602a83610b10565b9150610c1a82610bb3565b604082019050919050565b60006020820190508181036000830152610c3e81610c02565b9050919050565b7f4e6f20766f74696e6720636f6e7472616374206c696e6b656421000000000000600082015250565b6000610c7b601a83610b10565b9150610c8682610c45565b602082019050919050565b60006020820190508181036000830152610caa81610c6e565b9050919050565b600080fd5b6000601f19601f8301169050919050565b7f4e487b7100000000000000000000000000000000000000000000000000000000600052604160045260246000fd5b610cff82610cb6565b810181811067ffffffffffffffff82111715610d1e57610d1d610cc7565b5b80604052505050565b6000610d31610962565b9050610d3d8282610cf6565b919050565b600067ffffffffffffffff821115610d5d57610d5c610cc7565b5b602082029050602081019050919050565b600080fd5b600081519050610d8281610ab7565b92915050565b6000610d9b610d9684610d42565b610d27565b90508083825260208201905060208402830185811115610dbe57610dbd610d6e565b5b835b81811015610de75780610dd38882610d73565b845260208401935050602081019050610dc0565b5050509392505050565b600082601f830112610e0657610e05610cb1565b5b8151610e16848260208601610d88565b91505092915050565b600060208284031215610e3557610e3461096c565b5b600082015167ffffffffffffffff811115610e5357610e52610971565b5b610e5f84828501610df1565b91505092915050565b7f4e487b7100000000000000000000000000000000000000000000000000000000600052603260045260246000fd5b610ea081610a7b565b8114610eab57600080fd5b50565b600081519050610ebd81610e97565b92915050565b600060208284031215610ed957610ed861096c565b5b6000610ee784828501610eae565b91505092915050565b7f43616e646964617465204944206e6f7420666f756e6420696e2077696e6e657260008201527f73206c6973742100000000000000000000000000000000000000000000000000602082015250565b6000610f4c602783610b10565b9150610f5782610ef0565b604082019050919050565b60006020820190508181036000830152610f7b81610f3f565b9050919050565b6000604082019050610f976000830185610a8d565b610fa46020830184610938565b9392505050565b7f4f6e6c7920766f74696e672061646d696e206f7220766f74696e6720636f6e7460008201527f726163742063616e20706572666f726d207468697320616374696f6e21000000602082015250565b6000611007603d83610b10565b915061101282610fab565b604082019050919050565b6000602082019050818103600083015261103681610ffa565b9050919050565b7f43616e6e6f7420616464207a65726f2066756e64732100000000000000000000600082015250565b6000611073601683610b10565b915061107e8261103d565b602082019050919050565b600060208201905081810360008301526110a281611066565b9050919050565b7f4e487b7100000000000000000000000000000000000000000000000000000000600052601160045260246000fd5b60006110e38261092e565b91506110ee8361092e565b9250828201905080821115611106576111056110a9565b5b9291505056fea264697066735822122003aa234ceba3f9986eacaafdf0bca4e39c7dd4499d7564b429e29d9a753abccf64736f6c63430008180033",
  "linkReferences": {},
  "deployedLinkReferences": {}
}