{
  "_format": "hh-sol-artifact-1",
  "contractName": "Rewarder",
  "sourceName": "contracts/Rewarder.sol",
  "abi": [
    {
      "inputs": [],
      "stateMutability": "payable",
      "type": "constructor"
    },
    {
      "anonymous": false,
      "inputs": [
        {
          "indexed": false,
          "internalType": "uint256",
          "name": "amount",
          "type": "uint256"
        }
      ],
      "name": "PrizeAdded",
      "type": "event"
    },
    {
      "anonymous": false,
      "inputs": [
        {
          "indexed": false,
          "internalType": "address",
          "name": "winner",
          "type": "address"
        },
        {
          "indexed": false,
          "internalType": "uint256",
          "name": "prizeAmount",
          "type": "uint256"
        }
      ],
      "name": "WinnerDeclared",
      "type": "event"
    },
    {
      "inputs": [],
      "name": "addFundsForWinner",
      "outputs": [],
      "stateMutability": "payable",
      "type": "function"
    },
    {
      "inputs": [
        {
          "internalType": "address payable",
          "name": "_votingContract",
          "type": "address"
        }
      ],
      "name": "linkVotingContract",
      "outputs": [],
      "stateMutability": "nonpayable",
      "type": "function"
    },
    {
      "inputs": [],
      "name": "sendPrizeToWinner",
      "outputs": [],
      "stateMutability": "nonpayable",
      "type": "function"
    },
    {
      "inputs": [
        {
          "internalType": "uint256",
          "name": "_winnerCandidateId",
          "type": "uint256"
        }
      ],
      "name": "sendPrizeToWinner",
      "outputs": [],
      "stateMutability": "nonpayable",
      "type": "function"
    },
    {
      "inputs": [],
      "name": "totalPrize",
      "outputs": [
        {
          "internalType": "uint256",
          "name": "",
          "type": "uint256"
        }
      ],
      "stateMutability": "view",
      "type": "function"
    },
    {
      "inputs": [],
      "name": "votingAdmin",
      "outputs": [
        {
          "internalType": "address",
          "name": "",
          "type": "address"
        }
      ],
      "stateMutability": "view",
      "type": "function"
    },
    {
      "inputs": [],
      "name": "votingContract",
      "outputs": [
        {
          "internalType": "contract Voting",
          "name": "",
          "type": "address"
        }
      ],
      "stateMutability": "view",
      "type": "function"
    },
    {
      "stateMutability": "payable",
      "type": "receive"
    }
  ],
  "bytecode": "0x608060405260003411610047576040517f08c379a000000000000000000000000000000000000000000000000000000000815260040161003e90610116565b60405180910390fd5b336000806101000a81548173ffffffffffffffffffffffffffffffffffffffff021916908373ffffffffffffffffffffffffffffffffffffffff16021790555034600281905550610136565b600082825260208201905092915050565b7f43616e6e6f7420696e697469616c697a652072657761726420636f6e7472616360008201527f742077697468207a65726f2066756e6473210000000000000000000000000000602082015250565b6000610100603283610093565b915061010b826100a4565b604082019050919050565b6000602082019050818103600083015261012f816100f3565b9050919050565b611144806101456000396000f3fe6080604052600436106100745760003560e01c8063c1fc006a1161004e578063c1fc006a14610122578063d45529f41461014d578063dcc2928714610178578063f1575f3f146101a1576100b2565b806301aab26c146100b757806348bd2c4b146100ce57806382b1ad50146100f7576100b2565b366100b2577f7e4809669d29d4f60fc52cdc899ff62c77b16c6a3893532c483386afa590a271346040516100a89190610949565b60405180910390a1005b600080fd5b3480156100c357600080fd5b506100cc6101ab565b005b3480156100da57600080fd5b506100f560048036038101906100f091906109d6565b610246565b005b34801561010357600080fd5b5061010c61031b565b6040516101199190610949565b60405180910390f35b34801561012e57600080fd5b50610137610321565b6040516101449190610a62565b60405180910390f35b34801561015957600080fd5b50610162610347565b60405161016f9190610a9e565b60405180910390f35b34801561018457600080fd5b5061019f600480360381019061019a9190610ae5565b61036b565b005b6101a9610760565b005b60008054906101000a900473ffffffffffffffffffffffffffffffffffffffff1673ffffffffffffffffffffffffffffffffffffffff163373ffffffffffffffffffffffffffffffffffffffff1614610239576040517f08c379a000000000000000000000000000000000000000000000000000000000815260040161023090610b95565b60405180910390fd5b6102446103e761036b565b565b600073ffffffffffffffffffffffffffffffffffffffff16600160009054906101000a900473ffffffffffffffffffffffffffffffffffffffff1673ffffffffffffffffffffffffffffffffffffffff16146102d7576040517f08c379a00000000000000000000000000000000000000000000000000000000081526004016102ce90610c27565b60405180910390fd5b80600160006101000a81548173ffffffffffffffffffffffffffffffffffffffff021916908373ffffffffffffffffffffffffffffffffffffffff16021790555050565b60025481565b600160009054906101000a900473ffffffffffffffffffffffffffffffffffffffff1681565b60008054906101000a900473ffffffffffffffffffffffffffffffffffffffff1681565b60008054906101000a900473ffffffffffffffffffffffffffffffffffffffff1673ffffffffffffffffffffffffffffffffffffffff163373ffffffffffffffffffffffffffffffffffffffff16146103f9576040517f08c379a00000000000000000000000000000000000000000000000000000000081526004016103f090610b95565b60405180910390fd5b600073ffffffffffffffffffffffffffffffffffffffff16600160009054906101000a900473ffffffffffffffffffffffffffffffffffffffff1673ffffffffffffffffffffffffffffffffffffffff160361048a576040517f08c379a000000000000000000000000000000000000000000000000000000000815260040161048190610c93565b60405180910390fd5b6000600160009054906101000a900473ffffffffffffffffffffffffffffffffffffffff1673ffffffffffffffffffffffffffffffffffffffff1663df15c37e6040518163ffffffff1660e01b81526004016000604051808303816000875af11580156104fb573d6000803e3d6000fd5b505050506040513d6000823e3d601f19601f820116820180604052508101906105249190610e21565b9050600060018251036105ef57600160009054906101000a900473ffffffffffffffffffffffffffffffffffffffff1673ffffffffffffffffffffffffffffffffffffffff1663515371a38360008151811061058357610582610e6a565b5b60200260200101516040518263ffffffff1660e01b81526004016105a79190610949565b602060405180830381865afa1580156105c4573d6000803e3d6000fd5b505050506040513d601f19601f820116820180604052508101906105e89190610ec5565b90506106d7565b6105f982846108db565b610638576040517f08c379a000000000000000000000000000000000000000000000000000000000815260040161062f90610f64565b60405180910390fd5b600160009054906101000a900473ffffffffffffffffffffffffffffffffffffffff1673ffffffffffffffffffffffffffffffffffffffff1663515371a3846040518263ffffffff1660e01b81526004016106939190610949565b602060405180830381865afa1580156106b0573d6000803e3d6000fd5b505050506040513d601f19601f820116820180604052508101906106d49190610ec5565b90505b8073ffffffffffffffffffffffffffffffffffffffff166108fc6002549081150290604051600060405180830381858888f1935050505015801561071f573d6000803e3d6000fd5b507f3cf1af53e79884a92609ce59db1ec9f584d88e2d14c8eaba43a21db81318301e81600254604051610753929190610f84565b60405180910390a1505050565b60008054906101000a900473ffffffffffffffffffffffffffffffffffffffff1673ffffffffffffffffffffffffffffffffffffffff163373ffffffffffffffffffffffffffffffffffffffff1614806108075750600160009054906101000a900473ffffffffffffffffffffffffffffffffffffffff1673ffffffffffffffffffffffffffffffffffffffff163373ffffffffffffffffffffffffffffffffffffffff16145b610846576040517f08c379a000000000000000000000000000000000000000000000000000000000815260040161083d9061101f565b60405180910390fd5b60003411610889576040517f08c379a00000000000000000000000000000000000000000000000000000000081526004016108809061108b565b60405180910390fd5b346002600082825461089b91906110da565b925050819055507f7e4809669d29d4f60fc52cdc899ff62c77b16c6a3893532c483386afa590a271346040516108d19190610949565b60405180910390a1565b600080600090505b83518110156109245782848281518110610900576108ff610e6a565b5b60200260200101510361091757600191505061092a565b80806001019150506108e3565b50600090505b92915050565b6000819050919050565b61094381610930565b82525050565b600060208201905061095e600083018461093a565b92915050565b6000604051905090565b600080fd5b600080fd5b600073ffffffffffffffffffffffffffffffffffffffff82169050919050565b60006109a382610978565b9050919050565b6109b381610998565b81146109be57600080fd5b50565b6000813590506109d0816109aa565b92915050565b6000602082840312156109ec576109eb61096e565b5b60006109fa848285016109c1565b91505092915050565b6000819050919050565b6000610a28610a23610a1e84610978565b610a03565b610978565b9050919050565b6000610a3a82610a0d565b9050919050565b6000610a4c82610a2f565b9050919050565b610a5c81610a41565b82525050565b6000602082019050610a776000830184610a53565b92915050565b6000610a8882610978565b9050919050565b610a9881610a7d565b82525050565b6000602082019050610ab36000830184610a8f565b92915050565b610ac281610930565b8114610acd57600080fd5b50565b600081359050610adf81610ab9565b92915050565b600060208284031215610afb57610afa61096e565b5b6000610b0984828501610ad0565b91505092915050565b600082825260208201905092915050565b7f4f6e6c7920766f74696e672061646d696e2063616e20706572666f726d20746860008201527f697320616374696f6e2100000000000000000000000000000000000000000000602082015250565b6000610b7f602a83610b12565b9150610b8a82610b23565b604082019050919050565b60006020820190508181036000830152610bae81610b72565b9050919050565b7f4120766f74696e6720636f6e74726163742068617320616c726561647920626560008201527f656e206c696e6b65642100000000000000000000000000000000000000000000602082015250565b6000610c11602a83610b12565b9150610c1c82610bb5565b604082019050919050565b60006020820190508181036000830152610c4081610c04565b9050919050565b7f4e6f20766f74696e6720636f6e7472616374206c696e6b656421000000000000600082015250565b6000610c7d601a83610b12565b9150610c8882610c47565b602082019050919050565b60006020820190508181036000830152610cac81610c70565b9050919050565b600080fd5b6000601f19601f8301169050919050565b7f4e487b7100000000000000000000000000000000000000000000000000000000600052604160045260246000fd5b610d0182610cb8565b810181811067ffffffffffffffff82111715610d2057610d1f610cc9565b5b80604052505050565b6000610d33610964565b9050610d3f8282610cf8565b919050565b600067ffffffffffffffff821115610d5f57610d5e610cc9565b5b602082029050602081019050919050565b600080fd5b600081519050610d8481610ab9565b92915050565b6000610d9d610d9884610d44565b610d29565b90508083825260208201905060208402830185811115610dc057610dbf610d70565b5b835b81811015610de95780610dd58882610d75565b845260208401935050602081019050610dc2565b5050509392505050565b600082601f830112610e0857610e07610cb3565b5b8151610e18848260208601610d8a565b91505092915050565b600060208284031215610e3757610e3661096e565b5b600082015167ffffffffffffffff811115610e5557610e54610973565b5b610e6184828501610df3565b91505092915050565b7f4e487b7100000000000000000000000000000000000000000000000000000000600052603260045260246000fd5b610ea281610a7d565b8114610ead57600080fd5b50565b600081519050610ebf81610e99565b92915050565b600060208284031215610edb57610eda61096e565b5b6000610ee984828501610eb0565b91505092915050565b7f43616e646964617465204944206e6f7420666f756e6420696e2077696e6e657260008201527f73206c6973742100000000000000000000000000000000000000000000000000602082015250565b6000610f4e602783610b12565b9150610f5982610ef2565b604082019050919050565b60006020820190508181036000830152610f7d81610f41565b9050919050565b6000604082019050610f996000830185610a8f565b610fa6602083018461093a565b9392505050565b7f4f6e6c7920766f74696e672061646d696e206f7220766f74696e6720636f6e7460008201527f726163742063616e20706572666f726d207468697320616374696f6e21000000602082015250565b6000611009603d83610b12565b915061101482610fad565b604082019050919050565b6000602082019050818103600083015261103881610ffc565b9050919050565b7f43616e6e6f7420616464207a65726f2066756e64732100000000000000000000600082015250565b6000611075601683610b12565b91506110808261103f565b602082019050919050565b600060208201905081810360008301526110a481611068565b9050919050565b7f4e487b7100000000000000000000000000000000000000000000000000000000600052601160045260246000fd5b60006110e582610930565b91506110f083610930565b9250828201905080821115611108576111076110ab565b5b9291505056fea264697066735822122065a456706c9abbe8715d04e4a7d91068a133a5d8f6cc59e865e907d169400a6d64736f6c63430008180033",
  "linkReferences": {},
  "deployedLinkReferences": {}
}