{
  "_format": "hh-sol-artifact-1",
  "contractName": "Rewarder",
  "sourceName": "contracts/Rewarder.sol",
  "abi": [
    {
      "inputs": [],
      "stateMutability": "payable",
      "type": "constructor"
    },
    {
      "anonymous": false,
      "inputs": [
        {
          "indexed": false,
          "internalType": "uint256",
          "name": "amount",
          "type": "uint256"
        }
      ],
      "name": "PrizeAdded",
      "type": "event"
    },
    {
      "anonymous": false,
      "inputs": [
        {
          "indexed": false,
          "internalType": "address",
          "name": "winner",
          "type": "address"
        },
        {
          "indexed": false,
          "internalType": "uint256",
          "name": "prizeAmount",
          "type": "uint256"
        }
      ],
      "name": "WinnerDeclared",
      "type": "event"
    },
    {
      "inputs": [],
      "name": "addFundsForWinner",
      "outputs": [],
      "stateMutability": "payable",
      "type": "function"
    },
    {
      "inputs": [
        {
          "internalType": "address payable",
          "name": "_votingContract",
          "type": "address"
        }
      ],
      "name": "linkVotingContract",
      "outputs": [],
      "stateMutability": "nonpayable",
      "type": "function"
    },
    {
      "inputs": [],
      "name": "prizeSentTo",
      "outputs": [
        {
          "internalType": "address",
          "name": "",
          "type": "address"
        }
      ],
      "stateMutability": "view",
      "type": "function"
    },
    {
      "inputs": [],
      "name": "restartVotingSession",
      "outputs": [],
      "stateMutability": "nonpayable",
      "type": "function"
    },
    {
      "inputs": [],
      "name": "sendPrizeToWinner",
      "outputs": [],
      "stateMutability": "nonpayable",
      "type": "function"
    },
    {
      "inputs": [
        {
          "internalType": "uint256",
          "name": "_winnerCandidateId",
          "type": "uint256"
        }
      ],
      "name": "sendPrizeToWinner",
      "outputs": [],
      "stateMutability": "nonpayable",
      "type": "function"
    },
    {
      "inputs": [],
      "name": "totalPrize",
      "outputs": [
        {
          "internalType": "uint256",
          "name": "",
          "type": "uint256"
        }
      ],
      "stateMutability": "view",
      "type": "function"
    },
    {
      "inputs": [],
      "name": "votingAdmin",
      "outputs": [
        {
          "internalType": "address",
          "name": "",
          "type": "address"
        }
      ],
      "stateMutability": "view",
      "type": "function"
    },
    {
      "inputs": [],
      "name": "votingContract",
      "outputs": [
        {
          "internalType": "contract Voting",
          "name": "",
          "type": "address"
        }
      ],
      "stateMutability": "view",
      "type": "function"
    },
    {
      "stateMutability": "payable",
      "type": "receive"
    }
  ],
  "bytecode": "0x608060405260003411610047576040517f08c379a000000000000000000000000000000000000000000000000000000000815260040161003e90610116565b60405180910390fd5b336000806101000a81548173ffffffffffffffffffffffffffffffffffffffff021916908373ffffffffffffffffffffffffffffffffffffffff16021790555034600281905550610136565b600082825260208201905092915050565b7f43616e6e6f7420696e697469616c697a652072657761726420636f6e7472616360008201527f742077697468207a65726f2066756e6473210000000000000000000000000000602082015250565b6000610100603283610093565b915061010b826100a4565b604082019050919050565b6000602082019050818103600083015261012f816100f3565b9050919050565b6116e280620001466000396000f3fe60806040526004361061008a5760003560e01c8063d45529f411610059578063d45529f414610163578063dcc292871461018e578063e3133cc6146101b7578063ef5d6d3d146101ce578063f1575f3f146101f9576100c8565b806301aab26c146100cd57806348bd2c4b146100e457806382b1ad501461010d578063c1fc006a14610138576100c8565b366100c8577f7e4809669d29d4f60fc52cdc899ff62c77b16c6a3893532c483386afa590a271346040516100be9190610dc3565b60405180910390a1005b600080fd5b3480156100d957600080fd5b506100e2610203565b005b3480156100f057600080fd5b5061010b60048036038101906101069190610e50565b610407565b005b34801561011957600080fd5b506101226104dc565b60405161012f9190610dc3565b60405180910390f35b34801561014457600080fd5b5061014d6104e2565b60405161015a9190610edc565b60405180910390f35b34801561016f57600080fd5b50610178610508565b6040516101859190610f18565b60405180910390f35b34801561019a57600080fd5b506101b560048036038101906101b09190610f5f565b61052c565b005b3480156101c357600080fd5b506101cc6109f1565b005b3480156101da57600080fd5b506101e3610bb4565b6040516101f09190610f18565b60405180910390f35b610201610bda565b005b60008054906101000a900473ffffffffffffffffffffffffffffffffffffffff1673ffffffffffffffffffffffffffffffffffffffff163373ffffffffffffffffffffffffffffffffffffffff1614610291576040517f08c379a00000000000000000000000000000000000000000000000000000000081526004016102889061100f565b60405180910390fd5b600073ffffffffffffffffffffffffffffffffffffffff16600160009054906101000a900473ffffffffffffffffffffffffffffffffffffffff1673ffffffffffffffffffffffffffffffffffffffff1603610322576040517f08c379a00000000000000000000000000000000000000000000000000000000081526004016103199061107b565b60405180910390fd5b60018060009054906101000a900473ffffffffffffffffffffffffffffffffffffffff1673ffffffffffffffffffffffffffffffffffffffff1663df15c37e6040518163ffffffff1660e01b8152600401600060405180830381865afa158015610390573d6000803e3d6000fd5b505050506040513d6000823e3d601f19601f820116820180604052508101906103b99190611209565b51146103fa576040517f08c379a00000000000000000000000000000000000000000000000000000000081526004016103f1906112c4565b60405180910390fd5b6104056103e761052c565b565b600073ffffffffffffffffffffffffffffffffffffffff16600160009054906101000a900473ffffffffffffffffffffffffffffffffffffffff1673ffffffffffffffffffffffffffffffffffffffff1614610498576040517f08c379a000000000000000000000000000000000000000000000000000000000815260040161048f90611356565b60405180910390fd5b80600160006101000a81548173ffffffffffffffffffffffffffffffffffffffff021916908373ffffffffffffffffffffffffffffffffffffffff16021790555050565b60025481565b600160009054906101000a900473ffffffffffffffffffffffffffffffffffffffff1681565b60008054906101000a900473ffffffffffffffffffffffffffffffffffffffff1681565b60008054906101000a900473ffffffffffffffffffffffffffffffffffffffff1673ffffffffffffffffffffffffffffffffffffffff163373ffffffffffffffffffffffffffffffffffffffff16146105ba576040517f08c379a00000000000000000000000000000000000000000000000000000000081526004016105b19061100f565b60405180910390fd5b600073ffffffffffffffffffffffffffffffffffffffff16600160009054906101000a900473ffffffffffffffffffffffffffffffffffffffff1673ffffffffffffffffffffffffffffffffffffffff160361064b576040517f08c379a00000000000000000000000000000000000000000000000000000000081526004016106429061107b565b60405180910390fd5b600073ffffffffffffffffffffffffffffffffffffffff16600360009054906101000a900473ffffffffffffffffffffffffffffffffffffffff1673ffffffffffffffffffffffffffffffffffffffff16146106dc576040517f08c379a00000000000000000000000000000000000000000000000000000000081526004016106d3906113e8565b60405180910390fd5b6000600160009054906101000a900473ffffffffffffffffffffffffffffffffffffffff1673ffffffffffffffffffffffffffffffffffffffff1663df15c37e6040518163ffffffff1660e01b8152600401600060405180830381865afa15801561074b573d6000803e3d6000fd5b505050506040513d6000823e3d601f19601f820116820180604052508101906107749190611209565b90506000600182510361083f57600160009054906101000a900473ffffffffffffffffffffffffffffffffffffffff1673ffffffffffffffffffffffffffffffffffffffff1663515371a3836000815181106107d3576107d2611408565b5b60200260200101516040518263ffffffff1660e01b81526004016107f79190610dc3565b602060405180830381865afa158015610814573d6000803e3d6000fd5b505050506040513d601f19601f820116820180604052508101906108389190611463565b9050610927565b6108498284610d55565b610888576040517f08c379a000000000000000000000000000000000000000000000000000000000815260040161087f90611502565b60405180910390fd5b600160009054906101000a900473ffffffffffffffffffffffffffffffffffffffff1673ffffffffffffffffffffffffffffffffffffffff1663515371a3846040518263ffffffff1660e01b81526004016108e39190610dc3565b602060405180830381865afa158015610900573d6000803e3d6000fd5b505050506040513d601f19601f820116820180604052508101906109249190611463565b90505b8073ffffffffffffffffffffffffffffffffffffffff166108fc6002549081150290604051600060405180830381858888f1935050505015801561096f573d6000803e3d6000fd5b5080600360006101000a81548173ffffffffffffffffffffffffffffffffffffffff021916908373ffffffffffffffffffffffffffffffffffffffff1602179055507f3cf1af53e79884a92609ce59db1ec9f584d88e2d14c8eaba43a21db81318301e816002546040516109e4929190611522565b60405180910390a1505050565b60008054906101000a900473ffffffffffffffffffffffffffffffffffffffff1673ffffffffffffffffffffffffffffffffffffffff163373ffffffffffffffffffffffffffffffffffffffff161480610a985750600160009054906101000a900473ffffffffffffffffffffffffffffffffffffffff1673ffffffffffffffffffffffffffffffffffffffff163373ffffffffffffffffffffffffffffffffffffffff16145b610ad7576040517f08c379a0000000000000000000000000000000000000000000000000000000008152600401610ace906115bd565b60405180910390fd5b600073ffffffffffffffffffffffffffffffffffffffff16600160009054906101000a900473ffffffffffffffffffffffffffffffffffffffff1673ffffffffffffffffffffffffffffffffffffffff1603610b68576040517f08c379a0000000000000000000000000000000000000000000000000000000008152600401610b5f9061107b565b60405180910390fd5b6000600360006101000a81548173ffffffffffffffffffffffffffffffffffffffff021916908373ffffffffffffffffffffffffffffffffffffffff1602179055506000600281905550565b600360009054906101000a900473ffffffffffffffffffffffffffffffffffffffff1681565b60008054906101000a900473ffffffffffffffffffffffffffffffffffffffff1673ffffffffffffffffffffffffffffffffffffffff163373ffffffffffffffffffffffffffffffffffffffff161480610c815750600160009054906101000a900473ffffffffffffffffffffffffffffffffffffffff1673ffffffffffffffffffffffffffffffffffffffff163373ffffffffffffffffffffffffffffffffffffffff16145b610cc0576040517f08c379a0000000000000000000000000000000000000000000000000000000008152600401610cb7906115bd565b60405180910390fd5b60003411610d03576040517f08c379a0000000000000000000000000000000000000000000000000000000008152600401610cfa90611629565b60405180910390fd5b3460026000828254610d159190611678565b925050819055507f7e4809669d29d4f60fc52cdc899ff62c77b16c6a3893532c483386afa590a27134604051610d4b9190610dc3565b60405180910390a1565b600080600090505b8351811015610d9e5782848281518110610d7a57610d79611408565b5b602002602001015103610d91576001915050610da4565b8080600101915050610d5d565b50600090505b92915050565b6000819050919050565b610dbd81610daa565b82525050565b6000602082019050610dd86000830184610db4565b92915050565b6000604051905090565b600080fd5b600080fd5b600073ffffffffffffffffffffffffffffffffffffffff82169050919050565b6000610e1d82610df2565b9050919050565b610e2d81610e12565b8114610e3857600080fd5b50565b600081359050610e4a81610e24565b92915050565b600060208284031215610e6657610e65610de8565b5b6000610e7484828501610e3b565b91505092915050565b6000819050919050565b6000610ea2610e9d610e9884610df2565b610e7d565b610df2565b9050919050565b6000610eb482610e87565b9050919050565b6000610ec682610ea9565b9050919050565b610ed681610ebb565b82525050565b6000602082019050610ef16000830184610ecd565b92915050565b6000610f0282610df2565b9050919050565b610f1281610ef7565b82525050565b6000602082019050610f2d6000830184610f09565b92915050565b610f3c81610daa565b8114610f4757600080fd5b50565b600081359050610f5981610f33565b92915050565b600060208284031215610f7557610f74610de8565b5b6000610f8384828501610f4a565b91505092915050565b600082825260208201905092915050565b7f4f6e6c7920766f74696e672061646d696e2063616e20706572666f726d20746860008201527f697320616374696f6e2100000000000000000000000000000000000000000000602082015250565b6000610ff9602a83610f8c565b915061100482610f9d565b604082019050919050565b6000602082019050818103600083015261102881610fec565b9050919050565b7f4e6f20766f74696e6720636f6e7472616374206c696e6b656421000000000000600082015250565b6000611065601a83610f8c565b91506110708261102f565b602082019050919050565b6000602082019050818103600083015261109481611058565b9050919050565b600080fd5b6000601f19601f8301169050919050565b7f4e487b7100000000000000000000000000000000000000000000000000000000600052604160045260246000fd5b6110e9826110a0565b810181811067ffffffffffffffff82111715611108576111076110b1565b5b80604052505050565b600061111b610dde565b905061112782826110e0565b919050565b600067ffffffffffffffff821115611147576111466110b1565b5b602082029050602081019050919050565b600080fd5b60008151905061116c81610f33565b92915050565b60006111856111808461112c565b611111565b905080838252602082019050602084028301858111156111a8576111a7611158565b5b835b818110156111d157806111bd888261115d565b8452602084019350506020810190506111aa565b5050509392505050565b600082601f8301126111f0576111ef61109b565b5b8151611200848260208601611172565b91505092915050565b60006020828403121561121f5761121e610de8565b5b600082015167ffffffffffffffff81111561123d5761123c610ded565b5b611249848285016111db565b91505092915050565b7f546865726520617265206d756c7469706c652077696e6e6572732120506c656160008201527f73652073706563696679207468652077696e6e65722049442e00000000000000602082015250565b60006112ae603983610f8c565b91506112b982611252565b604082019050919050565b600060208201905081810360008301526112dd816112a1565b9050919050565b7f4120766f74696e6720636f6e74726163742068617320616c726561647920626560008201527f656e206c696e6b65642100000000000000000000000000000000000000000000602082015250565b6000611340602a83610f8c565b915061134b826112e4565b604082019050919050565b6000602082019050818103600083015261136f81611333565b9050919050565b7f5072697a652068617320616c7265616479206265656e2073656e7420746f206160008201527f2077696e6e657221000000000000000000000000000000000000000000000000602082015250565b60006113d2602883610f8c565b91506113dd82611376565b604082019050919050565b60006020820190508181036000830152611401816113c5565b9050919050565b7f4e487b7100000000000000000000000000000000000000000000000000000000600052603260045260246000fd5b61144081610ef7565b811461144b57600080fd5b50565b60008151905061145d81611437565b92915050565b60006020828403121561147957611478610de8565b5b60006114878482850161144e565b91505092915050565b7f43616e646964617465204944206e6f7420666f756e6420696e2077696e6e657260008201527f73206c6973742100000000000000000000000000000000000000000000000000602082015250565b60006114ec602783610f8c565b91506114f782611490565b604082019050919050565b6000602082019050818103600083015261151b816114df565b9050919050565b60006040820190506115376000830185610f09565b6115446020830184610db4565b9392505050565b7f4f6e6c7920766f74696e672061646d696e206f7220766f74696e6720636f6e7460008201527f726163742063616e20706572666f726d207468697320616374696f6e21000000602082015250565b60006115a7603d83610f8c565b91506115b28261154b565b604082019050919050565b600060208201905081810360008301526115d68161159a565b9050919050565b7f43616e6e6f7420616464207a65726f2066756e64732100000000000000000000600082015250565b6000611613601683610f8c565b915061161e826115dd565b602082019050919050565b6000602082019050818103600083015261164281611606565b9050919050565b7f4e487b7100000000000000000000000000000000000000000000000000000000600052601160045260246000fd5b600061168382610daa565b915061168e83610daa565b92508282019050808211156116a6576116a5611649565b5b9291505056fea2646970667358221220831c4db243ac4591b082fdb6f45131dbace66d97303ea3b4eeba59d407a3a82664736f6c63430008180033",
  "linkReferences": {},
  "deployedLinkReferences": {}
}