{
  "_format": "hh-sol-artifact-1",
  "contractName": "Rewarder",
  "sourceName": "contracts/Rewarder.sol",
  "abi": [
    {
      "inputs": [],
      "stateMutability": "payable",
      "type": "constructor"
    },
    {
      "anonymous": false,
      "inputs": [
        {
          "indexed": false,
          "internalType": "uint256",
          "name": "amount",
          "type": "uint256"
        }
      ],
      "name": "PrizeAdded",
      "type": "event"
    },
    {
      "anonymous": false,
      "inputs": [
        {
          "indexed": false,
          "internalType": "address",
          "name": "winner",
          "type": "address"
        },
        {
          "indexed": false,
          "internalType": "uint256",
          "name": "prizeAmount",
          "type": "uint256"
        }
      ],
      "name": "WinnerDeclared",
      "type": "event"
    },
    {
      "inputs": [],
      "name": "addFundsForWinner",
      "outputs": [],
      "stateMutability": "payable",
      "type": "function"
    },
    {
      "inputs": [
        {
          "internalType": "address payable",
          "name": "_votingContract",
          "type": "address"
        }
      ],
      "name": "linkVotingContract",
      "outputs": [],
      "stateMutability": "nonpayable",
      "type": "function"
    },
    {
      "inputs": [],
      "name": "prizeSentTo",
      "outputs": [
        {
          "internalType": "address",
          "name": "",
          "type": "address"
        }
      ],
      "stateMutability": "view",
      "type": "function"
    },
    {
      "inputs": [],
      "name": "sendPrizeToWinner",
      "outputs": [],
      "stateMutability": "nonpayable",
      "type": "function"
    },
    {
      "inputs": [
        {
          "internalType": "uint256",
          "name": "_winnerCandidateId",
          "type": "uint256"
        }
      ],
      "name": "sendPrizeToWinner",
      "outputs": [],
      "stateMutability": "nonpayable",
      "type": "function"
    },
    {
      "inputs": [],
      "name": "totalPrize",
      "outputs": [
        {
          "internalType": "uint256",
          "name": "",
          "type": "uint256"
        }
      ],
      "stateMutability": "view",
      "type": "function"
    },
    {
      "inputs": [],
      "name": "votingAdmin",
      "outputs": [
        {
          "internalType": "address",
          "name": "",
          "type": "address"
        }
      ],
      "stateMutability": "view",
      "type": "function"
    },
    {
      "inputs": [],
      "name": "votingContract",
      "outputs": [
        {
          "internalType": "contract Voting",
          "name": "",
          "type": "address"
        }
      ],
      "stateMutability": "view",
      "type": "function"
    },
    {
      "stateMutability": "payable",
      "type": "receive"
    }
  ],
  "bytecode": "0x608060405260003411610047576040517f08c379a000000000000000000000000000000000000000000000000000000000815260040161003e90610116565b60405180910390fd5b336000806101000a81548173ffffffffffffffffffffffffffffffffffffffff021916908373ffffffffffffffffffffffffffffffffffffffff16021790555034600281905550610136565b600082825260208201905092915050565b7f43616e6e6f7420696e697469616c697a652072657761726420636f6e7472616360008201527f742077697468207a65726f2066756e6473210000000000000000000000000000602082015250565b6000610100603283610093565b915061010b826100a4565b604082019050919050565b6000602082019050818103600083015261012f816100f3565b9050919050565b611302806101456000396000f3fe60806040526004361061007f5760003560e01c8063d45529f41161004e578063d45529f414610158578063dcc2928714610183578063ef5d6d3d146101ac578063f1575f3f146101d7576100bd565b806301aab26c146100c257806348bd2c4b146100d957806382b1ad5014610102578063c1fc006a1461012d576100bd565b366100bd577f7e4809669d29d4f60fc52cdc899ff62c77b16c6a3893532c483386afa590a271346040516100b39190610a75565b60405180910390a1005b600080fd5b3480156100ce57600080fd5b506100d76101e1565b005b3480156100e557600080fd5b5061010060048036038101906100fb9190610b02565b61027c565b005b34801561010e57600080fd5b50610117610351565b6040516101249190610a75565b60405180910390f35b34801561013957600080fd5b50610142610357565b60405161014f9190610b8e565b60405180910390f35b34801561016457600080fd5b5061016d61037d565b60405161017a9190610bca565b60405180910390f35b34801561018f57600080fd5b506101aa60048036038101906101a59190610c11565b6103a1565b005b3480156101b857600080fd5b506101c1610866565b6040516101ce9190610bca565b60405180910390f35b6101df61088c565b005b60008054906101000a900473ffffffffffffffffffffffffffffffffffffffff1673ffffffffffffffffffffffffffffffffffffffff163373ffffffffffffffffffffffffffffffffffffffff161461026f576040517f08c379a000000000000000000000000000000000000000000000000000000000815260040161026690610cc1565b60405180910390fd5b61027a6103e76103a1565b565b600073ffffffffffffffffffffffffffffffffffffffff16600160009054906101000a900473ffffffffffffffffffffffffffffffffffffffff1673ffffffffffffffffffffffffffffffffffffffff161461030d576040517f08c379a000000000000000000000000000000000000000000000000000000000815260040161030490610d53565b60405180910390fd5b80600160006101000a81548173ffffffffffffffffffffffffffffffffffffffff021916908373ffffffffffffffffffffffffffffffffffffffff16021790555050565b60025481565b600160009054906101000a900473ffffffffffffffffffffffffffffffffffffffff1681565b60008054906101000a900473ffffffffffffffffffffffffffffffffffffffff1681565b60008054906101000a900473ffffffffffffffffffffffffffffffffffffffff1673ffffffffffffffffffffffffffffffffffffffff163373ffffffffffffffffffffffffffffffffffffffff161461042f576040517f08c379a000000000000000000000000000000000000000000000000000000000815260040161042690610cc1565b60405180910390fd5b600073ffffffffffffffffffffffffffffffffffffffff16600160009054906101000a900473ffffffffffffffffffffffffffffffffffffffff1673ffffffffffffffffffffffffffffffffffffffff16036104c0576040517f08c379a00000000000000000000000000000000000000000000000000000000081526004016104b790610dbf565b60405180910390fd5b600073ffffffffffffffffffffffffffffffffffffffff16600360009054906101000a900473ffffffffffffffffffffffffffffffffffffffff1673ffffffffffffffffffffffffffffffffffffffff1614610551576040517f08c379a000000000000000000000000000000000000000000000000000000000815260040161054890610e51565b60405180910390fd5b6000600160009054906101000a900473ffffffffffffffffffffffffffffffffffffffff1673ffffffffffffffffffffffffffffffffffffffff1663df15c37e6040518163ffffffff1660e01b8152600401600060405180830381865afa1580156105c0573d6000803e3d6000fd5b505050506040513d6000823e3d601f19601f820116820180604052508101906105e99190610fdf565b9050600060018251036106b457600160009054906101000a900473ffffffffffffffffffffffffffffffffffffffff1673ffffffffffffffffffffffffffffffffffffffff1663515371a38360008151811061064857610647611028565b5b60200260200101516040518263ffffffff1660e01b815260040161066c9190610a75565b602060405180830381865afa158015610689573d6000803e3d6000fd5b505050506040513d601f19601f820116820180604052508101906106ad9190611083565b905061079c565b6106be8284610a07565b6106fd576040517f08c379a00000000000000000000000000000000000000000000000000000000081526004016106f490611122565b60405180910390fd5b600160009054906101000a900473ffffffffffffffffffffffffffffffffffffffff1673ffffffffffffffffffffffffffffffffffffffff1663515371a3846040518263ffffffff1660e01b81526004016107589190610a75565b602060405180830381865afa158015610775573d6000803e3d6000fd5b505050506040513d601f19601f820116820180604052508101906107999190611083565b90505b8073ffffffffffffffffffffffffffffffffffffffff166108fc6002549081150290604051600060405180830381858888f193505050501580156107e4573d6000803e3d6000fd5b5080600360006101000a81548173ffffffffffffffffffffffffffffffffffffffff021916908373ffffffffffffffffffffffffffffffffffffffff1602179055507f3cf1af53e79884a92609ce59db1ec9f584d88e2d14c8eaba43a21db81318301e81600254604051610859929190611142565b60405180910390a1505050565b600360009054906101000a900473ffffffffffffffffffffffffffffffffffffffff1681565b60008054906101000a900473ffffffffffffffffffffffffffffffffffffffff1673ffffffffffffffffffffffffffffffffffffffff163373ffffffffffffffffffffffffffffffffffffffff1614806109335750600160009054906101000a900473ffffffffffffffffffffffffffffffffffffffff1673ffffffffffffffffffffffffffffffffffffffff163373ffffffffffffffffffffffffffffffffffffffff16145b610972576040517f08c379a0000000000000000000000000000000000000000000000000000000008152600401610969906111dd565b60405180910390fd5b600034116109b5576040517f08c379a00000000000000000000000000000000000000000000000000000000081526004016109ac90611249565b60405180910390fd5b34600260008282546109c79190611298565b925050819055507f7e4809669d29d4f60fc52cdc899ff62c77b16c6a3893532c483386afa590a271346040516109fd9190610a75565b60405180910390a1565b600080600090505b8351811015610a505782848281518110610a2c57610a2b611028565b5b602002602001015103610a43576001915050610a56565b8080600101915050610a0f565b50600090505b92915050565b6000819050919050565b610a6f81610a5c565b82525050565b6000602082019050610a8a6000830184610a66565b92915050565b6000604051905090565b600080fd5b600080fd5b600073ffffffffffffffffffffffffffffffffffffffff82169050919050565b6000610acf82610aa4565b9050919050565b610adf81610ac4565b8114610aea57600080fd5b50565b600081359050610afc81610ad6565b92915050565b600060208284031215610b1857610b17610a9a565b5b6000610b2684828501610aed565b91505092915050565b6000819050919050565b6000610b54610b4f610b4a84610aa4565b610b2f565b610aa4565b9050919050565b6000610b6682610b39565b9050919050565b6000610b7882610b5b565b9050919050565b610b8881610b6d565b82525050565b6000602082019050610ba36000830184610b7f565b92915050565b6000610bb482610aa4565b9050919050565b610bc481610ba9565b82525050565b6000602082019050610bdf6000830184610bbb565b92915050565b610bee81610a5c565b8114610bf957600080fd5b50565b600081359050610c0b81610be5565b92915050565b600060208284031215610c2757610c26610a9a565b5b6000610c3584828501610bfc565b91505092915050565b600082825260208201905092915050565b7f4f6e6c7920766f74696e672061646d696e2063616e20706572666f726d20746860008201527f697320616374696f6e2100000000000000000000000000000000000000000000602082015250565b6000610cab602a83610c3e565b9150610cb682610c4f565b604082019050919050565b60006020820190508181036000830152610cda81610c9e565b9050919050565b7f4120766f74696e6720636f6e74726163742068617320616c726561647920626560008201527f656e206c696e6b65642100000000000000000000000000000000000000000000602082015250565b6000610d3d602a83610c3e565b9150610d4882610ce1565b604082019050919050565b60006020820190508181036000830152610d6c81610d30565b9050919050565b7f4e6f20766f74696e6720636f6e7472616374206c696e6b656421000000000000600082015250565b6000610da9601a83610c3e565b9150610db482610d73565b602082019050919050565b60006020820190508181036000830152610dd881610d9c565b9050919050565b7f5072697a652068617320616c7265616479206265656e2073656e7420746f206160008201527f2077696e6e657221000000000000000000000000000000000000000000000000602082015250565b6000610e3b602883610c3e565b9150610e4682610ddf565b604082019050919050565b60006020820190508181036000830152610e6a81610e2e565b9050919050565b600080fd5b6000601f19601f8301169050919050565b7f4e487b7100000000000000000000000000000000000000000000000000000000600052604160045260246000fd5b610ebf82610e76565b810181811067ffffffffffffffff82111715610ede57610edd610e87565b5b80604052505050565b6000610ef1610a90565b9050610efd8282610eb6565b919050565b600067ffffffffffffffff821115610f1d57610f1c610e87565b5b602082029050602081019050919050565b600080fd5b600081519050610f4281610be5565b92915050565b6000610f5b610f5684610f02565b610ee7565b90508083825260208201905060208402830185811115610f7e57610f7d610f2e565b5b835b81811015610fa75780610f938882610f33565b845260208401935050602081019050610f80565b5050509392505050565b600082601f830112610fc657610fc5610e71565b5b8151610fd6848260208601610f48565b91505092915050565b600060208284031215610ff557610ff4610a9a565b5b600082015167ffffffffffffffff81111561101357611012610a9f565b5b61101f84828501610fb1565b91505092915050565b7f4e487b7100000000000000000000000000000000000000000000000000000000600052603260045260246000fd5b61106081610ba9565b811461106b57600080fd5b50565b60008151905061107d81611057565b92915050565b60006020828403121561109957611098610a9a565b5b60006110a78482850161106e565b91505092915050565b7f43616e646964617465204944206e6f7420666f756e6420696e2077696e6e657260008201527f73206c6973742100000000000000000000000000000000000000000000000000602082015250565b600061110c602783610c3e565b9150611117826110b0565b604082019050919050565b6000602082019050818103600083015261113b816110ff565b9050919050565b60006040820190506111576000830185610bbb565b6111646020830184610a66565b9392505050565b7f4f6e6c7920766f74696e672061646d696e206f7220766f74696e6720636f6e7460008201527f726163742063616e20706572666f726d207468697320616374696f6e21000000602082015250565b60006111c7603d83610c3e565b91506111d28261116b565b604082019050919050565b600060208201905081810360008301526111f6816111ba565b9050919050565b7f43616e6e6f7420616464207a65726f2066756e64732100000000000000000000600082015250565b6000611233601683610c3e565b915061123e826111fd565b602082019050919050565b6000602082019050818103600083015261126281611226565b9050919050565b7f4e487b7100000000000000000000000000000000000000000000000000000000600052601160045260246000fd5b60006112a382610a5c565b91506112ae83610a5c565b92508282019050808211156112c6576112c5611269565b5b9291505056fea2646970667358221220e7dc4f26923f0cbe70652b52f1866056046046be09cbb52b62eefcb8b99d337364736f6c63430008180033",
  "linkReferences": {},
  "deployedLinkReferences": {}
}