{
  "_format": "hh-sol-artifact-1",
  "contractName": "Voting",
  "sourceName": "contracts/Voting.sol",
  "abi": [
    {
      "inputs": [
        {
          "internalType": "address payable",
          "name": "_rewarderAddress",
          "type": "address"
        }
      ],
      "stateMutability": "nonpayable",
      "type": "constructor"
    },
    {
      "anonymous": false,
      "inputs": [
        {
          "indexed": false,
          "internalType": "uint256",
          "name": "endVotingTimestamp",
          "type": "uint256"
        }
      ],
      "name": "EndVote",
      "type": "event"
    },
    {
      "anonymous": false,
      "inputs": [
        {
          "indexed": true,
          "internalType": "uint256",
          "name": "candidateId",
          "type": "uint256"
        },
        {
          "indexed": true,
          "internalType": "address",
          "name": "candidateAddress",
          "type": "address"
        },
        {
          "indexed": false,
          "internalType": "string",
          "name": "name",
          "type": "string"
        }
      ],
      "name": "SomeoneCandidated",
      "type": "event"
    },
    {
      "anonymous": false,
      "inputs": [
        {
          "indexed": true,
          "internalType": "address",
          "name": "voter",
          "type": "address"
        },
        {
          "indexed": true,
          "internalType": "uint256",
          "name": "candidateId",
          "type": "uint256"
        }
      ],
      "name": "SomeoneVoted",
      "type": "event"
    },
    {
      "anonymous": false,
      "inputs": [
        {
          "indexed": false,
          "internalType": "uint256",
          "name": "startVotingTimestamp",
          "type": "uint256"
        }
      ],
      "name": "StartVote",
      "type": "event"
    },
    {
      "inputs": [],
      "name": "adminEndVoteCost",
      "outputs": [
        {
          "internalType": "uint256",
          "name": "",
          "type": "uint256"
        }
      ],
      "stateMutability": "view",
      "type": "function"
    },
    {
      "inputs": [],
      "name": "adminStartVoteCost",
      "outputs": [
        {
          "internalType": "uint256",
          "name": "",
          "type": "uint256"
        }
      ],
      "stateMutability": "view",
      "type": "function"
    },
    {
      "inputs": [
        {
          "internalType": "string",
          "name": "_name",
          "type": "string"
        },
        {
          "internalType": "string",
          "name": "_description",
          "type": "string"
        }
      ],
      "name": "candidate",
      "outputs": [],
      "stateMutability": "nonpayable",
      "type": "function"
    },
    {
      "inputs": [
        {
          "internalType": "uint256",
          "name": "",
          "type": "uint256"
        }
      ],
      "name": "candidatesList",
      "outputs": [
        {
          "internalType": "uint256",
          "name": "candidateId",
          "type": "uint256"
        },
        {
          "internalType": "address",
          "name": "candidateAddress",
          "type": "address"
        },
        {
          "internalType": "string",
          "name": "name",
          "type": "string"
        },
        {
          "internalType": "string",
          "name": "description",
          "type": "string"
        },
        {
          "internalType": "uint256",
          "name": "numVotes",
          "type": "uint256"
        }
      ],
      "stateMutability": "view",
      "type": "function"
    },
    {
      "inputs": [],
      "name": "checkVotingCurrentState",
      "outputs": [
        {
          "internalType": "enum Voting.VotingState",
          "name": "",
          "type": "uint8"
        }
      ],
      "stateMutability": "view",
      "type": "function"
    },
    {
      "inputs": [],
      "name": "endVoting",
      "outputs": [],
      "stateMutability": "payable",
      "type": "function"
    },
    {
      "inputs": [],
      "name": "getCandidatesList",
      "outputs": [
        {
          "components": [
            {
              "internalType": "uint256",
              "name": "candidateId",
              "type": "uint256"
            },
            {
              "internalType": "address",
              "name": "candidateAddress",
              "type": "address"
            },
            {
              "internalType": "string",
              "name": "name",
              "type": "string"
            },
            {
              "internalType": "string",
              "name": "description",
              "type": "string"
            },
            {
              "internalType": "uint256",
              "name": "numVotes",
              "type": "uint256"
            }
          ],
          "internalType": "struct Voting.Candidate[]",
          "name": "",
          "type": "tuple[]"
        }
      ],
      "stateMutability": "view",
      "type": "function"
    },
    {
      "inputs": [
        {
          "internalType": "uint256",
          "name": "_winnerId",
          "type": "uint256"
        }
      ],
      "name": "getWinnerAddress",
      "outputs": [
        {
          "internalType": "address",
          "name": "",
          "type": "address"
        }
      ],
      "stateMutability": "view",
      "type": "function"
    },
    {
      "inputs": [],
      "name": "getWinners",
      "outputs": [
        {
          "internalType": "uint256[]",
          "name": "",
          "type": "uint256[]"
        }
      ],
      "stateMutability": "view",
      "type": "function"
    },
    {
      "inputs": [
        {
          "internalType": "address",
          "name": "",
          "type": "address"
        }
      ],
      "name": "hasCandidated",
      "outputs": [
        {
          "internalType": "bool",
          "name": "",
          "type": "bool"
        }
      ],
      "stateMutability": "view",
      "type": "function"
    },
    {
      "inputs": [],
      "name": "rewarder",
      "outputs": [
        {
          "internalType": "contract Rewarder",
          "name": "",
          "type": "address"
        }
      ],
      "stateMutability": "view",
      "type": "function"
    },
    {
      "inputs": [],
      "name": "startVoting",
      "outputs": [],
      "stateMutability": "payable",
      "type": "function"
    },
    {
      "inputs": [],
      "name": "startVotingTimestamp",
      "outputs": [
        {
          "internalType": "uint256",
          "name": "",
          "type": "uint256"
        }
      ],
      "stateMutability": "view",
      "type": "function"
    },
    {
      "inputs": [],
      "name": "stopVotingTimestamp",
      "outputs": [
        {
          "internalType": "uint256",
          "name": "",
          "type": "uint256"
        }
      ],
      "stateMutability": "view",
      "type": "function"
    },
    {
      "inputs": [],
      "name": "updateWinners",
      "outputs": [],
      "stateMutability": "nonpayable",
      "type": "function"
    },
    {
      "inputs": [
        {
          "internalType": "uint256[]",
          "name": "_candidateIds",
          "type": "uint256[]"
        }
      ],
      "name": "vote",
      "outputs": [],
      "stateMutability": "nonpayable",
      "type": "function"
    },
    {
      "inputs": [
        {
          "internalType": "address",
          "name": "",
          "type": "address"
        }
      ],
      "name": "voters",
      "outputs": [
        {
          "internalType": "uint256",
          "name": "numPersonsVoted",
          "type": "uint256"
        }
      ],
      "stateMutability": "view",
      "type": "function"
    },
    {
      "stateMutability": "payable",
      "type": "receive"
    }
  ],
  "bytecode": "0x6080604052600067ffffffffffffffff811115620000225762000021620003a5565b5b604051908082528060200260200182016040528015620000515781602001602082028036833780820191505090505b50600390805190602001906200006992919062000334565b50671d24b2dfac520000600755671d24b2dfac5200006008553480156200008f57600080fd5b5060405162003b0f38038062003b0f8339818101604052810190620000b591906200043e565b600073ffffffffffffffffffffffffffffffffffffffff168173ffffffffffffffffffffffffffffffffffffffff160362000127576040517f08c379a00000000000000000000000000000000000000000000000000000000081526004016200011e90620004d1565b60405180910390fd5b80600960006101000a81548173ffffffffffffffffffffffffffffffffffffffff021916908373ffffffffffffffffffffffffffffffffffffffff1602179055503373ffffffffffffffffffffffffffffffffffffffff16600960009054906101000a900473ffffffffffffffffffffffffffffffffffffffff1673ffffffffffffffffffffffffffffffffffffffff1663d45529f46040518163ffffffff1660e01b8152600401602060405180830381865afa158015620001ed573d6000803e3d6000fd5b505050506040513d601f19601f8201168201806040525081019062000213919062000538565b73ffffffffffffffffffffffffffffffffffffffff16146200026c576040517f08c379a00000000000000000000000000000000000000000000000000000000081526004016200026390620005e0565b60405180910390fd5b600960009054906101000a900473ffffffffffffffffffffffffffffffffffffffff1673ffffffffffffffffffffffffffffffffffffffff166348bd2c4b306040518263ffffffff1660e01b8152600401620002c9919062000613565b600060405180830381600087803b158015620002e457600080fd5b505af1158015620002f9573d6000803e3d6000fd5b505050506202a300426200030e919062000669565b6005819055506201518060055462000327919062000669565b60068190555050620006a4565b82805482825590600052602060002090810192821562000373579160200282015b828111156200037257825182559160200191906001019062000355565b5b50905062000382919062000386565b5090565b5b80821115620003a157600081600090555060010162000387565b5090565b7f4e487b7100000000000000000000000000000000000000000000000000000000600052604160045260246000fd5b600080fd5b600073ffffffffffffffffffffffffffffffffffffffff82169050919050565b60006200040682620003d9565b9050919050565b6200041881620003f9565b81146200042457600080fd5b50565b60008151905062000438816200040d565b92915050565b600060208284031215620004575762000456620003d4565b5b6000620004678482850162000427565b91505092915050565b600082825260208201905092915050565b7f496e76616c696420726577617264657220616464726573732100000000000000600082015250565b6000620004b960198362000470565b9150620004c68262000481565b602082019050919050565b60006020820190508181036000830152620004ec81620004aa565b9050919050565b60006200050082620003d9565b9050919050565b6200051281620004f3565b81146200051e57600080fd5b50565b600081519050620005328162000507565b92915050565b600060208284031215620005515762000550620003d4565b5b6000620005618482850162000521565b91505092915050565b7f596f75206d75737420626520746865206f776e6572206f66207468652072657760008201527f617264657220636f6e7472616374210000000000000000000000000000000000602082015250565b6000620005c8602f8362000470565b9150620005d5826200056a565b604082019050919050565b60006020820190508181036000830152620005fb81620005b9565b9050919050565b6200060d81620003f9565b82525050565b60006020820190506200062a600083018462000602565b92915050565b6000819050919050565b7f4e487b7100000000000000000000000000000000000000000000000000000000600052601160045260246000fd5b6000620006768262000630565b9150620006838362000630565b92508282019050808211156200069e576200069d6200063a565b5b92915050565b61345b80620006b46000396000f3fe6080604052600436106101025760003560e01c8063c3403ddf11610095578063d4c8727111610064578063d4c87271146102dc578063d95c3e0c14610319578063dcc3e06e14610344578063df15c37e1461036f578063df2d5ec71461039a57610109565b8063c3403ddf14610267578063c503c0a714610271578063cbb51a3e14610288578063ce11f2bb146102b357610109565b8063a3ec138d116100d1578063a3ec138d146101ab578063bbe45269146101e8578063be4c312414610211578063c106552f1461023c57610109565b80630488a2be1461010e5780631ec6b60a146101395780634aba5f3414610143578063515371a31461016e57610109565b3661010957005b600080fd5b34801561011a57600080fd5b506101236103db565b6040516101309190611de4565b60405180910390f35b6101416103e1565b005b34801561014f57600080fd5b50610158610645565b604051610165919061201e565b60405180910390f35b34801561017a57600080fd5b5061019560048036038101906101909190612080565b610832565b6040516101a291906120bc565b60405180910390f35b3480156101b757600080fd5b506101d260048036038101906101cd9190612103565b6108ee565b6040516101df9190611de4565b60405180910390f35b3480156101f457600080fd5b5061020f600480360381019061020a9190612265565b61090c565b005b34801561021d57600080fd5b50610226610cab565b6040516102339190611de4565b60405180910390f35b34801561024857600080fd5b50610251610cb1565b60405161025e9190611de4565b60405180910390f35b61026f610cb7565b005b34801561027d57600080fd5b50610286610f54565b005b34801561029457600080fd5b5061029d61125b565b6040516102aa9190612354565b60405180910390f35b3480156102bf57600080fd5b506102da60048036038101906102d59190612437565b61128b565b005b3480156102e857600080fd5b5061030360048036038101906102fe9190612103565b61161a565b604051610310919061249b565b60405180910390f35b34801561032557600080fd5b5061032e61163a565b60405161033b9190611de4565b60405180910390f35b34801561035057600080fd5b50610359611640565b6040516103669190612515565b60405180910390f35b34801561037b57600080fd5b50610384611666565b60405161039191906125df565b60405180910390f35b3480156103a657600080fd5b506103c160048036038101906103bc9190612080565b611773565b6040516103d295949392919061264b565b60405180910390f35b60075481565b600060028111156103f5576103f46122dd565b5b6103fd61125b565b600281111561040f5761040e6122dd565b5b1461044f576040517f08c379a0000000000000000000000000000000000000000000000000000000008152600401610446906126f8565b60405180910390fd5b600960009054906101000a900473ffffffffffffffffffffffffffffffffffffffff1673ffffffffffffffffffffffffffffffffffffffff1663d45529f46040518163ffffffff1660e01b8152600401602060405180830381865afa1580156104bc573d6000803e3d6000fd5b505050506040513d601f19601f820116820180604052508101906104e0919061272d565b73ffffffffffffffffffffffffffffffffffffffff163373ffffffffffffffffffffffffffffffffffffffff161461054d576040517f08c379a0000000000000000000000000000000000000000000000000000000008152600401610544906127cc565b60405180910390fd5b60055442146106035760075434101561057a670de0b6b3a7640000600754610575919061284a565b6118e9565b610598670de0b6b3a7640000600754610593919061287b565b6118e9565b6040516020016105a99291906129f2565b604051602081830303815290604052906105f9576040517f08c379a00000000000000000000000000000000000000000000000000000000081526004016105f09190612a37565b60405180910390fd5b506106026119b7565b5b426005819055507f33c2d6285ba1442f7dd954820743aacec7468bc52e1671024b948f48f132264060055460405161063b9190611de4565b60405180910390a1565b60606002805480602002602001604051908101604052809291908181526020016000905b8282101561082957838290600052602060002090600502016040518060a0016040529081600082015481526020016001820160009054906101000a900473ffffffffffffffffffffffffffffffffffffffff1673ffffffffffffffffffffffffffffffffffffffff1673ffffffffffffffffffffffffffffffffffffffff1681526020016002820180546106fc90612a88565b80601f016020809104026020016040519081016040528092919081815260200182805461072890612a88565b80156107755780601f1061074a57610100808354040283529160200191610775565b820191906000526020600020905b81548152906001019060200180831161075857829003601f168201915b5050505050815260200160038201805461078e90612a88565b80601f01602080910402602001604051908101604052809291908181526020018280546107ba90612a88565b80156108075780601f106107dc57610100808354040283529160200191610807565b820191906000526020600020905b8154815290600101906020018083116107ea57829003601f168201915b5050505050815260200160048201548152505081526020019060010190610669565b50505050905090565b6000600280811115610847576108466122dd565b5b61084f61125b565b6002811115610861576108606122dd565b5b146108a1576040517f08c379a000000000000000000000000000000000000000000000000000000000815260040161089890612b05565b60405180910390fd5b600282815481106108b5576108b4612b25565b5b906000526020600020906005020160010160009054906101000a900473ffffffffffffffffffffffffffffffffffffffff169050919050565b60016020528060005260406000206000915090508060010154905081565b600060028111156109205761091f6122dd565b5b61092861125b565b600281111561093a576109396122dd565b5b1461097a576040517f08c379a0000000000000000000000000000000000000000000000000000000008152600401610971906126f8565b60405180910390fd5b600960009054906101000a900473ffffffffffffffffffffffffffffffffffffffff1673ffffffffffffffffffffffffffffffffffffffff1663d45529f46040518163ffffffff1660e01b8152600401602060405180830381865afa1580156109e7573d6000803e3d6000fd5b505050506040513d601f19601f82011682018060405250810190610a0b919061272d565b73ffffffffffffffffffffffffffffffffffffffff163373ffffffffffffffffffffffffffffffffffffffff1603610a78576040517f08c379a0000000000000000000000000000000000000000000000000000000008152600401610a6f90612bc6565b60405180910390fd5b6000803373ffffffffffffffffffffffffffffffffffffffff1673ffffffffffffffffffffffffffffffffffffffff16815260200190815260200160002060009054906101000a900460ff1615610b04576040517f08c379a0000000000000000000000000000000000000000000000000000000008152600401610afb90612c32565b60405180910390fd5b6000600280549050905060026040518060a001604052808381526020013373ffffffffffffffffffffffffffffffffffffffff168152602001858152602001848152602001600081525090806001815401808255809150506001900390600052602060002090600502016000909190919091506000820151816000015560208201518160010160006101000a81548173ffffffffffffffffffffffffffffffffffffffff021916908373ffffffffffffffffffffffffffffffffffffffff1602179055506040820151816002019081610bdd9190612df4565b506060820151816003019081610bf39190612df4565b5060808201518160040155505060016000803373ffffffffffffffffffffffffffffffffffffffff1673ffffffffffffffffffffffffffffffffffffffff16815260200190815260200160002060006101000a81548160ff0219169083151502179055503373ffffffffffffffffffffffffffffffffffffffff16817f1eae29c2b58d462ec01899beec8638862c6efafd4f3fc81015095a62fcdd5f7385604051610c9e9190612a37565b60405180910390a3505050565b60065481565b60085481565b60016002811115610ccb57610cca6122dd565b5b610cd361125b565b6002811115610ce557610ce46122dd565b5b14610d25576040517f08c379a0000000000000000000000000000000000000000000000000000000008152600401610d1c90612f12565b60405180910390fd5b600960009054906101000a900473ffffffffffffffffffffffffffffffffffffffff1673ffffffffffffffffffffffffffffffffffffffff1663d45529f46040518163ffffffff1660e01b8152600401602060405180830381865afa158015610d92573d6000803e3d6000fd5b505050506040513d601f19601f82011682018060405250810190610db6919061272d565b73ffffffffffffffffffffffffffffffffffffffff163373ffffffffffffffffffffffffffffffffffffffff1614610e23576040517f08c379a0000000000000000000000000000000000000000000000000000000008152600401610e1a906127cc565b60405180910390fd5b60006002600554600654610e379190612f32565b610e41919061284a565b600554610e4e9190612f66565b905080421080610e5f575060065442115b15610f1157600854341015610e88670de0b6b3a7640000600854610e83919061284a565b6118e9565b610ea6670de0b6b3a7640000600854610ea1919061287b565b6118e9565b604051602001610eb792919061300c565b60405160208183030381529060405290610f07576040517f08c379a0000000000000000000000000000000000000000000000000000000008152600401610efe9190612a37565b60405180910390fd5b50610f106119b7565b5b426006819055507ffce20a510f6f83f7014a422dfa9541af4170f706faeed678bf815b2bad2c3b9d600654604051610f499190611de4565b60405180910390a150565b600280811115610f6757610f666122dd565b5b610f6f61125b565b6002811115610f8157610f806122dd565b5b14610fc1576040517f08c379a0000000000000000000000000000000000000000000000000000000008152600401610fb890612b05565b60405180910390fd5b600960009054906101000a900473ffffffffffffffffffffffffffffffffffffffff1673ffffffffffffffffffffffffffffffffffffffff1663d45529f46040518163ffffffff1660e01b8152600401602060405180830381865afa15801561102e573d6000803e3d6000fd5b505050506040513d601f19601f82011682018060405250810190611052919061272d565b73ffffffffffffffffffffffffffffffffffffffff163373ffffffffffffffffffffffffffffffffffffffff16146110bf576040517f08c379a00000000000000000000000000000000000000000000000000000000081526004016110b6906127cc565b60405180910390fd5b60008060005b6002805490508110156111795782600282815481106110e7576110e6612b25565b5b9060005260206000209060050201600401541115611130576002818154811061111357611112612b25565b5b90600052602060002090600502016004015492506001915061116c565b826002828154811061114557611144612b25565b5b9060005260206000209060050201600401540361116b57818061116790613051565b9250505b5b80806001019150506110c5565b508067ffffffffffffffff8111156111945761119361213a565b5b6040519080825280602002602001820160405280156111c25781602001602082028036833780820191505090505b50600390805190602001906111d8929190611d61565b506000805b6002805490508110156112555783600282815481106111ff576111fe612b25565b5b9060005260206000209060050201600401540361124857806003838154811061122b5761122a612b25565b5b9060005260206000200181905550818061124490613051565b9250505b80806001019150506111dd565b50505050565b60006005544210156112705760009050611288565b6006544210156112835760019050611288565b600290505b90565b6001600281111561129f5761129e6122dd565b5b6112a761125b565b60028111156112b9576112b86122dd565b5b146112f9576040517f08c379a00000000000000000000000000000000000000000000000000000000081526004016112f090612f12565b60405180910390fd5b600081511161133d576040517f08c379a00000000000000000000000000000000000000000000000000000000081526004016113349061310b565b60405180910390fd5b60005b81518110156115b757600082828151811061135e5761135d612b25565b5b6020026020010151905060028054905081106113af576040517f08c379a00000000000000000000000000000000000000000000000000000000081526004016113a690613177565b60405180910390fd5b600160003373ffffffffffffffffffffffffffffffffffffffff1673ffffffffffffffffffffffffffffffffffffffff168152602001908152602001600020600001600082815260200190815260200160002060009054906101000a900460ff1615611450576040517f08c379a000000000000000000000000000000000000000000000000000000000815260040161144790613209565b60405180910390fd5b6002818154811061146457611463612b25565b5b906000526020600020906005020160010160009054906101000a900473ffffffffffffffffffffffffffffffffffffffff1673ffffffffffffffffffffffffffffffffffffffff163373ffffffffffffffffffffffffffffffffffffffff1603611503576040517f08c379a00000000000000000000000000000000000000000000000000000000081526004016114fa90613275565b60405180910390fd5b6002818154811061151757611516612b25565b5b9060005260206000209060050201600401600081548092919061153990613051565b919050555060018060003373ffffffffffffffffffffffffffffffffffffffff1673ffffffffffffffffffffffffffffffffffffffff168152602001908152602001600020600001600083815260200190815260200160002060006101000a81548160ff021916908315150217905550508080600101915050611340565b50806000815181106115cc576115cb612b25565b5b60200260200101513373ffffffffffffffffffffffffffffffffffffffff167f91245104b789a7305f92f9021565196417b6da8b936d6acdd30bccc0e7ee15d560405160405180910390a350565b60006020528060005260406000206000915054906101000a900460ff1681565b60055481565b600960009054906101000a900473ffffffffffffffffffffffffffffffffffffffff1681565b606060028081111561167b5761167a6122dd565b5b61168361125b565b6002811115611695576116946122dd565b5b146116d5576040517f08c379a00000000000000000000000000000000000000000000000000000000081526004016116cc90612b05565b60405180910390fd5b60006003805490501161171d576040517f08c379a000000000000000000000000000000000000000000000000000000000815260040161171490613307565b60405180910390fd5b600380548060200260200160405190810160405280929190818152602001828054801561176957602002820191906000526020600020905b815481526020019060010190808311611755575b5050505050905090565b6002818154811061178357600080fd5b90600052602060002090600502016000915090508060000154908060010160009054906101000a900473ffffffffffffffffffffffffffffffffffffffff16908060020180546117d290612a88565b80601f01602080910402602001604051908101604052809291908181526020018280546117fe90612a88565b801561184b5780601f106118205761010080835404028352916020019161184b565b820191906000526020600020905b81548152906001019060200180831161182e57829003601f168201915b50505050509080600301805461186090612a88565b80601f016020809104026020016040519081016040528092919081815260200182805461188c90612a88565b80156118d95780601f106118ae576101008083540402835291602001916118d9565b820191906000526020600020905b8154815290600101906020018083116118bc57829003601f168201915b5050505050908060040154905085565b6060600060016118f884611c0e565b01905060008167ffffffffffffffff8111156119175761191661213a565b5b6040519080825280601f01601f1916602001820160405280156119495781602001600182028036833780820191505090505b509050600082602001820190505b6001156119ac578080600190039150507f3031323334353637383961626364656600000000000000000000000000000000600a86061a8153600a85816119a05761199f6127ec565b5b04945060008503611957575b819350505050919050565b600960009054906101000a900473ffffffffffffffffffffffffffffffffffffffff1673ffffffffffffffffffffffffffffffffffffffff1663d45529f46040518163ffffffff1660e01b8152600401602060405180830381865afa158015611a24573d6000803e3d6000fd5b505050506040513d601f19601f82011682018060405250810190611a48919061272d565b73ffffffffffffffffffffffffffffffffffffffff163373ffffffffffffffffffffffffffffffffffffffff1614611ab5576040517f08c379a0000000000000000000000000000000000000000000000000000000008152600401611aac906127cc565b60405180910390fd5b600073ffffffffffffffffffffffffffffffffffffffff16600960009054906101000a900473ffffffffffffffffffffffffffffffffffffffff1673ffffffffffffffffffffffffffffffffffffffff1603611b46576040517f08c379a0000000000000000000000000000000000000000000000000000000008152600401611b3d90613399565b60405180910390fd5b60003411611b89576040517f08c379a0000000000000000000000000000000000000000000000000000000008152600401611b8090613405565b60405180910390fd5b600960009054906101000a900473ffffffffffffffffffffffffffffffffffffffff1673ffffffffffffffffffffffffffffffffffffffff1663f1575f3f346040518263ffffffff1660e01b81526004016000604051808303818588803b158015611bf357600080fd5b505af1158015611c07573d6000803e3d6000fd5b5050505050565b600080600090507a184f03e93ff9f4daa797ed6e38ed64bf6a1f0100000000000000008310611c6c577a184f03e93ff9f4daa797ed6e38ed64bf6a1f0100000000000000008381611c6257611c616127ec565b5b0492506040810190505b6d04ee2d6d415b85acef81000000008310611ca9576d04ee2d6d415b85acef81000000008381611c9f57611c9e6127ec565b5b0492506020810190505b662386f26fc100008310611cd857662386f26fc100008381611cce57611ccd6127ec565b5b0492506010810190505b6305f5e1008310611d01576305f5e1008381611cf757611cf66127ec565b5b0492506008810190505b6127108310611d26576127108381611d1c57611d1b6127ec565b5b0492506004810190505b60648310611d495760648381611d3f57611d3e6127ec565b5b0492506002810190505b600a8310611d58576001810190505b80915050919050565b828054828255906000526020600020908101928215611d9d579160200282015b82811115611d9c578251825591602001919060010190611d81565b5b509050611daa9190611dae565b5090565b5b80821115611dc7576000816000905550600101611daf565b5090565b6000819050919050565b611dde81611dcb565b82525050565b6000602082019050611df96000830184611dd5565b92915050565b600081519050919050565b600082825260208201905092915050565b6000819050602082019050919050565b611e3481611dcb565b82525050565b600073ffffffffffffffffffffffffffffffffffffffff82169050919050565b6000611e6582611e3a565b9050919050565b611e7581611e5a565b82525050565b600081519050919050565b600082825260208201905092915050565b60005b83811015611eb5578082015181840152602081019050611e9a565b60008484015250505050565b6000601f19601f8301169050919050565b6000611edd82611e7b565b611ee78185611e86565b9350611ef7818560208601611e97565b611f0081611ec1565b840191505092915050565b600060a083016000830151611f236000860182611e2b565b506020830151611f366020860182611e6c565b5060408301518482036040860152611f4e8282611ed2565b91505060608301518482036060860152611f688282611ed2565b9150506080830151611f7d6080860182611e2b565b508091505092915050565b6000611f948383611f0b565b905092915050565b6000602082019050919050565b6000611fb482611dff565b611fbe8185611e0a565b935083602082028501611fd085611e1b565b8060005b8581101561200c5784840389528151611fed8582611f88565b9450611ff883611f9c565b925060208a01995050600181019050611fd4565b50829750879550505050505092915050565b600060208201905081810360008301526120388184611fa9565b905092915050565b6000604051905090565b600080fd5b600080fd5b61205d81611dcb565b811461206857600080fd5b50565b60008135905061207a81612054565b92915050565b6000602082840312156120965761209561204a565b5b60006120a48482850161206b565b91505092915050565b6120b681611e5a565b82525050565b60006020820190506120d160008301846120ad565b92915050565b6120e081611e5a565b81146120eb57600080fd5b50565b6000813590506120fd816120d7565b92915050565b6000602082840312156121195761211861204a565b5b6000612127848285016120ee565b91505092915050565b600080fd5b600080fd5b7f4e487b7100000000000000000000000000000000000000000000000000000000600052604160045260246000fd5b61217282611ec1565b810181811067ffffffffffffffff821117156121915761219061213a565b5b80604052505050565b60006121a4612040565b90506121b08282612169565b919050565b600067ffffffffffffffff8211156121d0576121cf61213a565b5b6121d982611ec1565b9050602081019050919050565b82818337600083830152505050565b6000612208612203846121b5565b61219a565b90508281526020810184848401111561222457612223612135565b5b61222f8482856121e6565b509392505050565b600082601f83011261224c5761224b612130565b5b813561225c8482602086016121f5565b91505092915050565b6000806040838503121561227c5761227b61204a565b5b600083013567ffffffffffffffff81111561229a5761229961204f565b5b6122a685828601612237565b925050602083013567ffffffffffffffff8111156122c7576122c661204f565b5b6122d385828601612237565b9150509250929050565b7f4e487b7100000000000000000000000000000000000000000000000000000000600052602160045260246000fd5b6003811061231d5761231c6122dd565b5b50565b600081905061232e8261230c565b919050565b600061233e82612320565b9050919050565b61234e81612333565b82525050565b60006020820190506123696000830184612345565b92915050565b600067ffffffffffffffff82111561238a5761238961213a565b5b602082029050602081019050919050565b600080fd5b60006123b36123ae8461236f565b61219a565b905080838252602082019050602084028301858111156123d6576123d561239b565b5b835b818110156123ff57806123eb888261206b565b8452602084019350506020810190506123d8565b5050509392505050565b600082601f83011261241e5761241d612130565b5b813561242e8482602086016123a0565b91505092915050565b60006020828403121561244d5761244c61204a565b5b600082013567ffffffffffffffff81111561246b5761246a61204f565b5b61247784828501612409565b91505092915050565b60008115159050919050565b61249581612480565b82525050565b60006020820190506124b0600083018461248c565b92915050565b6000819050919050565b60006124db6124d66124d184611e3a565b6124b6565b611e3a565b9050919050565b60006124ed826124c0565b9050919050565b60006124ff826124e2565b9050919050565b61250f816124f4565b82525050565b600060208201905061252a6000830184612506565b92915050565b600081519050919050565b600082825260208201905092915050565b6000819050602082019050919050565b60006125688383611e2b565b60208301905092915050565b6000602082019050919050565b600061258c82612530565b612596818561253b565b93506125a18361254c565b8060005b838110156125d25781516125b9888261255c565b97506125c483612574565b9250506001810190506125a5565b5085935050505092915050565b600060208201905081810360008301526125f98184612581565b905092915050565b600082825260208201905092915050565b600061261d82611e7b565b6126278185612601565b9350612637818560208601611e97565b61264081611ec1565b840191505092915050565b600060a0820190506126606000830188611dd5565b61266d60208301876120ad565b818103604083015261267f8186612612565b905081810360608301526126938185612612565b90506126a26080830184611dd5565b9695505050505050565b7f566f74696e672068617320616c72656164792073746172746564210000000000600082015250565b60006126e2601b83612601565b91506126ed826126ac565b602082019050919050565b60006020820190508181036000830152612711816126d5565b9050919050565b600081519050612727816120d7565b92915050565b6000602082840312156127435761274261204a565b5b600061275184828501612718565b91505092915050565b7f4f6e6c792061646d696e2063616e20706572666f726d2074686973206163746960008201527f6f6e210000000000000000000000000000000000000000000000000000000000602082015250565b60006127b6602383612601565b91506127c18261275a565b604082019050919050565b600060208201905081810360008301526127e5816127a9565b9050919050565b7f4e487b7100000000000000000000000000000000000000000000000000000000600052601260045260246000fd5b7f4e487b7100000000000000000000000000000000000000000000000000000000600052601160045260246000fd5b600061285582611dcb565b915061286083611dcb565b9250826128705761286f6127ec565b5b828204905092915050565b600061288682611dcb565b915061289183611dcb565b9250826128a1576128a06127ec565b5b828206905092915050565b600081905092915050565b7f496e73756666696369656e74207061796d656e7420746f20737461727420766f60008201527f74696e67206561726c792120596f75206e656564206174206c65617374200000602082015250565b6000612913603e836128ac565b915061291e826128b7565b603e82019050919050565b600061293482611e7b565b61293e81856128ac565b935061294e818560208601611e97565b80840191505092915050565b7f2e00000000000000000000000000000000000000000000000000000000000000600082015250565b60006129906001836128ac565b915061299b8261295a565b600182019050919050565b7f206574686572732e000000000000000000000000000000000000000000000000600082015250565b60006129dc6008836128ac565b91506129e7826129a6565b600882019050919050565b60006129fd82612906565b9150612a098285612929565b9150612a1482612983565b9150612a208284612929565b9150612a2b826129cf565b91508190509392505050565b60006020820190508181036000830152612a518184612612565b905092915050565b7f4e487b7100000000000000000000000000000000000000000000000000000000600052602260045260246000fd5b60006002820490506001821680612aa057607f821691505b602082108103612ab357612ab2612a59565b5b50919050565b7f566f74696e6720686173206e6f7420656e646564210000000000000000000000600082015250565b6000612aef601583612601565b9150612afa82612ab9565b602082019050919050565b60006020820190508181036000830152612b1e81612ae2565b9050919050565b7f4e487b7100000000000000000000000000000000000000000000000000000000600052603260045260246000fd5b7f4f6e6c7920726567756c61722075736572732063616e20706572666f726d207460008201527f68697320616374696f6e21000000000000000000000000000000000000000000602082015250565b6000612bb0602b83612601565b9150612bbb82612b54565b604082019050919050565b60006020820190508181036000830152612bdf81612ba3565b9050919050565b7f596f75206861766520616c72656164792063616e646964617465642100000000600082015250565b6000612c1c601c83612601565b9150612c2782612be6565b602082019050919050565b60006020820190508181036000830152612c4b81612c0f565b9050919050565b60008190508160005260206000209050919050565b60006020601f8301049050919050565b600082821b905092915050565b600060088302612cb47fffffffffffffffffffffffffffffffffffffffffffffffffffffffffffffffff82612c77565b612cbe8683612c77565b95508019841693508086168417925050509392505050565b6000612cf1612cec612ce784611dcb565b6124b6565b611dcb565b9050919050565b6000819050919050565b612d0b83612cd6565b612d1f612d1782612cf8565b848454612c84565b825550505050565b600090565b612d34612d27565b612d3f818484612d02565b505050565b5b81811015612d6357612d58600082612d2c565b600181019050612d45565b5050565b601f821115612da857612d7981612c52565b612d8284612c67565b81016020851015612d91578190505b612da5612d9d85612c67565b830182612d44565b50505b505050565b600082821c905092915050565b6000612dcb60001984600802612dad565b1980831691505092915050565b6000612de48383612dba565b9150826002028217905092915050565b612dfd82611e7b565b67ffffffffffffffff811115612e1657612e1561213a565b5b612e208254612a88565b612e2b828285612d67565b600060209050601f831160018114612e5e5760008415612e4c578287015190505b612e568582612dd8565b865550612ebe565b601f198416612e6c86612c52565b60005b82811015612e9457848901518255600182019150602085019450602081019050612e6f565b86831015612eb15784890151612ead601f891682612dba565b8355505b6001600288020188555050505b505050505050565b7f566f74696e6720686173206e6f74207374617274656421000000000000000000600082015250565b6000612efc601783612601565b9150612f0782612ec6565b602082019050919050565b60006020820190508181036000830152612f2b81612eef565b9050919050565b6000612f3d82611dcb565b9150612f4883611dcb565b9250828203905081811115612f6057612f5f61281b565b5b92915050565b6000612f7182611dcb565b9150612f7c83611dcb565b9250828201905080821115612f9457612f9361281b565b5b92915050565b7f496e73756666696369656e74207061796d656e7420746f20656e6420766f746960008201527f6e67206561726c792120596f75206e656564206174206c656173742000000000602082015250565b6000612ff6603c836128ac565b915061300182612f9a565b603c82019050919050565b600061301782612fe9565b91506130238285612929565b915061302e82612983565b915061303a8284612929565b9150613045826129cf565b91508190509392505050565b600061305c82611dcb565b91507fffffffffffffffffffffffffffffffffffffffffffffffffffffffffffffffff820361308e5761308d61281b565b5b600182019050919050565b7f4e6f2063616e646964617465732073656c656374656420666f7220766f74696e60008201527f6721000000000000000000000000000000000000000000000000000000000000602082015250565b60006130f5602283612601565b915061310082613099565b604082019050919050565b60006020820190508181036000830152613124816130e8565b9050919050565b7f496e76616c69642063616e646964617465204944210000000000000000000000600082015250565b6000613161601583612601565b915061316c8261312b565b602082019050919050565b6000602082019050818103600083015261319081613154565b9050919050565b7f596f75206861766520616c726561647920766f74656420666f7220746869732060008201527f63616e6469646174652100000000000000000000000000000000000000000000602082015250565b60006131f3602a83612601565b91506131fe82613197565b604082019050919050565b60006020820190508181036000830152613222816131e6565b9050919050565b7f596f752063616e6e6f7420766f746520666f7220796f757273656c6621000000600082015250565b600061325f601d83612601565b915061326a82613229565b602082019050919050565b6000602082019050818103600083015261328e81613252565b9050919050565b7f57696e6e6572732068617665206e6f74206265656e207570646174656420796560008201527f7421000000000000000000000000000000000000000000000000000000000000602082015250565b60006132f1602283612601565b91506132fc82613295565b604082019050919050565b60006020820190508181036000830152613320816132e4565b9050919050565b7f526577617264657220636f6e747261637420686173206e6f74206265656e206960008201527f6e697469616c697a656421000000000000000000000000000000000000000000602082015250565b6000613383602b83612601565b915061338e82613327565b604082019050919050565b600060208201905081810360008301526133b281613376565b9050919050565b7f416d6f756e74206d7573742062652067726561746572207468616e2030210000600082015250565b60006133ef601e83612601565b91506133fa826133b9565b602082019050919050565b6000602082019050818103600083015261341e816133e2565b905091905056fea26469706673582212205ab749a4618308056bd20a235620a4d24a5f4c27ddf574d8ace1c04f2187083964736f6c63430008180033",
  "linkReferences": {},
  "deployedLinkReferences": {}
}