{
  "_format": "hh-sol-artifact-1",
  "contractName": "Voting",
  "sourceName": "contracts/Voting.sol",
  "abi": [
    {
      "inputs": [
        {
          "internalType": "address payable",
          "name": "_rewarderAddress",
          "type": "address"
        }
      ],
      "stateMutability": "nonpayable",
      "type": "constructor"
    },
    {
      "anonymous": false,
      "inputs": [
        {
          "indexed": false,
          "internalType": "uint256",
          "name": "endVotingTimestamp",
          "type": "uint256"
        }
      ],
      "name": "EndVote",
      "type": "event"
    },
    {
      "anonymous": false,
      "inputs": [
        {
          "indexed": true,
          "internalType": "uint256",
          "name": "candidateId",
          "type": "uint256"
        },
        {
          "indexed": true,
          "internalType": "address",
          "name": "candidateAddress",
          "type": "address"
        },
        {
          "indexed": false,
          "internalType": "string",
          "name": "name",
          "type": "string"
        }
      ],
      "name": "SomeoneCandidated",
      "type": "event"
    },
    {
      "anonymous": false,
      "inputs": [
        {
          "indexed": true,
          "internalType": "address",
          "name": "voter",
          "type": "address"
        },
        {
          "indexed": true,
          "internalType": "uint256",
          "name": "candidateId",
          "type": "uint256"
        }
      ],
      "name": "SomeoneVoted",
      "type": "event"
    },
    {
      "anonymous": false,
      "inputs": [
        {
          "indexed": false,
          "internalType": "uint256",
          "name": "startVotingTimestamp",
          "type": "uint256"
        }
      ],
      "name": "StartVote",
      "type": "event"
    },
    {
      "inputs": [],
      "name": "adminEndVoteCost",
      "outputs": [
        {
          "internalType": "uint256",
          "name": "",
          "type": "uint256"
        }
      ],
      "stateMutability": "view",
      "type": "function"
    },
    {
      "inputs": [],
      "name": "adminStartVoteCost",
      "outputs": [
        {
          "internalType": "uint256",
          "name": "",
          "type": "uint256"
        }
      ],
      "stateMutability": "view",
      "type": "function"
    },
    {
      "inputs": [
        {
          "internalType": "string",
          "name": "_name",
          "type": "string"
        },
        {
          "internalType": "string",
          "name": "_description",
          "type": "string"
        }
      ],
      "name": "candidate",
      "outputs": [],
      "stateMutability": "nonpayable",
      "type": "function"
    },
    {
      "inputs": [
        {
          "internalType": "uint256",
          "name": "",
          "type": "uint256"
        }
      ],
      "name": "candidatesList",
      "outputs": [
        {
          "internalType": "uint256",
          "name": "candidateId",
          "type": "uint256"
        },
        {
          "internalType": "address",
          "name": "candidateAddress",
          "type": "address"
        },
        {
          "internalType": "string",
          "name": "name",
          "type": "string"
        },
        {
          "internalType": "string",
          "name": "description",
          "type": "string"
        },
        {
          "internalType": "uint256",
          "name": "numVotes",
          "type": "uint256"
        }
      ],
      "stateMutability": "view",
      "type": "function"
    },
    {
      "inputs": [],
      "name": "checkVotingCurrentState",
      "outputs": [
        {
          "internalType": "enum Voting.VotingState",
          "name": "",
          "type": "uint8"
        }
      ],
      "stateMutability": "view",
      "type": "function"
    },
    {
      "inputs": [],
      "name": "debuggingGetWinners",
      "outputs": [
        {
          "internalType": "uint256[]",
          "name": "",
          "type": "uint256[]"
        }
      ],
      "stateMutability": "view",
      "type": "function"
    },
    {
      "inputs": [],
      "name": "endVoting",
      "outputs": [],
      "stateMutability": "payable",
      "type": "function"
    },
    {
      "inputs": [],
      "name": "getCandidatesList",
      "outputs": [
        {
          "components": [
            {
              "internalType": "uint256",
              "name": "candidateId",
              "type": "uint256"
            },
            {
              "internalType": "address",
              "name": "candidateAddress",
              "type": "address"
            },
            {
              "internalType": "string",
              "name": "name",
              "type": "string"
            },
            {
              "internalType": "string",
              "name": "description",
              "type": "string"
            },
            {
              "internalType": "uint256",
              "name": "numVotes",
              "type": "uint256"
            }
          ],
          "internalType": "struct Voting.Candidate[]",
          "name": "",
          "type": "tuple[]"
        }
      ],
      "stateMutability": "view",
      "type": "function"
    },
    {
      "inputs": [
        {
          "internalType": "uint256",
          "name": "_winnerId",
          "type": "uint256"
        }
      ],
      "name": "getWinnerAddress",
      "outputs": [
        {
          "internalType": "address",
          "name": "",
          "type": "address"
        }
      ],
      "stateMutability": "view",
      "type": "function"
    },
    {
      "inputs": [],
      "name": "getWinners",
      "outputs": [
        {
          "internalType": "uint256[]",
          "name": "",
          "type": "uint256[]"
        }
      ],
      "stateMutability": "nonpayable",
      "type": "function"
    },
    {
      "inputs": [
        {
          "internalType": "address",
          "name": "",
          "type": "address"
        }
      ],
      "name": "hasCandidated",
      "outputs": [
        {
          "internalType": "bool",
          "name": "",
          "type": "bool"
        }
      ],
      "stateMutability": "view",
      "type": "function"
    },
    {
      "inputs": [],
      "name": "rewarder",
      "outputs": [
        {
          "internalType": "contract Rewarder",
          "name": "",
          "type": "address"
        }
      ],
      "stateMutability": "view",
      "type": "function"
    },
    {
      "inputs": [],
      "name": "startVoting",
      "outputs": [],
      "stateMutability": "payable",
      "type": "function"
    },
    {
      "inputs": [],
      "name": "startVotingTimestamp",
      "outputs": [
        {
          "internalType": "uint256",
          "name": "",
          "type": "uint256"
        }
      ],
      "stateMutability": "view",
      "type": "function"
    },
    {
      "inputs": [],
      "name": "stopVotingTimestamp",
      "outputs": [
        {
          "internalType": "uint256",
          "name": "",
          "type": "uint256"
        }
      ],
      "stateMutability": "view",
      "type": "function"
    },
    {
      "inputs": [
        {
          "internalType": "uint256[]",
          "name": "_candidateIds",
          "type": "uint256[]"
        }
      ],
      "name": "vote",
      "outputs": [],
      "stateMutability": "nonpayable",
      "type": "function"
    },
    {
      "inputs": [
        {
          "internalType": "address",
          "name": "",
          "type": "address"
        }
      ],
      "name": "voters",
      "outputs": [
        {
          "internalType": "uint256",
          "name": "numPersonsVoted",
          "type": "uint256"
        }
      ],
      "stateMutability": "view",
      "type": "function"
    },
    {
      "stateMutability": "payable",
      "type": "receive"
    }
  ],
  "bytecode": "0x6080604052600067ffffffffffffffff811115620000225762000021620003a5565b5b604051908082528060200260200182016040528015620000515781602001602082028036833780820191505090505b50600390805190602001906200006992919062000334565b50671d24b2dfac520000600755671d24b2dfac5200006008553480156200008f57600080fd5b5060405162003ae538038062003ae58339818101604052810190620000b591906200043e565b600073ffffffffffffffffffffffffffffffffffffffff168173ffffffffffffffffffffffffffffffffffffffff160362000127576040517f08c379a00000000000000000000000000000000000000000000000000000000081526004016200011e90620004d1565b60405180910390fd5b80600960006101000a81548173ffffffffffffffffffffffffffffffffffffffff021916908373ffffffffffffffffffffffffffffffffffffffff1602179055503373ffffffffffffffffffffffffffffffffffffffff16600960009054906101000a900473ffffffffffffffffffffffffffffffffffffffff1673ffffffffffffffffffffffffffffffffffffffff1663d45529f46040518163ffffffff1660e01b8152600401602060405180830381865afa158015620001ed573d6000803e3d6000fd5b505050506040513d601f19601f8201168201806040525081019062000213919062000538565b73ffffffffffffffffffffffffffffffffffffffff16146200026c576040517f08c379a00000000000000000000000000000000000000000000000000000000081526004016200026390620005e0565b60405180910390fd5b600960009054906101000a900473ffffffffffffffffffffffffffffffffffffffff1673ffffffffffffffffffffffffffffffffffffffff166348bd2c4b306040518263ffffffff1660e01b8152600401620002c9919062000613565b600060405180830381600087803b158015620002e457600080fd5b505af1158015620002f9573d6000803e3d6000fd5b505050506202a300426200030e919062000669565b6005819055506201518060055462000327919062000669565b60068190555050620006a4565b82805482825590600052602060002090810192821562000373579160200282015b828111156200037257825182559160200191906001019062000355565b5b50905062000382919062000386565b5090565b5b80821115620003a157600081600090555060010162000387565b5090565b7f4e487b7100000000000000000000000000000000000000000000000000000000600052604160045260246000fd5b600080fd5b600073ffffffffffffffffffffffffffffffffffffffff82169050919050565b60006200040682620003d9565b9050919050565b6200041881620003f9565b81146200042457600080fd5b50565b60008151905062000438816200040d565b92915050565b600060208284031215620004575762000456620003d4565b5b6000620004678482850162000427565b91505092915050565b600082825260208201905092915050565b7f496e76616c696420726577617264657220616464726573732100000000000000600082015250565b6000620004b960198362000470565b9150620004c68262000481565b602082019050919050565b60006020820190508181036000830152620004ec81620004aa565b9050919050565b60006200050082620003d9565b9050919050565b6200051281620004f3565b81146200051e57600080fd5b50565b600081519050620005328162000507565b92915050565b600060208284031215620005515762000550620003d4565b5b6000620005618482850162000521565b91505092915050565b7f596f75206d75737420626520746865206f776e6572206f66207468652072657760008201527f617264657220636f6e7472616374210000000000000000000000000000000000602082015250565b6000620005c8602f8362000470565b9150620005d5826200056a565b604082019050919050565b60006020820190508181036000830152620005fb81620005b9565b9050919050565b6200060d81620003f9565b82525050565b60006020820190506200062a600083018462000602565b92915050565b6000819050919050565b7f4e487b7100000000000000000000000000000000000000000000000000000000600052601160045260246000fd5b6000620006768262000630565b9150620006838362000630565b92508282019050808211156200069e576200069d6200063a565b5b92915050565b61343180620006b46000396000f3fe6080604052600436106101025760003560e01c8063c106552f11610095578063d4c8727111610064578063d4c87271146102f0578063d95c3e0c1461032d578063dcc3e06e14610358578063df15c37e14610383578063df2d5ec7146103ae57610109565b8063c106552f14610267578063c3403ddf14610292578063cbb51a3e1461029c578063ce11f2bb146102c757610109565b8063515371a3116100d1578063515371a314610199578063a3ec138d146101d6578063bbe4526914610213578063be4c31241461023c57610109565b80630488a2be1461010e5780630d209b06146101395780631ec6b60a146101645780634aba5f341461016e57610109565b3661010957005b600080fd5b34801561011a57600080fd5b506101236103ef565b6040516101309190611e4c565b60405180910390f35b34801561014557600080fd5b5061014e6103f5565b60405161015b9190611f25565b60405180910390f35b61016c6105f0565b005b34801561017a57600080fd5b50610183610854565b6040516101909190612157565b60405180910390f35b3480156101a557600080fd5b506101c060048036038101906101bb91906121b9565b610a41565b6040516101cd91906121f5565b60405180910390f35b3480156101e257600080fd5b506101fd60048036038101906101f8919061223c565b610afd565b60405161020a9190611e4c565b60405180910390f35b34801561021f57600080fd5b5061023a6004803603810190610235919061239e565b610b1b565b005b34801561024857600080fd5b50610251610eba565b60405161025e9190611e4c565b60405180910390f35b34801561027357600080fd5b5061027c610ec0565b6040516102899190611e4c565b60405180910390f35b61029a610ec6565b005b3480156102a857600080fd5b506102b1611163565b6040516102be919061248d565b60405180910390f35b3480156102d357600080fd5b506102ee60048036038101906102e99190612570565b611193565b005b3480156102fc57600080fd5b506103176004803603810190610312919061223c565b611522565b60405161032491906125d4565b60405180910390f35b34801561033957600080fd5b50610342611542565b60405161034f9190611e4c565b60405180910390f35b34801561036457600080fd5b5061036d611548565b60405161037a919061264e565b60405180910390f35b34801561038f57600080fd5b5061039861156e565b6040516103a59190611f25565b60405180910390f35b3480156103ba57600080fd5b506103d560048036038101906103d091906121b9565b6117db565b6040516103e69594939291906126b3565b60405180910390f35b60075481565b606060028081111561040a57610409612416565b5b610412611163565b600281111561042457610423612416565b5b14610464576040517f08c379a000000000000000000000000000000000000000000000000000000000815260040161045b90612760565b60405180910390fd5b606060008060005b60028054905081101561052057826002828154811061048e5761048d612780565b5b90600052602060002090600502016004015411156104d757600281815481106104ba576104b9612780565b5b906000526020600020906005020160040154925060019150610513565b82600282815481106104ec576104eb612780565b5b9060005260206000209060050201600401540361051257818061050e906127de565b9250505b5b808060010191505061046c565b508067ffffffffffffffff81111561053b5761053a612273565b5b6040519080825280602002602001820160405280156105695781602001602082028036833780820191505090505b5092506000805b6002805490508110156105e557836002828154811061059257610591612780565b5b906000526020600020906005020160040154036105d857808583815181106105bd576105bc612780565b5b60200260200101818152505081806105d4906127de565b9250505b8080600101915050610570565b508394505050505090565b6000600281111561060457610603612416565b5b61060c611163565b600281111561061e5761061d612416565b5b1461065e576040517f08c379a000000000000000000000000000000000000000000000000000000000815260040161065590612872565b60405180910390fd5b600960009054906101000a900473ffffffffffffffffffffffffffffffffffffffff1673ffffffffffffffffffffffffffffffffffffffff1663d45529f46040518163ffffffff1660e01b8152600401602060405180830381865afa1580156106cb573d6000803e3d6000fd5b505050506040513d601f19601f820116820180604052508101906106ef91906128a7565b73ffffffffffffffffffffffffffffffffffffffff163373ffffffffffffffffffffffffffffffffffffffff161461075c576040517f08c379a000000000000000000000000000000000000000000000000000000000815260040161075390612946565b60405180910390fd5b600554421461081257600754341015610789670de0b6b3a76400006007546107849190612995565b611951565b6107a7670de0b6b3a76400006007546107a291906129c6565b611951565b6040516020016107b8929190612b3d565b60405160208183030381529060405290610808576040517f08c379a00000000000000000000000000000000000000000000000000000000081526004016107ff9190612b82565b60405180910390fd5b50610811611a1f565b5b426005819055507f33c2d6285ba1442f7dd954820743aacec7468bc52e1671024b948f48f132264060055460405161084a9190611e4c565b60405180910390a1565b60606002805480602002602001604051908101604052809291908181526020016000905b82821015610a3857838290600052602060002090600502016040518060a0016040529081600082015481526020016001820160009054906101000a900473ffffffffffffffffffffffffffffffffffffffff1673ffffffffffffffffffffffffffffffffffffffff1673ffffffffffffffffffffffffffffffffffffffff16815260200160028201805461090b90612bd3565b80601f016020809104026020016040519081016040528092919081815260200182805461093790612bd3565b80156109845780601f1061095957610100808354040283529160200191610984565b820191906000526020600020905b81548152906001019060200180831161096757829003601f168201915b5050505050815260200160038201805461099d90612bd3565b80601f01602080910402602001604051908101604052809291908181526020018280546109c990612bd3565b8015610a165780601f106109eb57610100808354040283529160200191610a16565b820191906000526020600020905b8154815290600101906020018083116109f957829003601f168201915b5050505050815260200160048201548152505081526020019060010190610878565b50505050905090565b6000600280811115610a5657610a55612416565b5b610a5e611163565b6002811115610a7057610a6f612416565b5b14610ab0576040517f08c379a0000000000000000000000000000000000000000000000000000000008152600401610aa790612760565b60405180910390fd5b60028281548110610ac457610ac3612780565b5b906000526020600020906005020160010160009054906101000a900473ffffffffffffffffffffffffffffffffffffffff169050919050565b60016020528060005260406000206000915090508060010154905081565b60006002811115610b2f57610b2e612416565b5b610b37611163565b6002811115610b4957610b48612416565b5b14610b89576040517f08c379a0000000000000000000000000000000000000000000000000000000008152600401610b8090612872565b60405180910390fd5b600960009054906101000a900473ffffffffffffffffffffffffffffffffffffffff1673ffffffffffffffffffffffffffffffffffffffff1663d45529f46040518163ffffffff1660e01b8152600401602060405180830381865afa158015610bf6573d6000803e3d6000fd5b505050506040513d601f19601f82011682018060405250810190610c1a91906128a7565b73ffffffffffffffffffffffffffffffffffffffff163373ffffffffffffffffffffffffffffffffffffffff1603610c87576040517f08c379a0000000000000000000000000000000000000000000000000000000008152600401610c7e90612c76565b60405180910390fd5b6000803373ffffffffffffffffffffffffffffffffffffffff1673ffffffffffffffffffffffffffffffffffffffff16815260200190815260200160002060009054906101000a900460ff1615610d13576040517f08c379a0000000000000000000000000000000000000000000000000000000008152600401610d0a90612ce2565b60405180910390fd5b6000600280549050905060026040518060a001604052808381526020013373ffffffffffffffffffffffffffffffffffffffff168152602001858152602001848152602001600081525090806001815401808255809150506001900390600052602060002090600502016000909190919091506000820151816000015560208201518160010160006101000a81548173ffffffffffffffffffffffffffffffffffffffff021916908373ffffffffffffffffffffffffffffffffffffffff1602179055506040820151816002019081610dec9190612ea4565b506060820151816003019081610e029190612ea4565b5060808201518160040155505060016000803373ffffffffffffffffffffffffffffffffffffffff1673ffffffffffffffffffffffffffffffffffffffff16815260200190815260200160002060006101000a81548160ff0219169083151502179055503373ffffffffffffffffffffffffffffffffffffffff16817f1eae29c2b58d462ec01899beec8638862c6efafd4f3fc81015095a62fcdd5f7385604051610ead9190612b82565b60405180910390a3505050565b60065481565b60085481565b60016002811115610eda57610ed9612416565b5b610ee2611163565b6002811115610ef457610ef3612416565b5b14610f34576040517f08c379a0000000000000000000000000000000000000000000000000000000008152600401610f2b90612fc2565b60405180910390fd5b600960009054906101000a900473ffffffffffffffffffffffffffffffffffffffff1673ffffffffffffffffffffffffffffffffffffffff1663d45529f46040518163ffffffff1660e01b8152600401602060405180830381865afa158015610fa1573d6000803e3d6000fd5b505050506040513d601f19601f82011682018060405250810190610fc591906128a7565b73ffffffffffffffffffffffffffffffffffffffff163373ffffffffffffffffffffffffffffffffffffffff1614611032576040517f08c379a000000000000000000000000000000000000000000000000000000000815260040161102990612946565b60405180910390fd5b600060026005546006546110469190612fe2565b6110509190612995565b60055461105d9190613016565b90508042108061106e575060065442115b1561112057600854341015611097670de0b6b3a76400006008546110929190612995565b611951565b6110b5670de0b6b3a76400006008546110b091906129c6565b611951565b6040516020016110c69291906130bc565b60405160208183030381529060405290611116576040517f08c379a000000000000000000000000000000000000000000000000000000000815260040161110d9190612b82565b60405180910390fd5b5061111f611a1f565b5b426006819055507ffce20a510f6f83f7014a422dfa9541af4170f706faeed678bf815b2bad2c3b9d6006546040516111589190611e4c565b60405180910390a150565b60006005544210156111785760009050611190565b60065442101561118b5760019050611190565b600290505b90565b600160028111156111a7576111a6612416565b5b6111af611163565b60028111156111c1576111c0612416565b5b14611201576040517f08c379a00000000000000000000000000000000000000000000000000000000081526004016111f890612fc2565b60405180910390fd5b6000815111611245576040517f08c379a000000000000000000000000000000000000000000000000000000000815260040161123c90613173565b60405180910390fd5b60005b81518110156114bf57600082828151811061126657611265612780565b5b6020026020010151905060028054905081106112b7576040517f08c379a00000000000000000000000000000000000000000000000000000000081526004016112ae906131df565b60405180910390fd5b600160003373ffffffffffffffffffffffffffffffffffffffff1673ffffffffffffffffffffffffffffffffffffffff168152602001908152602001600020600001600082815260200190815260200160002060009054906101000a900460ff1615611358576040517f08c379a000000000000000000000000000000000000000000000000000000000815260040161134f90613271565b60405180910390fd5b6002818154811061136c5761136b612780565b5b906000526020600020906005020160010160009054906101000a900473ffffffffffffffffffffffffffffffffffffffff1673ffffffffffffffffffffffffffffffffffffffff163373ffffffffffffffffffffffffffffffffffffffff160361140b576040517f08c379a0000000000000000000000000000000000000000000000000000000008152600401611402906132dd565b60405180910390fd5b6002818154811061141f5761141e612780565b5b90600052602060002090600502016004016000815480929190611441906127de565b919050555060018060003373ffffffffffffffffffffffffffffffffffffffff1673ffffffffffffffffffffffffffffffffffffffff168152602001908152602001600020600001600083815260200190815260200160002060006101000a81548160ff021916908315150217905550508080600101915050611248565b50806000815181106114d4576114d3612780565b5b60200260200101513373ffffffffffffffffffffffffffffffffffffffff167f91245104b789a7305f92f9021565196417b6da8b936d6acdd30bccc0e7ee15d560405160405180910390a350565b60006020528060005260406000206000915054906101000a900460ff1681565b60055481565b600960009054906101000a900473ffffffffffffffffffffffffffffffffffffffff1681565b606060028081111561158357611582612416565b5b61158b611163565b600281111561159d5761159c612416565b5b146115dd576040517f08c379a00000000000000000000000000000000000000000000000000000000081526004016115d490612760565b60405180910390fd5b6000600380549050036117855760008060005b6002805490508110156116a457826002828154811061161257611611612780565b5b906000526020600020906005020160040154111561165b576002818154811061163e5761163d612780565b5b906000526020600020906005020160040154925060019150611697565b82600282815481106116705761166f612780565b5b90600052602060002090600502016004015403611696578180611692906127de565b9250505b5b80806001019150506115f0565b508067ffffffffffffffff8111156116bf576116be612273565b5b6040519080825280602002602001820160405280156116ed5781602001602082028036833780820191505090505b5060039080519060200190611703929190611dc9565b506000805b60028054905081101561178057836002828154811061172a57611729612780565b5b9060005260206000209060050201600401540361177357806003838154811061175657611755612780565b5b9060005260206000200181905550818061176f906127de565b9250505b8080600101915050611708565b505050505b60038054806020026020016040519081016040528092919081815260200182805480156117d157602002820191906000526020600020905b8154815260200190600101908083116117bd575b5050505050905090565b600281815481106117eb57600080fd5b90600052602060002090600502016000915090508060000154908060010160009054906101000a900473ffffffffffffffffffffffffffffffffffffffff169080600201805461183a90612bd3565b80601f016020809104026020016040519081016040528092919081815260200182805461186690612bd3565b80156118b35780601f10611888576101008083540402835291602001916118b3565b820191906000526020600020905b81548152906001019060200180831161189657829003601f168201915b5050505050908060030180546118c890612bd3565b80601f01602080910402602001604051908101604052809291908181526020018280546118f490612bd3565b80156119415780601f1061191657610100808354040283529160200191611941565b820191906000526020600020905b81548152906001019060200180831161192457829003601f168201915b5050505050908060040154905085565b60606000600161196084611c76565b01905060008167ffffffffffffffff81111561197f5761197e612273565b5b6040519080825280601f01601f1916602001820160405280156119b15781602001600182028036833780820191505090505b509050600082602001820190505b600115611a14578080600190039150507f3031323334353637383961626364656600000000000000000000000000000000600a86061a8153600a8581611a0857611a07612966565b5b049450600085036119bf575b819350505050919050565b600960009054906101000a900473ffffffffffffffffffffffffffffffffffffffff1673ffffffffffffffffffffffffffffffffffffffff1663d45529f46040518163ffffffff1660e01b8152600401602060405180830381865afa158015611a8c573d6000803e3d6000fd5b505050506040513d601f19601f82011682018060405250810190611ab091906128a7565b73ffffffffffffffffffffffffffffffffffffffff163373ffffffffffffffffffffffffffffffffffffffff1614611b1d576040517f08c379a0000000000000000000000000000000000000000000000000000000008152600401611b1490612946565b60405180910390fd5b600073ffffffffffffffffffffffffffffffffffffffff16600960009054906101000a900473ffffffffffffffffffffffffffffffffffffffff1673ffffffffffffffffffffffffffffffffffffffff1603611bae576040517f08c379a0000000000000000000000000000000000000000000000000000000008152600401611ba59061336f565b60405180910390fd5b60003411611bf1576040517f08c379a0000000000000000000000000000000000000000000000000000000008152600401611be8906133db565b60405180910390fd5b600960009054906101000a900473ffffffffffffffffffffffffffffffffffffffff1673ffffffffffffffffffffffffffffffffffffffff1663f1575f3f346040518263ffffffff1660e01b81526004016000604051808303818588803b158015611c5b57600080fd5b505af1158015611c6f573d6000803e3d6000fd5b5050505050565b600080600090507a184f03e93ff9f4daa797ed6e38ed64bf6a1f0100000000000000008310611cd4577a184f03e93ff9f4daa797ed6e38ed64bf6a1f0100000000000000008381611cca57611cc9612966565b5b0492506040810190505b6d04ee2d6d415b85acef81000000008310611d11576d04ee2d6d415b85acef81000000008381611d0757611d06612966565b5b0492506020810190505b662386f26fc100008310611d4057662386f26fc100008381611d3657611d35612966565b5b0492506010810190505b6305f5e1008310611d69576305f5e1008381611d5f57611d5e612966565b5b0492506008810190505b6127108310611d8e576127108381611d8457611d83612966565b5b0492506004810190505b60648310611db15760648381611da757611da6612966565b5b0492506002810190505b600a8310611dc0576001810190505b80915050919050565b828054828255906000526020600020908101928215611e05579160200282015b82811115611e04578251825591602001919060010190611de9565b5b509050611e129190611e16565b5090565b5b80821115611e2f576000816000905550600101611e17565b5090565b6000819050919050565b611e4681611e33565b82525050565b6000602082019050611e616000830184611e3d565b92915050565b600081519050919050565b600082825260208201905092915050565b6000819050602082019050919050565b611e9c81611e33565b82525050565b6000611eae8383611e93565b60208301905092915050565b6000602082019050919050565b6000611ed282611e67565b611edc8185611e72565b9350611ee783611e83565b8060005b83811015611f18578151611eff8882611ea2565b9750611f0a83611eba565b925050600181019050611eeb565b5085935050505092915050565b60006020820190508181036000830152611f3f8184611ec7565b905092915050565b600081519050919050565b600082825260208201905092915050565b6000819050602082019050919050565b600073ffffffffffffffffffffffffffffffffffffffff82169050919050565b6000611f9e82611f73565b9050919050565b611fae81611f93565b82525050565b600081519050919050565b600082825260208201905092915050565b60005b83811015611fee578082015181840152602081019050611fd3565b60008484015250505050565b6000601f19601f8301169050919050565b600061201682611fb4565b6120208185611fbf565b9350612030818560208601611fd0565b61203981611ffa565b840191505092915050565b600060a08301600083015161205c6000860182611e93565b50602083015161206f6020860182611fa5565b5060408301518482036040860152612087828261200b565b915050606083015184820360608601526120a1828261200b565b91505060808301516120b66080860182611e93565b508091505092915050565b60006120cd8383612044565b905092915050565b6000602082019050919050565b60006120ed82611f47565b6120f78185611f52565b93508360208202850161210985611f63565b8060005b85811015612145578484038952815161212685826120c1565b9450612131836120d5565b925060208a0199505060018101905061210d565b50829750879550505050505092915050565b6000602082019050818103600083015261217181846120e2565b905092915050565b6000604051905090565b600080fd5b600080fd5b61219681611e33565b81146121a157600080fd5b50565b6000813590506121b38161218d565b92915050565b6000602082840312156121cf576121ce612183565b5b60006121dd848285016121a4565b91505092915050565b6121ef81611f93565b82525050565b600060208201905061220a60008301846121e6565b92915050565b61221981611f93565b811461222457600080fd5b50565b60008135905061223681612210565b92915050565b60006020828403121561225257612251612183565b5b600061226084828501612227565b91505092915050565b600080fd5b600080fd5b7f4e487b7100000000000000000000000000000000000000000000000000000000600052604160045260246000fd5b6122ab82611ffa565b810181811067ffffffffffffffff821117156122ca576122c9612273565b5b80604052505050565b60006122dd612179565b90506122e982826122a2565b919050565b600067ffffffffffffffff82111561230957612308612273565b5b61231282611ffa565b9050602081019050919050565b82818337600083830152505050565b600061234161233c846122ee565b6122d3565b90508281526020810184848401111561235d5761235c61226e565b5b61236884828561231f565b509392505050565b600082601f83011261238557612384612269565b5b813561239584826020860161232e565b91505092915050565b600080604083850312156123b5576123b4612183565b5b600083013567ffffffffffffffff8111156123d3576123d2612188565b5b6123df85828601612370565b925050602083013567ffffffffffffffff811115612400576123ff612188565b5b61240c85828601612370565b9150509250929050565b7f4e487b7100000000000000000000000000000000000000000000000000000000600052602160045260246000fd5b6003811061245657612455612416565b5b50565b600081905061246782612445565b919050565b600061247782612459565b9050919050565b6124878161246c565b82525050565b60006020820190506124a2600083018461247e565b92915050565b600067ffffffffffffffff8211156124c3576124c2612273565b5b602082029050602081019050919050565b600080fd5b60006124ec6124e7846124a8565b6122d3565b9050808382526020820190506020840283018581111561250f5761250e6124d4565b5b835b81811015612538578061252488826121a4565b845260208401935050602081019050612511565b5050509392505050565b600082601f83011261255757612556612269565b5b81356125678482602086016124d9565b91505092915050565b60006020828403121561258657612585612183565b5b600082013567ffffffffffffffff8111156125a4576125a3612188565b5b6125b084828501612542565b91505092915050565b60008115159050919050565b6125ce816125b9565b82525050565b60006020820190506125e960008301846125c5565b92915050565b6000819050919050565b600061261461260f61260a84611f73565b6125ef565b611f73565b9050919050565b6000612626826125f9565b9050919050565b60006126388261261b565b9050919050565b6126488161262d565b82525050565b6000602082019050612663600083018461263f565b92915050565b600082825260208201905092915050565b600061268582611fb4565b61268f8185612669565b935061269f818560208601611fd0565b6126a881611ffa565b840191505092915050565b600060a0820190506126c86000830188611e3d565b6126d560208301876121e6565b81810360408301526126e7818661267a565b905081810360608301526126fb818561267a565b905061270a6080830184611e3d565b9695505050505050565b7f566f74696e6720686173206e6f7420656e646564210000000000000000000000600082015250565b600061274a601583612669565b915061275582612714565b602082019050919050565b600060208201905081810360008301526127798161273d565b9050919050565b7f4e487b7100000000000000000000000000000000000000000000000000000000600052603260045260246000fd5b7f4e487b7100000000000000000000000000000000000000000000000000000000600052601160045260246000fd5b60006127e982611e33565b91507fffffffffffffffffffffffffffffffffffffffffffffffffffffffffffffffff820361281b5761281a6127af565b5b600182019050919050565b7f566f74696e672068617320616c72656164792073746172746564210000000000600082015250565b600061285c601b83612669565b915061286782612826565b602082019050919050565b6000602082019050818103600083015261288b8161284f565b9050919050565b6000815190506128a181612210565b92915050565b6000602082840312156128bd576128bc612183565b5b60006128cb84828501612892565b91505092915050565b7f4f6e6c792061646d696e2063616e20706572666f726d2074686973206163746960008201527f6f6e210000000000000000000000000000000000000000000000000000000000602082015250565b6000612930602383612669565b915061293b826128d4565b604082019050919050565b6000602082019050818103600083015261295f81612923565b9050919050565b7f4e487b7100000000000000000000000000000000000000000000000000000000600052601260045260246000fd5b60006129a082611e33565b91506129ab83611e33565b9250826129bb576129ba612966565b5b828204905092915050565b60006129d182611e33565b91506129dc83611e33565b9250826129ec576129eb612966565b5b828206905092915050565b600081905092915050565b7f496e73756666696369656e74207061796d656e7420746f20737461727420766f60008201527f74696e67206561726c792120596f75206e656564206174206c65617374200000602082015250565b6000612a5e603e836129f7565b9150612a6982612a02565b603e82019050919050565b6000612a7f82611fb4565b612a8981856129f7565b9350612a99818560208601611fd0565b80840191505092915050565b7f2e00000000000000000000000000000000000000000000000000000000000000600082015250565b6000612adb6001836129f7565b9150612ae682612aa5565b600182019050919050565b7f206574686572732e000000000000000000000000000000000000000000000000600082015250565b6000612b276008836129f7565b9150612b3282612af1565b600882019050919050565b6000612b4882612a51565b9150612b548285612a74565b9150612b5f82612ace565b9150612b6b8284612a74565b9150612b7682612b1a565b91508190509392505050565b60006020820190508181036000830152612b9c818461267a565b905092915050565b7f4e487b7100000000000000000000000000000000000000000000000000000000600052602260045260246000fd5b60006002820490506001821680612beb57607f821691505b602082108103612bfe57612bfd612ba4565b5b50919050565b7f4f6e6c7920726567756c61722075736572732063616e20706572666f726d207460008201527f68697320616374696f6e21000000000000000000000000000000000000000000602082015250565b6000612c60602b83612669565b9150612c6b82612c04565b604082019050919050565b60006020820190508181036000830152612c8f81612c53565b9050919050565b7f596f75206861766520616c72656164792063616e646964617465642100000000600082015250565b6000612ccc601c83612669565b9150612cd782612c96565b602082019050919050565b60006020820190508181036000830152612cfb81612cbf565b9050919050565b60008190508160005260206000209050919050565b60006020601f8301049050919050565b600082821b905092915050565b600060088302612d647fffffffffffffffffffffffffffffffffffffffffffffffffffffffffffffffff82612d27565b612d6e8683612d27565b95508019841693508086168417925050509392505050565b6000612da1612d9c612d9784611e33565b6125ef565b611e33565b9050919050565b6000819050919050565b612dbb83612d86565b612dcf612dc782612da8565b848454612d34565b825550505050565b600090565b612de4612dd7565b612def818484612db2565b505050565b5b81811015612e1357612e08600082612ddc565b600181019050612df5565b5050565b601f821115612e5857612e2981612d02565b612e3284612d17565b81016020851015612e41578190505b612e55612e4d85612d17565b830182612df4565b50505b505050565b600082821c905092915050565b6000612e7b60001984600802612e5d565b1980831691505092915050565b6000612e948383612e6a565b9150826002028217905092915050565b612ead82611fb4565b67ffffffffffffffff811115612ec657612ec5612273565b5b612ed08254612bd3565b612edb828285612e17565b600060209050601f831160018114612f0e5760008415612efc578287015190505b612f068582612e88565b865550612f6e565b601f198416612f1c86612d02565b60005b82811015612f4457848901518255600182019150602085019450602081019050612f1f565b86831015612f615784890151612f5d601f891682612e6a565b8355505b6001600288020188555050505b505050505050565b7f566f74696e6720686173206e6f74207374617274656421000000000000000000600082015250565b6000612fac601783612669565b9150612fb782612f76565b602082019050919050565b60006020820190508181036000830152612fdb81612f9f565b9050919050565b6000612fed82611e33565b9150612ff883611e33565b92508282039050818111156130105761300f6127af565b5b92915050565b600061302182611e33565b915061302c83611e33565b9250828201905080821115613044576130436127af565b5b92915050565b7f496e73756666696369656e74207061796d656e7420746f20656e6420766f746960008201527f6e67206561726c792120596f75206e656564206174206c656173742000000000602082015250565b60006130a6603c836129f7565b91506130b18261304a565b603c82019050919050565b60006130c782613099565b91506130d38285612a74565b91506130de82612ace565b91506130ea8284612a74565b91506130f582612b1a565b91508190509392505050565b7f4e6f2063616e646964617465732073656c656374656420666f7220766f74696e60008201527f6721000000000000000000000000000000000000000000000000000000000000602082015250565b600061315d602283612669565b915061316882613101565b604082019050919050565b6000602082019050818103600083015261318c81613150565b9050919050565b7f496e76616c69642063616e646964617465204944210000000000000000000000600082015250565b60006131c9601583612669565b91506131d482613193565b602082019050919050565b600060208201905081810360008301526131f8816131bc565b9050919050565b7f596f75206861766520616c726561647920766f74656420666f7220746869732060008201527f63616e6469646174652100000000000000000000000000000000000000000000602082015250565b600061325b602a83612669565b9150613266826131ff565b604082019050919050565b6000602082019050818103600083015261328a8161324e565b9050919050565b7f596f752063616e6e6f7420766f746520666f7220796f757273656c6621000000600082015250565b60006132c7601d83612669565b91506132d282613291565b602082019050919050565b600060208201905081810360008301526132f6816132ba565b9050919050565b7f526577617264657220636f6e747261637420686173206e6f74206265656e206960008201527f6e697469616c697a656421000000000000000000000000000000000000000000602082015250565b6000613359602b83612669565b9150613364826132fd565b604082019050919050565b600060208201905081810360008301526133888161334c565b9050919050565b7f416d6f756e74206d7573742062652067726561746572207468616e2030210000600082015250565b60006133c5601e83612669565b91506133d08261338f565b602082019050919050565b600060208201905081810360008301526133f4816133b8565b905091905056fea2646970667358221220396b120eb523a292f2397552283d7643dc1f6e0a56f2951663fab6dfd6ded33e64736f6c63430008180033",
  "linkReferences": {},
  "deployedLinkReferences": {}
}