{
  "_format": "hh-sol-artifact-1",
  "contractName": "Voting",
  "sourceName": "contracts/Voting.sol",
  "abi": [
    {
      "inputs": [
        {
          "internalType": "address payable",
          "name": "_rewarderAddress",
          "type": "address"
        }
      ],
      "stateMutability": "nonpayable",
      "type": "constructor"
    },
    {
      "anonymous": false,
      "inputs": [
        {
          "indexed": false,
          "internalType": "uint256",
          "name": "endVotingTimestamp",
          "type": "uint256"
        }
      ],
      "name": "EndVote",
      "type": "event"
    },
    {
      "anonymous": false,
      "inputs": [
        {
          "indexed": false,
          "internalType": "uint256",
          "name": "startVotingTimestamp",
          "type": "uint256"
        },
        {
          "indexed": false,
          "internalType": "uint256",
          "name": "stopVotingTimestamp",
          "type": "uint256"
        }
      ],
      "name": "RestartVoting",
      "type": "event"
    },
    {
      "anonymous": false,
      "inputs": [
        {
          "indexed": true,
          "internalType": "uint256",
          "name": "candidateId",
          "type": "uint256"
        },
        {
          "indexed": true,
          "internalType": "address",
          "name": "candidateAddress",
          "type": "address"
        },
        {
          "indexed": false,
          "internalType": "string",
          "name": "name",
          "type": "string"
        }
      ],
      "name": "SomeoneCandidated",
      "type": "event"
    },
    {
      "anonymous": false,
      "inputs": [
        {
          "indexed": true,
          "internalType": "address",
          "name": "voter",
          "type": "address"
        },
        {
          "indexed": true,
          "internalType": "uint256",
          "name": "candidateId",
          "type": "uint256"
        }
      ],
      "name": "SomeoneVoted",
      "type": "event"
    },
    {
      "anonymous": false,
      "inputs": [
        {
          "indexed": false,
          "internalType": "uint256",
          "name": "startVotingTimestamp",
          "type": "uint256"
        }
      ],
      "name": "StartVote",
      "type": "event"
    },
    {
      "inputs": [],
      "name": "adminEndVoteCost",
      "outputs": [
        {
          "internalType": "uint256",
          "name": "",
          "type": "uint256"
        }
      ],
      "stateMutability": "view",
      "type": "function"
    },
    {
      "inputs": [],
      "name": "adminStartVoteCost",
      "outputs": [
        {
          "internalType": "uint256",
          "name": "",
          "type": "uint256"
        }
      ],
      "stateMutability": "view",
      "type": "function"
    },
    {
      "inputs": [
        {
          "internalType": "string",
          "name": "_name",
          "type": "string"
        },
        {
          "internalType": "string",
          "name": "_description",
          "type": "string"
        }
      ],
      "name": "candidate",
      "outputs": [],
      "stateMutability": "nonpayable",
      "type": "function"
    },
    {
      "inputs": [
        {
          "internalType": "uint256",
          "name": "",
          "type": "uint256"
        }
      ],
      "name": "candidatesList",
      "outputs": [
        {
          "internalType": "uint256",
          "name": "candidateId",
          "type": "uint256"
        },
        {
          "internalType": "address",
          "name": "candidateAddress",
          "type": "address"
        },
        {
          "internalType": "string",
          "name": "name",
          "type": "string"
        },
        {
          "internalType": "string",
          "name": "description",
          "type": "string"
        },
        {
          "internalType": "uint256",
          "name": "numVotes",
          "type": "uint256"
        }
      ],
      "stateMutability": "view",
      "type": "function"
    },
    {
      "inputs": [],
      "name": "checkVotingCurrentState",
      "outputs": [
        {
          "internalType": "enum Voting.VotingState",
          "name": "",
          "type": "uint8"
        }
      ],
      "stateMutability": "view",
      "type": "function"
    },
    {
      "inputs": [],
      "name": "endVoting",
      "outputs": [],
      "stateMutability": "payable",
      "type": "function"
    },
    {
      "inputs": [],
      "name": "getCandidatesList",
      "outputs": [
        {
          "components": [
            {
              "internalType": "uint256",
              "name": "candidateId",
              "type": "uint256"
            },
            {
              "internalType": "address",
              "name": "candidateAddress",
              "type": "address"
            },
            {
              "internalType": "string",
              "name": "name",
              "type": "string"
            },
            {
              "internalType": "string",
              "name": "description",
              "type": "string"
            },
            {
              "internalType": "uint256",
              "name": "numVotes",
              "type": "uint256"
            }
          ],
          "internalType": "struct Voting.Candidate[]",
          "name": "",
          "type": "tuple[]"
        }
      ],
      "stateMutability": "view",
      "type": "function"
    },
    {
      "inputs": [
        {
          "internalType": "uint256",
          "name": "_winnerId",
          "type": "uint256"
        }
      ],
      "name": "getWinnerAddress",
      "outputs": [
        {
          "internalType": "address",
          "name": "",
          "type": "address"
        }
      ],
      "stateMutability": "view",
      "type": "function"
    },
    {
      "inputs": [],
      "name": "getWinners",
      "outputs": [
        {
          "internalType": "uint256[]",
          "name": "",
          "type": "uint256[]"
        }
      ],
      "stateMutability": "view",
      "type": "function"
    },
    {
      "inputs": [
        {
          "internalType": "address",
          "name": "",
          "type": "address"
        }
      ],
      "name": "hasCandidated",
      "outputs": [
        {
          "internalType": "bool",
          "name": "",
          "type": "bool"
        }
      ],
      "stateMutability": "view",
      "type": "function"
    },
    {
      "inputs": [
        {
          "internalType": "address",
          "name": "_voter",
          "type": "address"
        },
        {
          "internalType": "uint256",
          "name": "_candidateId",
          "type": "uint256"
        }
      ],
      "name": "hasVotedFor",
      "outputs": [
        {
          "internalType": "bool",
          "name": "",
          "type": "bool"
        }
      ],
      "stateMutability": "view",
      "type": "function"
    },
    {
      "inputs": [],
      "name": "restartVotingSession",
      "outputs": [],
      "stateMutability": "payable",
      "type": "function"
    },
    {
      "inputs": [],
      "name": "rewarder",
      "outputs": [
        {
          "internalType": "contract Rewarder",
          "name": "",
          "type": "address"
        }
      ],
      "stateMutability": "view",
      "type": "function"
    },
    {
      "inputs": [],
      "name": "startVoting",
      "outputs": [],
      "stateMutability": "payable",
      "type": "function"
    },
    {
      "inputs": [],
      "name": "startVotingTimestamp",
      "outputs": [
        {
          "internalType": "uint256",
          "name": "",
          "type": "uint256"
        }
      ],
      "stateMutability": "view",
      "type": "function"
    },
    {
      "inputs": [],
      "name": "stopVotingTimestamp",
      "outputs": [
        {
          "internalType": "uint256",
          "name": "",
          "type": "uint256"
        }
      ],
      "stateMutability": "view",
      "type": "function"
    },
    {
      "inputs": [],
      "name": "updateWinners",
      "outputs": [],
      "stateMutability": "nonpayable",
      "type": "function"
    },
    {
      "inputs": [
        {
          "internalType": "uint256[]",
          "name": "_candidateIds",
          "type": "uint256[]"
        }
      ],
      "name": "vote",
      "outputs": [],
      "stateMutability": "nonpayable",
      "type": "function"
    },
    {
      "inputs": [
        {
          "internalType": "address",
          "name": "",
          "type": "address"
        }
      ],
      "name": "voters",
      "outputs": [
        {
          "internalType": "uint256",
          "name": "numPersonsVoted",
          "type": "uint256"
        }
      ],
      "stateMutability": "view",
      "type": "function"
    },
    {
      "stateMutability": "payable",
      "type": "receive"
    }
  ],
  "bytecode": "0x6080604052600067ffffffffffffffff8111156200002257620000216200049a565b5b604051908082528060200260200182016040528015620000515781602001602082028036833780820191505090505b5060039080519060200190620000699291906200039a565b50600067ffffffffffffffff8111156200008857620000876200049a565b5b604051908082528060200260200182016040528015620000b75781602001602082028036833780820191505090505b5060049080519060200190620000cf929190620003ec565b50671d24b2dfac520000600755671d24b2dfac520000600855348015620000f557600080fd5b50604051620046b4380380620046b483398181016040528101906200011b919062000533565b600073ffffffffffffffffffffffffffffffffffffffff168173ffffffffffffffffffffffffffffffffffffffff16036200018d576040517f08c379a00000000000000000000000000000000000000000000000000000000081526004016200018490620005c6565b60405180910390fd5b80600960006101000a81548173ffffffffffffffffffffffffffffffffffffffff021916908373ffffffffffffffffffffffffffffffffffffffff1602179055503373ffffffffffffffffffffffffffffffffffffffff16600960009054906101000a900473ffffffffffffffffffffffffffffffffffffffff1673ffffffffffffffffffffffffffffffffffffffff1663d45529f46040518163ffffffff1660e01b8152600401602060405180830381865afa15801562000253573d6000803e3d6000fd5b505050506040513d601f19601f820116820180604052508101906200027991906200062d565b73ffffffffffffffffffffffffffffffffffffffff1614620002d2576040517f08c379a0000000000000000000000000000000000000000000000000000000008152600401620002c990620006d5565b60405180910390fd5b600960009054906101000a900473ffffffffffffffffffffffffffffffffffffffff1673ffffffffffffffffffffffffffffffffffffffff166348bd2c4b306040518263ffffffff1660e01b81526004016200032f919062000708565b600060405180830381600087803b1580156200034a57600080fd5b505af11580156200035f573d6000803e3d6000fd5b505050506202a300426200037491906200075e565b600581905550620151806005546200038d91906200075e565b6006819055505062000799565b828054828255906000526020600020908101928215620003d9579160200282015b82811115620003d8578251825591602001919060010190620003bb565b5b509050620003e891906200047b565b5090565b82805482825590600052602060002090810192821562000468579160200282015b82811115620004675782518260006101000a81548173ffffffffffffffffffffffffffffffffffffffff021916908373ffffffffffffffffffffffffffffffffffffffff160217905550916020019190600101906200040d565b5b5090506200047791906200047b565b5090565b5b80821115620004965760008160009055506001016200047c565b5090565b7f4e487b7100000000000000000000000000000000000000000000000000000000600052604160045260246000fd5b600080fd5b600073ffffffffffffffffffffffffffffffffffffffff82169050919050565b6000620004fb82620004ce565b9050919050565b6200050d81620004ee565b81146200051957600080fd5b50565b6000815190506200052d8162000502565b92915050565b6000602082840312156200054c576200054b620004c9565b5b60006200055c848285016200051c565b91505092915050565b600082825260208201905092915050565b7f496e76616c696420726577617264657220616464726573732100000000000000600082015250565b6000620005ae60198362000565565b9150620005bb8262000576565b602082019050919050565b60006020820190508181036000830152620005e1816200059f565b9050919050565b6000620005f582620004ce565b9050919050565b6200060781620005e8565b81146200061357600080fd5b50565b6000815190506200062781620005fc565b92915050565b600060208284031215620006465762000645620004c9565b5b6000620006568482850162000616565b91505092915050565b7f596f75206d75737420626520746865206f776e6572206f66207468652072657760008201527f617264657220636f6e7472616374210000000000000000000000000000000000602082015250565b6000620006bd602f8362000565565b9150620006ca826200065f565b604082019050919050565b60006020820190508181036000830152620006f081620006ae565b9050919050565b6200070281620004ee565b82525050565b60006020820190506200071f6000830184620006f7565b92915050565b6000819050919050565b7f4e487b7100000000000000000000000000000000000000000000000000000000600052601160045260246000fd5b60006200076b8262000725565b9150620007788362000725565b92508282019050808211156200079357620007926200072f565b5b92915050565b613f0b80620007a96000396000f3fe6080604052600436106101185760003560e01c8063c3403ddf116100a0578063d95c3e0c11610064578063d95c3e0c1461036c578063dcc3e06e14610397578063df15c37e146103c2578063df2d5ec7146103ed578063e3133cc61461042e5761011f565b8063c3403ddf146102ba578063c503c0a7146102c4578063cbb51a3e146102db578063ce11f2bb14610306578063d4c872711461032f5761011f565b8063515371a3116100e7578063515371a3146101c1578063a3ec138d146101fe578063bbe452691461023b578063be4c312414610264578063c106552f1461028f5761011f565b80630488a2be1461012457806306dcde061461014f5780631ec6b60a1461018c5780634aba5f34146101965761011f565b3661011f57005b600080fd5b34801561013057600080fd5b50610139610438565b60405161014691906126e1565b60405180910390f35b34801561015b57600080fd5b506101766004803603810190610171919061279a565b61043e565b60405161018391906127f5565b60405180910390f35b6101946104a9565b005b3480156101a257600080fd5b506101ab610755565b6040516101b891906129fd565b60405180910390f35b3480156101cd57600080fd5b506101e860048036038101906101e39190612a1f565b610942565b6040516101f59190612a5b565b60405180910390f35b34801561020a57600080fd5b5061022560048036038101906102209190612a76565b6109fe565b60405161023291906126e1565b60405180910390f35b34801561024757600080fd5b50610262600480360381019061025d9190612bd8565b610a1c565b005b34801561027057600080fd5b50610279610dbb565b60405161028691906126e1565b60405180910390f35b34801561029b57600080fd5b506102a4610dc1565b6040516102b191906126e1565b60405180910390f35b6102c2610dc7565b005b3480156102d057600080fd5b506102d9611064565b005b3480156102e757600080fd5b506102f061136b565b6040516102fd9190612cc7565b60405180910390f35b34801561031257600080fd5b5061032d60048036038101906103289190612daa565b61139b565b005b34801561033b57600080fd5b5061035660048036038101906103519190612a76565b6117e6565b60405161036391906127f5565b60405180910390f35b34801561037857600080fd5b50610381611806565b60405161038e91906126e1565b60405180910390f35b3480156103a357600080fd5b506103ac61180c565b6040516103b99190612e52565b60405180910390f35b3480156103ce57600080fd5b506103d7611832565b6040516103e49190612f1c565b60405180910390f35b3480156103f957600080fd5b50610414600480360381019061040f9190612a1f565b61193f565b604051610425959493929190612f88565b60405180910390f35b610436611ab5565b005b60075481565b6000600160008473ffffffffffffffffffffffffffffffffffffffff1673ffffffffffffffffffffffffffffffffffffffff168152602001908152602001600020600001600083815260200190815260200160002060009054906101000a900460ff16905092915050565b600060028111156104bd576104bc612c50565b5b6104c561136b565b60028111156104d7576104d6612c50565b5b14610517576040517f08c379a000000000000000000000000000000000000000000000000000000000815260040161050e9061305b565b60405180910390fd5b600960009054906101000a900473ffffffffffffffffffffffffffffffffffffffff1673ffffffffffffffffffffffffffffffffffffffff1663d45529f46040518163ffffffff1660e01b8152600401602060405180830381865afa158015610584573d6000803e3d6000fd5b505050506040513d601f19601f820116820180604052508101906105a89190613090565b73ffffffffffffffffffffffffffffffffffffffff163373ffffffffffffffffffffffffffffffffffffffff1614610615576040517f08c379a000000000000000000000000000000000000000000000000000000000815260040161060c9061312f565b60405180910390fd5b60016002805490501161065d576040517f08c379a0000000000000000000000000000000000000000000000000000000008152600401610654906131c1565b60405180910390fd5b60055442146107135760075434101561068a670de0b6b3a7640000600754610685919061323f565b6120d2565b6106a8670de0b6b3a76400006007546106a39190613270565b6120d2565b6040516020016106b99291906133e7565b60405160208183030381529060405290610709576040517f08c379a0000000000000000000000000000000000000000000000000000000008152600401610700919061342c565b60405180910390fd5b506107126121a0565b5b426005819055507f33c2d6285ba1442f7dd954820743aacec7468bc52e1671024b948f48f132264060055460405161074b91906126e1565b60405180910390a1565b60606002805480602002602001604051908101604052809291908181526020016000905b8282101561093957838290600052602060002090600502016040518060a0016040529081600082015481526020016001820160009054906101000a900473ffffffffffffffffffffffffffffffffffffffff1673ffffffffffffffffffffffffffffffffffffffff1673ffffffffffffffffffffffffffffffffffffffff16815260200160028201805461080c9061347d565b80601f01602080910402602001604051908101604052809291908181526020018280546108389061347d565b80156108855780601f1061085a57610100808354040283529160200191610885565b820191906000526020600020905b81548152906001019060200180831161086857829003601f168201915b5050505050815260200160038201805461089e9061347d565b80601f01602080910402602001604051908101604052809291908181526020018280546108ca9061347d565b80156109175780601f106108ec57610100808354040283529160200191610917565b820191906000526020600020905b8154815290600101906020018083116108fa57829003601f168201915b5050505050815260200160048201548152505081526020019060010190610779565b50505050905090565b600060028081111561095757610956612c50565b5b61095f61136b565b600281111561097157610970612c50565b5b146109b1576040517f08c379a00000000000000000000000000000000000000000000000000000000081526004016109a8906134fa565b60405180910390fd5b600282815481106109c5576109c461351a565b5b906000526020600020906005020160010160009054906101000a900473ffffffffffffffffffffffffffffffffffffffff169050919050565b60016020528060005260406000206000915090508060010154905081565b60006002811115610a3057610a2f612c50565b5b610a3861136b565b6002811115610a4a57610a49612c50565b5b14610a8a576040517f08c379a0000000000000000000000000000000000000000000000000000000008152600401610a819061305b565b60405180910390fd5b600960009054906101000a900473ffffffffffffffffffffffffffffffffffffffff1673ffffffffffffffffffffffffffffffffffffffff1663d45529f46040518163ffffffff1660e01b8152600401602060405180830381865afa158015610af7573d6000803e3d6000fd5b505050506040513d601f19601f82011682018060405250810190610b1b9190613090565b73ffffffffffffffffffffffffffffffffffffffff163373ffffffffffffffffffffffffffffffffffffffff1603610b88576040517f08c379a0000000000000000000000000000000000000000000000000000000008152600401610b7f906135bb565b60405180910390fd5b6000803373ffffffffffffffffffffffffffffffffffffffff1673ffffffffffffffffffffffffffffffffffffffff16815260200190815260200160002060009054906101000a900460ff1615610c14576040517f08c379a0000000000000000000000000000000000000000000000000000000008152600401610c0b90613627565b60405180910390fd5b6000600280549050905060026040518060a001604052808381526020013373ffffffffffffffffffffffffffffffffffffffff168152602001858152602001848152602001600081525090806001815401808255809150506001900390600052602060002090600502016000909190919091506000820151816000015560208201518160010160006101000a81548173ffffffffffffffffffffffffffffffffffffffff021916908373ffffffffffffffffffffffffffffffffffffffff1602179055506040820151816002019081610ced91906137e9565b506060820151816003019081610d0391906137e9565b5060808201518160040155505060016000803373ffffffffffffffffffffffffffffffffffffffff1673ffffffffffffffffffffffffffffffffffffffff16815260200190815260200160002060006101000a81548160ff0219169083151502179055503373ffffffffffffffffffffffffffffffffffffffff16817f1eae29c2b58d462ec01899beec8638862c6efafd4f3fc81015095a62fcdd5f7385604051610dae919061342c565b60405180910390a3505050565b60065481565b60085481565b60016002811115610ddb57610dda612c50565b5b610de361136b565b6002811115610df557610df4612c50565b5b14610e35576040517f08c379a0000000000000000000000000000000000000000000000000000000008152600401610e2c9061392d565b60405180910390fd5b600960009054906101000a900473ffffffffffffffffffffffffffffffffffffffff1673ffffffffffffffffffffffffffffffffffffffff1663d45529f46040518163ffffffff1660e01b8152600401602060405180830381865afa158015610ea2573d6000803e3d6000fd5b505050506040513d601f19601f82011682018060405250810190610ec69190613090565b73ffffffffffffffffffffffffffffffffffffffff163373ffffffffffffffffffffffffffffffffffffffff1614610f33576040517f08c379a0000000000000000000000000000000000000000000000000000000008152600401610f2a9061312f565b60405180910390fd5b60006002600554600654610f47919061394d565b610f51919061323f565b600554610f5e9190613981565b905080421080610f6f575060065442115b1561102157600854341015610f98670de0b6b3a7640000600854610f93919061323f565b6120d2565b610fb6670de0b6b3a7640000600854610fb19190613270565b6120d2565b604051602001610fc7929190613a27565b60405160208183030381529060405290611017576040517f08c379a000000000000000000000000000000000000000000000000000000000815260040161100e919061342c565b60405180910390fd5b506110206121a0565b5b426006819055507ffce20a510f6f83f7014a422dfa9541af4170f706faeed678bf815b2bad2c3b9d60065460405161105991906126e1565b60405180910390a150565b60028081111561107757611076612c50565b5b61107f61136b565b600281111561109157611090612c50565b5b146110d1576040517f08c379a00000000000000000000000000000000000000000000000000000000081526004016110c8906134fa565b60405180910390fd5b600960009054906101000a900473ffffffffffffffffffffffffffffffffffffffff1673ffffffffffffffffffffffffffffffffffffffff1663d45529f46040518163ffffffff1660e01b8152600401602060405180830381865afa15801561113e573d6000803e3d6000fd5b505050506040513d601f19601f820116820180604052508101906111629190613090565b73ffffffffffffffffffffffffffffffffffffffff163373ffffffffffffffffffffffffffffffffffffffff16146111cf576040517f08c379a00000000000000000000000000000000000000000000000000000000081526004016111c69061312f565b60405180910390fd5b60008060005b6002805490508110156112895782600282815481106111f7576111f661351a565b5b906000526020600020906005020160040154111561124057600281815481106112235761122261351a565b5b90600052602060002090600502016004015492506001915061127c565b82600282815481106112555761125461351a565b5b9060005260206000209060050201600401540361127b57818061127790613a6c565b9250505b5b80806001019150506111d5565b508067ffffffffffffffff8111156112a4576112a3612aad565b5b6040519080825280602002602001820160405280156112d25781602001602082028036833780820191505090505b50600390805190602001906112e892919061254a565b506000805b60028054905081101561136557836002828154811061130f5761130e61351a565b5b9060005260206000209060050201600401540361135857806003838154811061133b5761133a61351a565b5b9060005260206000200181905550818061135490613a6c565b9250505b80806001019150506112ed565b50505050565b60006005544210156113805760009050611398565b6006544210156113935760019050611398565b600290505b90565b600160028111156113af576113ae612c50565b5b6113b761136b565b60028111156113c9576113c8612c50565b5b14611409576040517f08c379a00000000000000000000000000000000000000000000000000000000081526004016114009061392d565b60405180910390fd5b600081511161144d576040517f08c379a000000000000000000000000000000000000000000000000000000000815260040161144490613b26565b60405180910390fd5b60005b815181101561172057600082828151811061146e5761146d61351a565b5b6020026020010151905060028054905081106114bf576040517f08c379a00000000000000000000000000000000000000000000000000000000081526004016114b690613b92565b60405180910390fd5b600160003373ffffffffffffffffffffffffffffffffffffffff1673ffffffffffffffffffffffffffffffffffffffff168152602001908152602001600020600001600082815260200190815260200160002060009054906101000a900460ff1615611560576040517f08c379a000000000000000000000000000000000000000000000000000000000815260040161155790613c24565b60405180910390fd5b600281815481106115745761157361351a565b5b906000526020600020906005020160010160009054906101000a900473ffffffffffffffffffffffffffffffffffffffff1673ffffffffffffffffffffffffffffffffffffffff163373ffffffffffffffffffffffffffffffffffffffff1603611613576040517f08c379a000000000000000000000000000000000000000000000000000000000815260040161160a90613c90565b60405180910390fd5b600281815481106116275761162661351a565b5b9060005260206000209060050201600401600081548092919061164990613a6c565b919050555060018060003373ffffffffffffffffffffffffffffffffffffffff1673ffffffffffffffffffffffffffffffffffffffff168152602001908152602001600020600001600083815260200190815260200160002060006101000a81548160ff02191690831515021790555060018060003373ffffffffffffffffffffffffffffffffffffffff1673ffffffffffffffffffffffffffffffffffffffff168152602001908152602001600020600101600082825461170b9190613981565b92505081905550508080600101915050611450565b506004339080600181540180825580915050600190039060005260206000200160009091909190916101000a81548173ffffffffffffffffffffffffffffffffffffffff021916908373ffffffffffffffffffffffffffffffffffffffff160217905550806000815181106117985761179761351a565b5b60200260200101513373ffffffffffffffffffffffffffffffffffffffff167f91245104b789a7305f92f9021565196417b6da8b936d6acdd30bccc0e7ee15d560405160405180910390a350565b60006020528060005260406000206000915054906101000a900460ff1681565b60055481565b600960009054906101000a900473ffffffffffffffffffffffffffffffffffffffff1681565b606060028081111561184757611846612c50565b5b61184f61136b565b600281111561186157611860612c50565b5b146118a1576040517f08c379a0000000000000000000000000000000000000000000000000000000008152600401611898906134fa565b60405180910390fd5b6000600380549050116118e9576040517f08c379a00000000000000000000000000000000000000000000000000000000081526004016118e090613d22565b60405180910390fd5b600380548060200260200160405190810160405280929190818152602001828054801561193557602002820191906000526020600020905b815481526020019060010190808311611921575b5050505050905090565b6002818154811061194f57600080fd5b90600052602060002090600502016000915090508060000154908060010160009054906101000a900473ffffffffffffffffffffffffffffffffffffffff169080600201805461199e9061347d565b80601f01602080910402602001604051908101604052809291908181526020018280546119ca9061347d565b8015611a175780601f106119ec57610100808354040283529160200191611a17565b820191906000526020600020905b8154815290600101906020018083116119fa57829003601f168201915b505050505090806003018054611a2c9061347d565b80601f0160208091040260200160405190810160405280929190818152602001828054611a589061347d565b8015611aa55780601f10611a7a57610100808354040283529160200191611aa5565b820191906000526020600020905b815481529060010190602001808311611a8857829003601f168201915b5050505050908060040154905085565b600960009054906101000a900473ffffffffffffffffffffffffffffffffffffffff1673ffffffffffffffffffffffffffffffffffffffff1663d45529f46040518163ffffffff1660e01b8152600401602060405180830381865afa158015611b22573d6000803e3d6000fd5b505050506040513d601f19601f82011682018060405250810190611b469190613090565b73ffffffffffffffffffffffffffffffffffffffff163373ffffffffffffffffffffffffffffffffffffffff1614611bb3576040517f08c379a0000000000000000000000000000000000000000000000000000000008152600401611baa9061312f565b60405180910390fd5b600280811115611bc657611bc5612c50565b5b611bce61136b565b6002811115611be057611bdf612c50565b5b14611c20576040517f08c379a0000000000000000000000000000000000000000000000000000000008152600401611c17906134fa565b60405180910390fd5b600073ffffffffffffffffffffffffffffffffffffffff16600960009054906101000a900473ffffffffffffffffffffffffffffffffffffffff1673ffffffffffffffffffffffffffffffffffffffff1663ef5d6d3d6040518163ffffffff1660e01b8152600401602060405180830381865afa158015611ca5573d6000803e3d6000fd5b505050506040513d601f19601f82011682018060405250810190611cc99190613090565b73ffffffffffffffffffffffffffffffffffffffff1603611d1f576040517f08c379a0000000000000000000000000000000000000000000000000000000008152600401611d1690613d8e565b60405180910390fd5b60003411611d62576040517f08c379a0000000000000000000000000000000000000000000000000000000008152600401611d5990613dfa565b60405180910390fd5b600960009054906101000a900473ffffffffffffffffffffffffffffffffffffffff1673ffffffffffffffffffffffffffffffffffffffff1663e3133cc66040518163ffffffff1660e01b8152600401600060405180830381600087803b158015611dcc57600080fd5b505af1158015611de0573d6000803e3d6000fd5b5050505060005b600480549050811015611f4f5760006001600060048481548110611e0e57611e0d61351a565b5b9060005260206000200160009054906101000a900473ffffffffffffffffffffffffffffffffffffffff1673ffffffffffffffffffffffffffffffffffffffff1673ffffffffffffffffffffffffffffffffffffffff1681526020019081526020016000206001018190555060005b600280549050811015611f415760006001600060048581548110611ea457611ea361351a565b5b9060005260206000200160009054906101000a900473ffffffffffffffffffffffffffffffffffffffff1673ffffffffffffffffffffffffffffffffffffffff1673ffffffffffffffffffffffffffffffffffffffff168152602001908152602001600020600001600083815260200190815260200160002060006101000a81548160ff0219169083151502179055508080600101915050611e7d565b508080600101915050611de7565b5060005b60028054905081101561203457600060028281548110611f7657611f7561351a565b5b906000526020600020906005020160040181905550600080600060028481548110611fa457611fa361351a565b5b906000526020600020906005020160010160009054906101000a900473ffffffffffffffffffffffffffffffffffffffff1673ffffffffffffffffffffffffffffffffffffffff1673ffffffffffffffffffffffffffffffffffffffff16815260200190815260200160002060006101000a81548160ff0219169083151502179055508080600101915050611f53565b506202a300426120449190613981565b6005819055506201518060055461205b9190613981565b6006819055506002600061206f9190612597565b6004600061207d91906125bb565b6003600061208b91906125dc565b6120936121a0565b7f304bcd72bc1c3d4c607e8195b34a54009fef20075a1e84bf11a1b8755431a0d96005546006546040516120c8929190613e1a565b60405180910390a1565b6060600060016120e1846123f7565b01905060008167ffffffffffffffff811115612100576120ff612aad565b5b6040519080825280601f01601f1916602001820160405280156121325781602001600182028036833780820191505090505b509050600082602001820190505b600115612195578080600190039150507f3031323334353637383961626364656600000000000000000000000000000000600a86061a8153600a8581612189576121886131e1565b5b04945060008503612140575b819350505050919050565b600960009054906101000a900473ffffffffffffffffffffffffffffffffffffffff1673ffffffffffffffffffffffffffffffffffffffff1663d45529f46040518163ffffffff1660e01b8152600401602060405180830381865afa15801561220d573d6000803e3d6000fd5b505050506040513d601f19601f820116820180604052508101906122319190613090565b73ffffffffffffffffffffffffffffffffffffffff163373ffffffffffffffffffffffffffffffffffffffff161461229e576040517f08c379a00000000000000000000000000000000000000000000000000000000081526004016122959061312f565b60405180910390fd5b600073ffffffffffffffffffffffffffffffffffffffff16600960009054906101000a900473ffffffffffffffffffffffffffffffffffffffff1673ffffffffffffffffffffffffffffffffffffffff160361232f576040517f08c379a000000000000000000000000000000000000000000000000000000000815260040161232690613eb5565b60405180910390fd5b60003411612372576040517f08c379a000000000000000000000000000000000000000000000000000000000815260040161236990613dfa565b60405180910390fd5b600960009054906101000a900473ffffffffffffffffffffffffffffffffffffffff1673ffffffffffffffffffffffffffffffffffffffff1663f1575f3f346040518263ffffffff1660e01b81526004016000604051808303818588803b1580156123dc57600080fd5b505af11580156123f0573d6000803e3d6000fd5b5050505050565b600080600090507a184f03e93ff9f4daa797ed6e38ed64bf6a1f0100000000000000008310612455577a184f03e93ff9f4daa797ed6e38ed64bf6a1f010000000000000000838161244b5761244a6131e1565b5b0492506040810190505b6d04ee2d6d415b85acef81000000008310612492576d04ee2d6d415b85acef81000000008381612488576124876131e1565b5b0492506020810190505b662386f26fc1000083106124c157662386f26fc1000083816124b7576124b66131e1565b5b0492506010810190505b6305f5e10083106124ea576305f5e10083816124e0576124df6131e1565b5b0492506008810190505b612710831061250f576127108381612505576125046131e1565b5b0492506004810190505b606483106125325760648381612528576125276131e1565b5b0492506002810190505b600a8310612541576001810190505b80915050919050565b828054828255906000526020600020908101928215612586579160200282015b8281111561258557825182559160200191906001019061256a565b5b50905061259391906125fd565b5090565b50805460008255600502906000526020600020908101906125b8919061261a565b50565b50805460008255906000526020600020908101906125d991906125fd565b50565b50805460008255906000526020600020908101906125fa91906125fd565b50565b5b808211156126165760008160009055506001016125fe565b5090565b5b80821115612684576000808201600090556001820160006101000a81549073ffffffffffffffffffffffffffffffffffffffff02191690556002820160006126639190612688565b6003820160006126739190612688565b60048201600090555060050161261b565b5090565b5080546126949061347d565b6000825580601f106126a657506126c5565b601f0160209004906000526020600020908101906126c491906125fd565b5b50565b6000819050919050565b6126db816126c8565b82525050565b60006020820190506126f660008301846126d2565b92915050565b6000604051905090565b600080fd5b600080fd5b600073ffffffffffffffffffffffffffffffffffffffff82169050919050565b600061273b82612710565b9050919050565b61274b81612730565b811461275657600080fd5b50565b60008135905061276881612742565b92915050565b612777816126c8565b811461278257600080fd5b50565b6000813590506127948161276e565b92915050565b600080604083850312156127b1576127b0612706565b5b60006127bf85828601612759565b92505060206127d085828601612785565b9150509250929050565b60008115159050919050565b6127ef816127da565b82525050565b600060208201905061280a60008301846127e6565b92915050565b600081519050919050565b600082825260208201905092915050565b6000819050602082019050919050565b612845816126c8565b82525050565b61285481612730565b82525050565b600081519050919050565b600082825260208201905092915050565b60005b83811015612894578082015181840152602081019050612879565b60008484015250505050565b6000601f19601f8301169050919050565b60006128bc8261285a565b6128c68185612865565b93506128d6818560208601612876565b6128df816128a0565b840191505092915050565b600060a083016000830151612902600086018261283c565b506020830151612915602086018261284b565b506040830151848203604086015261292d82826128b1565b9150506060830151848203606086015261294782826128b1565b915050608083015161295c608086018261283c565b508091505092915050565b600061297383836128ea565b905092915050565b6000602082019050919050565b600061299382612810565b61299d818561281b565b9350836020820285016129af8561282c565b8060005b858110156129eb57848403895281516129cc8582612967565b94506129d78361297b565b925060208a019950506001810190506129b3565b50829750879550505050505092915050565b60006020820190508181036000830152612a178184612988565b905092915050565b600060208284031215612a3557612a34612706565b5b6000612a4384828501612785565b91505092915050565b612a5581612730565b82525050565b6000602082019050612a706000830184612a4c565b92915050565b600060208284031215612a8c57612a8b612706565b5b6000612a9a84828501612759565b91505092915050565b600080fd5b600080fd5b7f4e487b7100000000000000000000000000000000000000000000000000000000600052604160045260246000fd5b612ae5826128a0565b810181811067ffffffffffffffff82111715612b0457612b03612aad565b5b80604052505050565b6000612b176126fc565b9050612b238282612adc565b919050565b600067ffffffffffffffff821115612b4357612b42612aad565b5b612b4c826128a0565b9050602081019050919050565b82818337600083830152505050565b6000612b7b612b7684612b28565b612b0d565b905082815260208101848484011115612b9757612b96612aa8565b5b612ba2848285612b59565b509392505050565b600082601f830112612bbf57612bbe612aa3565b5b8135612bcf848260208601612b68565b91505092915050565b60008060408385031215612bef57612bee612706565b5b600083013567ffffffffffffffff811115612c0d57612c0c61270b565b5b612c1985828601612baa565b925050602083013567ffffffffffffffff811115612c3a57612c3961270b565b5b612c4685828601612baa565b9150509250929050565b7f4e487b7100000000000000000000000000000000000000000000000000000000600052602160045260246000fd5b60038110612c9057612c8f612c50565b5b50565b6000819050612ca182612c7f565b919050565b6000612cb182612c93565b9050919050565b612cc181612ca6565b82525050565b6000602082019050612cdc6000830184612cb8565b92915050565b600067ffffffffffffffff821115612cfd57612cfc612aad565b5b602082029050602081019050919050565b600080fd5b6000612d26612d2184612ce2565b612b0d565b90508083825260208201905060208402830185811115612d4957612d48612d0e565b5b835b81811015612d725780612d5e8882612785565b845260208401935050602081019050612d4b565b5050509392505050565b600082601f830112612d9157612d90612aa3565b5b8135612da1848260208601612d13565b91505092915050565b600060208284031215612dc057612dbf612706565b5b600082013567ffffffffffffffff811115612dde57612ddd61270b565b5b612dea84828501612d7c565b91505092915050565b6000819050919050565b6000612e18612e13612e0e84612710565b612df3565b612710565b9050919050565b6000612e2a82612dfd565b9050919050565b6000612e3c82612e1f565b9050919050565b612e4c81612e31565b82525050565b6000602082019050612e676000830184612e43565b92915050565b600081519050919050565b600082825260208201905092915050565b6000819050602082019050919050565b6000612ea5838361283c565b60208301905092915050565b6000602082019050919050565b6000612ec982612e6d565b612ed38185612e78565b9350612ede83612e89565b8060005b83811015612f0f578151612ef68882612e99565b9750612f0183612eb1565b925050600181019050612ee2565b5085935050505092915050565b60006020820190508181036000830152612f368184612ebe565b905092915050565b600082825260208201905092915050565b6000612f5a8261285a565b612f648185612f3e565b9350612f74818560208601612876565b612f7d816128a0565b840191505092915050565b600060a082019050612f9d60008301886126d2565b612faa6020830187612a4c565b8181036040830152612fbc8186612f4f565b90508181036060830152612fd08185612f4f565b9050612fdf60808301846126d2565b9695505050505050565b7f566f74696e672068617320616c72656164792073746172746564206f7220686160008201527f7320656e64656421000000000000000000000000000000000000000000000000602082015250565b6000613045602883612f3e565b915061305082612fe9565b604082019050919050565b6000602082019050818103600083015261307481613038565b9050919050565b60008151905061308a81612742565b92915050565b6000602082840312156130a6576130a5612706565b5b60006130b48482850161307b565b91505092915050565b7f4f6e6c792061646d696e2063616e20706572666f726d2074686973206163746960008201527f6f6e210000000000000000000000000000000000000000000000000000000000602082015250565b6000613119602383612f3e565b9150613124826130bd565b604082019050919050565b600060208201905081810360008301526131488161310c565b9050919050565b7f43616e6e6f7420737461727420766f74696e672077697468206c65737320746860008201527f616e2074776f2063616e64696461746573210000000000000000000000000000602082015250565b60006131ab603283612f3e565b91506131b68261314f565b604082019050919050565b600060208201905081810360008301526131da8161319e565b9050919050565b7f4e487b7100000000000000000000000000000000000000000000000000000000600052601260045260246000fd5b7f4e487b7100000000000000000000000000000000000000000000000000000000600052601160045260246000fd5b600061324a826126c8565b9150613255836126c8565b925082613265576132646131e1565b5b828204905092915050565b600061327b826126c8565b9150613286836126c8565b925082613296576132956131e1565b5b828206905092915050565b600081905092915050565b7f496e73756666696369656e74207061796d656e7420746f20737461727420766f60008201527f74696e67206561726c792120596f75206e656564206174206c65617374200000602082015250565b6000613308603e836132a1565b9150613313826132ac565b603e82019050919050565b60006133298261285a565b61333381856132a1565b9350613343818560208601612876565b80840191505092915050565b7f2e00000000000000000000000000000000000000000000000000000000000000600082015250565b60006133856001836132a1565b91506133908261334f565b600182019050919050565b7f206574686572732e000000000000000000000000000000000000000000000000600082015250565b60006133d16008836132a1565b91506133dc8261339b565b600882019050919050565b60006133f2826132fb565b91506133fe828561331e565b915061340982613378565b9150613415828461331e565b9150613420826133c4565b91508190509392505050565b600060208201905081810360008301526134468184612f4f565b905092915050565b7f4e487b7100000000000000000000000000000000000000000000000000000000600052602260045260246000fd5b6000600282049050600182168061349557607f821691505b6020821081036134a8576134a761344e565b5b50919050565b7f566f74696e6720686173206e6f7420656e646564210000000000000000000000600082015250565b60006134e4601583612f3e565b91506134ef826134ae565b602082019050919050565b60006020820190508181036000830152613513816134d7565b9050919050565b7f4e487b7100000000000000000000000000000000000000000000000000000000600052603260045260246000fd5b7f4f6e6c7920726567756c61722075736572732063616e20706572666f726d207460008201527f68697320616374696f6e21000000000000000000000000000000000000000000602082015250565b60006135a5602b83612f3e565b91506135b082613549565b604082019050919050565b600060208201905081810360008301526135d481613598565b9050919050565b7f596f75206861766520616c72656164792063616e646964617465642100000000600082015250565b6000613611601c83612f3e565b915061361c826135db565b602082019050919050565b6000602082019050818103600083015261364081613604565b9050919050565b60008190508160005260206000209050919050565b60006020601f8301049050919050565b600082821b905092915050565b6000600883026136a97fffffffffffffffffffffffffffffffffffffffffffffffffffffffffffffffff8261366c565b6136b3868361366c565b95508019841693508086168417925050509392505050565b60006136e66136e16136dc846126c8565b612df3565b6126c8565b9050919050565b6000819050919050565b613700836136cb565b61371461370c826136ed565b848454613679565b825550505050565b600090565b61372961371c565b6137348184846136f7565b505050565b5b818110156137585761374d600082613721565b60018101905061373a565b5050565b601f82111561379d5761376e81613647565b6137778461365c565b81016020851015613786578190505b61379a6137928561365c565b830182613739565b50505b505050565b600082821c905092915050565b60006137c0600019846008026137a2565b1980831691505092915050565b60006137d983836137af565b9150826002028217905092915050565b6137f28261285a565b67ffffffffffffffff81111561380b5761380a612aad565b5b613815825461347d565b61382082828561375c565b600060209050601f8311600181146138535760008415613841578287015190505b61384b85826137cd565b8655506138b3565b601f19841661386186613647565b60005b8281101561388957848901518255600182019150602085019450602081019050613864565b868310156138a657848901516138a2601f8916826137af565b8355505b6001600288020188555050505b505050505050565b7f566f74696e6720686173206e6f742073746172746564206f722068617320616c60008201527f726561647920656e646564210000000000000000000000000000000000000000602082015250565b6000613917602c83612f3e565b9150613922826138bb565b604082019050919050565b600060208201905081810360008301526139468161390a565b9050919050565b6000613958826126c8565b9150613963836126c8565b925082820390508181111561397b5761397a613210565b5b92915050565b600061398c826126c8565b9150613997836126c8565b92508282019050808211156139af576139ae613210565b5b92915050565b7f496e73756666696369656e74207061796d656e7420746f20656e6420766f746960008201527f6e67206561726c792120596f75206e656564206174206c656173742000000000602082015250565b6000613a11603c836132a1565b9150613a1c826139b5565b603c82019050919050565b6000613a3282613a04565b9150613a3e828561331e565b9150613a4982613378565b9150613a55828461331e565b9150613a60826133c4565b91508190509392505050565b6000613a77826126c8565b91507fffffffffffffffffffffffffffffffffffffffffffffffffffffffffffffffff8203613aa957613aa8613210565b5b600182019050919050565b7f4e6f2063616e646964617465732073656c656374656420666f7220766f74696e60008201527f6721000000000000000000000000000000000000000000000000000000000000602082015250565b6000613b10602283612f3e565b9150613b1b82613ab4565b604082019050919050565b60006020820190508181036000830152613b3f81613b03565b9050919050565b7f496e76616c69642063616e646964617465204944210000000000000000000000600082015250565b6000613b7c601583612f3e565b9150613b8782613b46565b602082019050919050565b60006020820190508181036000830152613bab81613b6f565b9050919050565b7f596f75206861766520616c726561647920766f74656420666f7220746869732060008201527f63616e6469646174652100000000000000000000000000000000000000000000602082015250565b6000613c0e602a83612f3e565b9150613c1982613bb2565b604082019050919050565b60006020820190508181036000830152613c3d81613c01565b9050919050565b7f596f752063616e6e6f7420766f746520666f7220796f757273656c6621000000600082015250565b6000613c7a601d83612f3e565b9150613c8582613c44565b602082019050919050565b60006020820190508181036000830152613ca981613c6d565b9050919050565b7f57696e6e6572732068617665206e6f74206265656e207570646174656420796560008201527f7421000000000000000000000000000000000000000000000000000000000000602082015250565b6000613d0c602283612f3e565b9150613d1782613cb0565b604082019050919050565b60006020820190508181036000830152613d3b81613cff565b9050919050565b7f5072697a6520686173206e6f74206265656e2073656e74207965742100000000600082015250565b6000613d78601c83612f3e565b9150613d8382613d42565b602082019050919050565b60006020820190508181036000830152613da781613d6b565b9050919050565b7f416d6f756e74206d7573742062652067726561746572207468616e2030210000600082015250565b6000613de4601e83612f3e565b9150613def82613dae565b602082019050919050565b60006020820190508181036000830152613e1381613dd7565b9050919050565b6000604082019050613e2f60008301856126d2565b613e3c60208301846126d2565b9392505050565b7f526577617264657220636f6e747261637420686173206e6f74206265656e206960008201527f6e697469616c697a656421000000000000000000000000000000000000000000602082015250565b6000613e9f602b83612f3e565b9150613eaa82613e43565b604082019050919050565b60006020820190508181036000830152613ece81613e92565b905091905056fea264697066735822122046a639ae28d33f36c25cfe2e107cd5d0b1ad35dc6a84138644462bc6819bb56464736f6c63430008180033",
  "linkReferences": {},
  "deployedLinkReferences": {}
}