{
  "_format": "hh-sol-artifact-1",
  "contractName": "Voting",
  "sourceName": "contracts/Voting.sol",
  "abi": [
    {
      "inputs": [
        {
          "internalType": "address payable",
          "name": "_rewarderAddress",
          "type": "address"
        }
      ],
      "stateMutability": "nonpayable",
      "type": "constructor"
    },
    {
      "anonymous": false,
      "inputs": [
        {
          "indexed": false,
          "internalType": "uint256",
          "name": "endVotingTimestamp",
          "type": "uint256"
        }
      ],
      "name": "EndVote",
      "type": "event"
    },
    {
      "anonymous": false,
      "inputs": [
        {
          "indexed": true,
          "internalType": "uint256",
          "name": "candidateId",
          "type": "uint256"
        },
        {
          "indexed": true,
          "internalType": "address",
          "name": "candidateAddress",
          "type": "address"
        },
        {
          "indexed": false,
          "internalType": "string",
          "name": "name",
          "type": "string"
        }
      ],
      "name": "SomeoneCandidated",
      "type": "event"
    },
    {
      "anonymous": false,
      "inputs": [
        {
          "indexed": true,
          "internalType": "address",
          "name": "voter",
          "type": "address"
        },
        {
          "indexed": true,
          "internalType": "uint256",
          "name": "candidateId",
          "type": "uint256"
        }
      ],
      "name": "SomeoneVoted",
      "type": "event"
    },
    {
      "anonymous": false,
      "inputs": [
        {
          "indexed": false,
          "internalType": "uint256",
          "name": "startVotingTimestamp",
          "type": "uint256"
        }
      ],
      "name": "StartVote",
      "type": "event"
    },
    {
      "inputs": [],
      "name": "adminEndVoteCost",
      "outputs": [
        {
          "internalType": "uint256",
          "name": "",
          "type": "uint256"
        }
      ],
      "stateMutability": "view",
      "type": "function"
    },
    {
      "inputs": [],
      "name": "adminStartVoteCost",
      "outputs": [
        {
          "internalType": "uint256",
          "name": "",
          "type": "uint256"
        }
      ],
      "stateMutability": "view",
      "type": "function"
    },
    {
      "inputs": [
        {
          "internalType": "string",
          "name": "_name",
          "type": "string"
        },
        {
          "internalType": "string",
          "name": "_description",
          "type": "string"
        }
      ],
      "name": "candidate",
      "outputs": [],
      "stateMutability": "nonpayable",
      "type": "function"
    },
    {
      "inputs": [
        {
          "internalType": "uint256",
          "name": "",
          "type": "uint256"
        }
      ],
      "name": "candidatesList",
      "outputs": [
        {
          "internalType": "uint256",
          "name": "candidateId",
          "type": "uint256"
        },
        {
          "internalType": "address",
          "name": "candidateAddress",
          "type": "address"
        },
        {
          "internalType": "string",
          "name": "name",
          "type": "string"
        },
        {
          "internalType": "string",
          "name": "description",
          "type": "string"
        },
        {
          "internalType": "uint256",
          "name": "numVotes",
          "type": "uint256"
        }
      ],
      "stateMutability": "view",
      "type": "function"
    },
    {
      "inputs": [],
      "name": "checkVotingCurrentState",
      "outputs": [
        {
          "internalType": "enum Voting.VotingState",
          "name": "",
          "type": "uint8"
        }
      ],
      "stateMutability": "view",
      "type": "function"
    },
    {
      "inputs": [],
      "name": "endVoting",
      "outputs": [],
      "stateMutability": "payable",
      "type": "function"
    },
    {
      "inputs": [],
      "name": "getCandidatesList",
      "outputs": [
        {
          "components": [
            {
              "internalType": "uint256",
              "name": "candidateId",
              "type": "uint256"
            },
            {
              "internalType": "address",
              "name": "candidateAddress",
              "type": "address"
            },
            {
              "internalType": "string",
              "name": "name",
              "type": "string"
            },
            {
              "internalType": "string",
              "name": "description",
              "type": "string"
            },
            {
              "internalType": "uint256",
              "name": "numVotes",
              "type": "uint256"
            }
          ],
          "internalType": "struct Voting.Candidate[]",
          "name": "",
          "type": "tuple[]"
        }
      ],
      "stateMutability": "view",
      "type": "function"
    },
    {
      "inputs": [
        {
          "internalType": "uint256",
          "name": "_winnerId",
          "type": "uint256"
        }
      ],
      "name": "getWinnerAddress",
      "outputs": [
        {
          "internalType": "address",
          "name": "",
          "type": "address"
        }
      ],
      "stateMutability": "view",
      "type": "function"
    },
    {
      "inputs": [],
      "name": "getWinners",
      "outputs": [
        {
          "internalType": "uint256[]",
          "name": "",
          "type": "uint256[]"
        }
      ],
      "stateMutability": "view",
      "type": "function"
    },
    {
      "inputs": [
        {
          "internalType": "address",
          "name": "",
          "type": "address"
        }
      ],
      "name": "hasCandidated",
      "outputs": [
        {
          "internalType": "bool",
          "name": "",
          "type": "bool"
        }
      ],
      "stateMutability": "view",
      "type": "function"
    },
    {
      "inputs": [
        {
          "internalType": "address",
          "name": "_voter",
          "type": "address"
        },
        {
          "internalType": "uint256",
          "name": "_candidateId",
          "type": "uint256"
        }
      ],
      "name": "hasVotedFor",
      "outputs": [
        {
          "internalType": "bool",
          "name": "",
          "type": "bool"
        }
      ],
      "stateMutability": "view",
      "type": "function"
    },
    {
      "inputs": [],
      "name": "rewarder",
      "outputs": [
        {
          "internalType": "contract Rewarder",
          "name": "",
          "type": "address"
        }
      ],
      "stateMutability": "view",
      "type": "function"
    },
    {
      "inputs": [],
      "name": "startVoting",
      "outputs": [],
      "stateMutability": "payable",
      "type": "function"
    },
    {
      "inputs": [],
      "name": "startVotingTimestamp",
      "outputs": [
        {
          "internalType": "uint256",
          "name": "",
          "type": "uint256"
        }
      ],
      "stateMutability": "view",
      "type": "function"
    },
    {
      "inputs": [],
      "name": "stopVotingTimestamp",
      "outputs": [
        {
          "internalType": "uint256",
          "name": "",
          "type": "uint256"
        }
      ],
      "stateMutability": "view",
      "type": "function"
    },
    {
      "inputs": [],
      "name": "updateWinners",
      "outputs": [],
      "stateMutability": "nonpayable",
      "type": "function"
    },
    {
      "inputs": [
        {
          "internalType": "uint256[]",
          "name": "_candidateIds",
          "type": "uint256[]"
        }
      ],
      "name": "vote",
      "outputs": [],
      "stateMutability": "nonpayable",
      "type": "function"
    },
    {
      "inputs": [
        {
          "internalType": "address",
          "name": "",
          "type": "address"
        }
      ],
      "name": "voters",
      "outputs": [
        {
          "internalType": "uint256",
          "name": "numPersonsVoted",
          "type": "uint256"
        }
      ],
      "stateMutability": "view",
      "type": "function"
    },
    {
      "stateMutability": "payable",
      "type": "receive"
    }
  ],
  "bytecode": "0x6080604052600067ffffffffffffffff811115620000225762000021620003a5565b5b604051908082528060200260200182016040528015620000515781602001602082028036833780820191505090505b50600390805190602001906200006992919062000334565b50671d24b2dfac520000600655671d24b2dfac5200006007553480156200008f57600080fd5b5060405162003d8138038062003d818339818101604052810190620000b591906200043e565b600073ffffffffffffffffffffffffffffffffffffffff168173ffffffffffffffffffffffffffffffffffffffff160362000127576040517f08c379a00000000000000000000000000000000000000000000000000000000081526004016200011e90620004d1565b60405180910390fd5b80600860006101000a81548173ffffffffffffffffffffffffffffffffffffffff021916908373ffffffffffffffffffffffffffffffffffffffff1602179055503373ffffffffffffffffffffffffffffffffffffffff16600860009054906101000a900473ffffffffffffffffffffffffffffffffffffffff1673ffffffffffffffffffffffffffffffffffffffff1663d45529f46040518163ffffffff1660e01b8152600401602060405180830381865afa158015620001ed573d6000803e3d6000fd5b505050506040513d601f19601f8201168201806040525081019062000213919062000538565b73ffffffffffffffffffffffffffffffffffffffff16146200026c576040517f08c379a00000000000000000000000000000000000000000000000000000000081526004016200026390620005e0565b60405180910390fd5b600860009054906101000a900473ffffffffffffffffffffffffffffffffffffffff1673ffffffffffffffffffffffffffffffffffffffff166348bd2c4b306040518263ffffffff1660e01b8152600401620002c9919062000613565b600060405180830381600087803b158015620002e457600080fd5b505af1158015620002f9573d6000803e3d6000fd5b505050506202a300426200030e919062000669565b6004819055506201518060045462000327919062000669565b60058190555050620006a4565b82805482825590600052602060002090810192821562000373579160200282015b828111156200037257825182559160200191906001019062000355565b5b50905062000382919062000386565b5090565b5b80821115620003a157600081600090555060010162000387565b5090565b7f4e487b7100000000000000000000000000000000000000000000000000000000600052604160045260246000fd5b600080fd5b600073ffffffffffffffffffffffffffffffffffffffff82169050919050565b60006200040682620003d9565b9050919050565b6200041881620003f9565b81146200042457600080fd5b50565b60008151905062000438816200040d565b92915050565b600060208284031215620004575762000456620003d4565b5b6000620004678482850162000427565b91505092915050565b600082825260208201905092915050565b7f496e76616c696420726577617264657220616464726573732100000000000000600082015250565b6000620004b960198362000470565b9150620004c68262000481565b602082019050919050565b60006020820190508181036000830152620004ec81620004aa565b9050919050565b60006200050082620003d9565b9050919050565b6200051281620004f3565b81146200051e57600080fd5b50565b600081519050620005328162000507565b92915050565b600060208284031215620005515762000550620003d4565b5b6000620005618482850162000521565b91505092915050565b7f596f75206d75737420626520746865206f776e6572206f66207468652072657760008201527f617264657220636f6e7472616374210000000000000000000000000000000000602082015250565b6000620005c8602f8362000470565b9150620005d5826200056a565b604082019050919050565b60006020820190508181036000830152620005fb81620005b9565b9050919050565b6200060d81620003f9565b82525050565b60006020820190506200062a600083018462000602565b92915050565b6000819050919050565b7f4e487b7100000000000000000000000000000000000000000000000000000000600052601160045260246000fd5b6000620006768262000630565b9150620006838362000630565b92508282019050808211156200069e576200069d6200063a565b5b92915050565b6136cd80620006b46000396000f3fe60806040526004361061010d5760003560e01c8063c3403ddf11610095578063d4c8727111610064578063d4c8727114610324578063d95c3e0c14610361578063dcc3e06e1461038c578063df15c37e146103b7578063df2d5ec7146103e257610114565b8063c3403ddf146102af578063c503c0a7146102b9578063cbb51a3e146102d0578063ce11f2bb146102fb57610114565b8063515371a3116100dc578063515371a3146101b6578063a3ec138d146101f3578063bbe4526914610230578063be4c312414610259578063c106552f1461028457610114565b80630488a2be1461011957806306dcde06146101445780631ec6b60a146101815780634aba5f341461018b57610114565b3661011457005b600080fd5b34801561012557600080fd5b5061012e610423565b60405161013b9190611f38565b60405180910390f35b34801561015057600080fd5b5061016b60048036038101906101669190611ff1565b610429565b604051610178919061204c565b60405180910390f35b610189610494565b005b34801561019757600080fd5b506101a0610740565b6040516101ad9190612254565b60405180910390f35b3480156101c257600080fd5b506101dd60048036038101906101d89190612276565b61092d565b6040516101ea91906122b2565b60405180910390f35b3480156101ff57600080fd5b5061021a600480360381019061021591906122cd565b6109e9565b6040516102279190611f38565b60405180910390f35b34801561023c57600080fd5b506102576004803603810190610252919061242f565b610a07565b005b34801561026557600080fd5b5061026e610da6565b60405161027b9190611f38565b60405180910390f35b34801561029057600080fd5b50610299610dac565b6040516102a69190611f38565b60405180910390f35b6102b7610db2565b005b3480156102c557600080fd5b506102ce61104f565b005b3480156102dc57600080fd5b506102e5611356565b6040516102f2919061251e565b60405180910390f35b34801561030757600080fd5b50610322600480360381019061031d9190612601565b611386565b005b34801561033057600080fd5b5061034b600480360381019061034691906122cd565b61176e565b604051610358919061204c565b60405180910390f35b34801561036d57600080fd5b5061037661178e565b6040516103839190611f38565b60405180910390f35b34801561039857600080fd5b506103a1611794565b6040516103ae91906126a9565b60405180910390f35b3480156103c357600080fd5b506103cc6117ba565b6040516103d99190612773565b60405180910390f35b3480156103ee57600080fd5b5061040960048036038101906104049190612276565b6118c7565b60405161041a9594939291906127df565b60405180910390f35b60065481565b6000600160008473ffffffffffffffffffffffffffffffffffffffff1673ffffffffffffffffffffffffffffffffffffffff168152602001908152602001600020600001600083815260200190815260200160002060009054906101000a900460ff16905092915050565b600060028111156104a8576104a76124a7565b5b6104b0611356565b60028111156104c2576104c16124a7565b5b14610502576040517f08c379a00000000000000000000000000000000000000000000000000000000081526004016104f9906128b2565b60405180910390fd5b60016002805490501161054a576040517f08c379a000000000000000000000000000000000000000000000000000000000815260040161054190612944565b60405180910390fd5b600860009054906101000a900473ffffffffffffffffffffffffffffffffffffffff1673ffffffffffffffffffffffffffffffffffffffff1663d45529f46040518163ffffffff1660e01b8152600401602060405180830381865afa1580156105b7573d6000803e3d6000fd5b505050506040513d601f19601f820116820180604052508101906105db9190612979565b73ffffffffffffffffffffffffffffffffffffffff163373ffffffffffffffffffffffffffffffffffffffff1614610648576040517f08c379a000000000000000000000000000000000000000000000000000000000815260040161063f90612a18565b60405180910390fd5b60045442146106fe57600654341015610675670de0b6b3a76400006006546106709190612a96565b611a3d565b610693670de0b6b3a764000060065461068e9190612ac7565b611a3d565b6040516020016106a4929190612c3e565b604051602081830303815290604052906106f4576040517f08c379a00000000000000000000000000000000000000000000000000000000081526004016106eb9190612c83565b60405180910390fd5b506106fd611b0b565b5b426004819055507f33c2d6285ba1442f7dd954820743aacec7468bc52e1671024b948f48f13226406004546040516107369190611f38565b60405180910390a1565b60606002805480602002602001604051908101604052809291908181526020016000905b8282101561092457838290600052602060002090600502016040518060a0016040529081600082015481526020016001820160009054906101000a900473ffffffffffffffffffffffffffffffffffffffff1673ffffffffffffffffffffffffffffffffffffffff1673ffffffffffffffffffffffffffffffffffffffff1681526020016002820180546107f790612cd4565b80601f016020809104026020016040519081016040528092919081815260200182805461082390612cd4565b80156108705780601f1061084557610100808354040283529160200191610870565b820191906000526020600020905b81548152906001019060200180831161085357829003601f168201915b5050505050815260200160038201805461088990612cd4565b80601f01602080910402602001604051908101604052809291908181526020018280546108b590612cd4565b80156109025780601f106108d757610100808354040283529160200191610902565b820191906000526020600020905b8154815290600101906020018083116108e557829003601f168201915b5050505050815260200160048201548152505081526020019060010190610764565b50505050905090565b6000600280811115610942576109416124a7565b5b61094a611356565b600281111561095c5761095b6124a7565b5b1461099c576040517f08c379a000000000000000000000000000000000000000000000000000000000815260040161099390612d51565b60405180910390fd5b600282815481106109b0576109af612d71565b5b906000526020600020906005020160010160009054906101000a900473ffffffffffffffffffffffffffffffffffffffff169050919050565b60016020528060005260406000206000915090508060010154905081565b60006002811115610a1b57610a1a6124a7565b5b610a23611356565b6002811115610a3557610a346124a7565b5b14610a75576040517f08c379a0000000000000000000000000000000000000000000000000000000008152600401610a6c906128b2565b60405180910390fd5b600860009054906101000a900473ffffffffffffffffffffffffffffffffffffffff1673ffffffffffffffffffffffffffffffffffffffff1663d45529f46040518163ffffffff1660e01b8152600401602060405180830381865afa158015610ae2573d6000803e3d6000fd5b505050506040513d601f19601f82011682018060405250810190610b069190612979565b73ffffffffffffffffffffffffffffffffffffffff163373ffffffffffffffffffffffffffffffffffffffff1603610b73576040517f08c379a0000000000000000000000000000000000000000000000000000000008152600401610b6a90612e12565b60405180910390fd5b6000803373ffffffffffffffffffffffffffffffffffffffff1673ffffffffffffffffffffffffffffffffffffffff16815260200190815260200160002060009054906101000a900460ff1615610bff576040517f08c379a0000000000000000000000000000000000000000000000000000000008152600401610bf690612e7e565b60405180910390fd5b6000600280549050905060026040518060a001604052808381526020013373ffffffffffffffffffffffffffffffffffffffff168152602001858152602001848152602001600081525090806001815401808255809150506001900390600052602060002090600502016000909190919091506000820151816000015560208201518160010160006101000a81548173ffffffffffffffffffffffffffffffffffffffff021916908373ffffffffffffffffffffffffffffffffffffffff1602179055506040820151816002019081610cd89190613040565b506060820151816003019081610cee9190613040565b5060808201518160040155505060016000803373ffffffffffffffffffffffffffffffffffffffff1673ffffffffffffffffffffffffffffffffffffffff16815260200190815260200160002060006101000a81548160ff0219169083151502179055503373ffffffffffffffffffffffffffffffffffffffff16817f1eae29c2b58d462ec01899beec8638862c6efafd4f3fc81015095a62fcdd5f7385604051610d999190612c83565b60405180910390a3505050565b60055481565b60075481565b60016002811115610dc657610dc56124a7565b5b610dce611356565b6002811115610de057610ddf6124a7565b5b14610e20576040517f08c379a0000000000000000000000000000000000000000000000000000000008152600401610e1790613184565b60405180910390fd5b600860009054906101000a900473ffffffffffffffffffffffffffffffffffffffff1673ffffffffffffffffffffffffffffffffffffffff1663d45529f46040518163ffffffff1660e01b8152600401602060405180830381865afa158015610e8d573d6000803e3d6000fd5b505050506040513d601f19601f82011682018060405250810190610eb19190612979565b73ffffffffffffffffffffffffffffffffffffffff163373ffffffffffffffffffffffffffffffffffffffff1614610f1e576040517f08c379a0000000000000000000000000000000000000000000000000000000008152600401610f1590612a18565b60405180910390fd5b60006002600454600554610f3291906131a4565b610f3c9190612a96565b600454610f4991906131d8565b905080421080610f5a575060055442115b1561100c57600754341015610f83670de0b6b3a7640000600754610f7e9190612a96565b611a3d565b610fa1670de0b6b3a7640000600754610f9c9190612ac7565b611a3d565b604051602001610fb292919061327e565b60405160208183030381529060405290611002576040517f08c379a0000000000000000000000000000000000000000000000000000000008152600401610ff99190612c83565b60405180910390fd5b5061100b611b0b565b5b426005819055507ffce20a510f6f83f7014a422dfa9541af4170f706faeed678bf815b2bad2c3b9d6005546040516110449190611f38565b60405180910390a150565b600280811115611062576110616124a7565b5b61106a611356565b600281111561107c5761107b6124a7565b5b146110bc576040517f08c379a00000000000000000000000000000000000000000000000000000000081526004016110b390612d51565b60405180910390fd5b600860009054906101000a900473ffffffffffffffffffffffffffffffffffffffff1673ffffffffffffffffffffffffffffffffffffffff1663d45529f46040518163ffffffff1660e01b8152600401602060405180830381865afa158015611129573d6000803e3d6000fd5b505050506040513d601f19601f8201168201806040525081019061114d9190612979565b73ffffffffffffffffffffffffffffffffffffffff163373ffffffffffffffffffffffffffffffffffffffff16146111ba576040517f08c379a00000000000000000000000000000000000000000000000000000000081526004016111b190612a18565b60405180910390fd5b60008060005b6002805490508110156112745782600282815481106111e2576111e1612d71565b5b906000526020600020906005020160040154111561122b576002818154811061120e5761120d612d71565b5b906000526020600020906005020160040154925060019150611267565b82600282815481106112405761123f612d71565b5b90600052602060002090600502016004015403611266578180611262906132c3565b9250505b5b80806001019150506111c0565b508067ffffffffffffffff81111561128f5761128e612304565b5b6040519080825280602002602001820160405280156112bd5781602001602082028036833780820191505090505b50600390805190602001906112d3929190611eb5565b506000805b6002805490508110156113505783600282815481106112fa576112f9612d71565b5b9060005260206000209060050201600401540361134357806003838154811061132657611325612d71565b5b9060005260206000200181905550818061133f906132c3565b9250505b80806001019150506112d8565b50505050565b600060045442101561136b5760009050611383565b60055442101561137e5760019050611383565b600290505b90565b6001600281111561139a576113996124a7565b5b6113a2611356565b60028111156113b4576113b36124a7565b5b146113f4576040517f08c379a00000000000000000000000000000000000000000000000000000000081526004016113eb90613184565b60405180910390fd5b6000815111611438576040517f08c379a000000000000000000000000000000000000000000000000000000000815260040161142f9061337d565b60405180910390fd5b60005b815181101561170b57600082828151811061145957611458612d71565b5b6020026020010151905060028054905081106114aa576040517f08c379a00000000000000000000000000000000000000000000000000000000081526004016114a1906133e9565b60405180910390fd5b600160003373ffffffffffffffffffffffffffffffffffffffff1673ffffffffffffffffffffffffffffffffffffffff168152602001908152602001600020600001600082815260200190815260200160002060009054906101000a900460ff161561154b576040517f08c379a00000000000000000000000000000000000000000000000000000000081526004016115429061347b565b60405180910390fd5b6002818154811061155f5761155e612d71565b5b906000526020600020906005020160010160009054906101000a900473ffffffffffffffffffffffffffffffffffffffff1673ffffffffffffffffffffffffffffffffffffffff163373ffffffffffffffffffffffffffffffffffffffff16036115fe576040517f08c379a00000000000000000000000000000000000000000000000000000000081526004016115f5906134e7565b60405180910390fd5b6002818154811061161257611611612d71565b5b90600052602060002090600502016004016000815480929190611634906132c3565b919050555060018060003373ffffffffffffffffffffffffffffffffffffffff1673ffffffffffffffffffffffffffffffffffffffff168152602001908152602001600020600001600083815260200190815260200160002060006101000a81548160ff02191690831515021790555060018060003373ffffffffffffffffffffffffffffffffffffffff1673ffffffffffffffffffffffffffffffffffffffff16815260200190815260200160002060010160008282546116f691906131d8565b9250508190555050808060010191505061143b565b50806000815181106117205761171f612d71565b5b60200260200101513373ffffffffffffffffffffffffffffffffffffffff167f91245104b789a7305f92f9021565196417b6da8b936d6acdd30bccc0e7ee15d560405160405180910390a350565b60006020528060005260406000206000915054906101000a900460ff1681565b60045481565b600860009054906101000a900473ffffffffffffffffffffffffffffffffffffffff1681565b60606002808111156117cf576117ce6124a7565b5b6117d7611356565b60028111156117e9576117e86124a7565b5b14611829576040517f08c379a000000000000000000000000000000000000000000000000000000000815260040161182090612d51565b60405180910390fd5b600060038054905011611871576040517f08c379a000000000000000000000000000000000000000000000000000000000815260040161186890613579565b60405180910390fd5b60038054806020026020016040519081016040528092919081815260200182805480156118bd57602002820191906000526020600020905b8154815260200190600101908083116118a9575b5050505050905090565b600281815481106118d757600080fd5b90600052602060002090600502016000915090508060000154908060010160009054906101000a900473ffffffffffffffffffffffffffffffffffffffff169080600201805461192690612cd4565b80601f016020809104026020016040519081016040528092919081815260200182805461195290612cd4565b801561199f5780601f106119745761010080835404028352916020019161199f565b820191906000526020600020905b81548152906001019060200180831161198257829003601f168201915b5050505050908060030180546119b490612cd4565b80601f01602080910402602001604051908101604052809291908181526020018280546119e090612cd4565b8015611a2d5780601f10611a0257610100808354040283529160200191611a2d565b820191906000526020600020905b815481529060010190602001808311611a1057829003601f168201915b5050505050908060040154905085565b606060006001611a4c84611d62565b01905060008167ffffffffffffffff811115611a6b57611a6a612304565b5b6040519080825280601f01601f191660200182016040528015611a9d5781602001600182028036833780820191505090505b509050600082602001820190505b600115611b00578080600190039150507f3031323334353637383961626364656600000000000000000000000000000000600a86061a8153600a8581611af457611af3612a38565b5b04945060008503611aab575b819350505050919050565b600860009054906101000a900473ffffffffffffffffffffffffffffffffffffffff1673ffffffffffffffffffffffffffffffffffffffff1663d45529f46040518163ffffffff1660e01b8152600401602060405180830381865afa158015611b78573d6000803e3d6000fd5b505050506040513d601f19601f82011682018060405250810190611b9c9190612979565b73ffffffffffffffffffffffffffffffffffffffff163373ffffffffffffffffffffffffffffffffffffffff1614611c09576040517f08c379a0000000000000000000000000000000000000000000000000000000008152600401611c0090612a18565b60405180910390fd5b600073ffffffffffffffffffffffffffffffffffffffff16600860009054906101000a900473ffffffffffffffffffffffffffffffffffffffff1673ffffffffffffffffffffffffffffffffffffffff1603611c9a576040517f08c379a0000000000000000000000000000000000000000000000000000000008152600401611c919061360b565b60405180910390fd5b60003411611cdd576040517f08c379a0000000000000000000000000000000000000000000000000000000008152600401611cd490613677565b60405180910390fd5b600860009054906101000a900473ffffffffffffffffffffffffffffffffffffffff1673ffffffffffffffffffffffffffffffffffffffff1663f1575f3f346040518263ffffffff1660e01b81526004016000604051808303818588803b158015611d4757600080fd5b505af1158015611d5b573d6000803e3d6000fd5b5050505050565b600080600090507a184f03e93ff9f4daa797ed6e38ed64bf6a1f0100000000000000008310611dc0577a184f03e93ff9f4daa797ed6e38ed64bf6a1f0100000000000000008381611db657611db5612a38565b5b0492506040810190505b6d04ee2d6d415b85acef81000000008310611dfd576d04ee2d6d415b85acef81000000008381611df357611df2612a38565b5b0492506020810190505b662386f26fc100008310611e2c57662386f26fc100008381611e2257611e21612a38565b5b0492506010810190505b6305f5e1008310611e55576305f5e1008381611e4b57611e4a612a38565b5b0492506008810190505b6127108310611e7a576127108381611e7057611e6f612a38565b5b0492506004810190505b60648310611e9d5760648381611e9357611e92612a38565b5b0492506002810190505b600a8310611eac576001810190505b80915050919050565b828054828255906000526020600020908101928215611ef1579160200282015b82811115611ef0578251825591602001919060010190611ed5565b5b509050611efe9190611f02565b5090565b5b80821115611f1b576000816000905550600101611f03565b5090565b6000819050919050565b611f3281611f1f565b82525050565b6000602082019050611f4d6000830184611f29565b92915050565b6000604051905090565b600080fd5b600080fd5b600073ffffffffffffffffffffffffffffffffffffffff82169050919050565b6000611f9282611f67565b9050919050565b611fa281611f87565b8114611fad57600080fd5b50565b600081359050611fbf81611f99565b92915050565b611fce81611f1f565b8114611fd957600080fd5b50565b600081359050611feb81611fc5565b92915050565b6000806040838503121561200857612007611f5d565b5b600061201685828601611fb0565b925050602061202785828601611fdc565b9150509250929050565b60008115159050919050565b61204681612031565b82525050565b6000602082019050612061600083018461203d565b92915050565b600081519050919050565b600082825260208201905092915050565b6000819050602082019050919050565b61209c81611f1f565b82525050565b6120ab81611f87565b82525050565b600081519050919050565b600082825260208201905092915050565b60005b838110156120eb5780820151818401526020810190506120d0565b60008484015250505050565b6000601f19601f8301169050919050565b6000612113826120b1565b61211d81856120bc565b935061212d8185602086016120cd565b612136816120f7565b840191505092915050565b600060a0830160008301516121596000860182612093565b50602083015161216c60208601826120a2565b50604083015184820360408601526121848282612108565b9150506060830151848203606086015261219e8282612108565b91505060808301516121b36080860182612093565b508091505092915050565b60006121ca8383612141565b905092915050565b6000602082019050919050565b60006121ea82612067565b6121f48185612072565b93508360208202850161220685612083565b8060005b85811015612242578484038952815161222385826121be565b945061222e836121d2565b925060208a0199505060018101905061220a565b50829750879550505050505092915050565b6000602082019050818103600083015261226e81846121df565b905092915050565b60006020828403121561228c5761228b611f5d565b5b600061229a84828501611fdc565b91505092915050565b6122ac81611f87565b82525050565b60006020820190506122c760008301846122a3565b92915050565b6000602082840312156122e3576122e2611f5d565b5b60006122f184828501611fb0565b91505092915050565b600080fd5b600080fd5b7f4e487b7100000000000000000000000000000000000000000000000000000000600052604160045260246000fd5b61233c826120f7565b810181811067ffffffffffffffff8211171561235b5761235a612304565b5b80604052505050565b600061236e611f53565b905061237a8282612333565b919050565b600067ffffffffffffffff82111561239a57612399612304565b5b6123a3826120f7565b9050602081019050919050565b82818337600083830152505050565b60006123d26123cd8461237f565b612364565b9050828152602081018484840111156123ee576123ed6122ff565b5b6123f98482856123b0565b509392505050565b600082601f830112612416576124156122fa565b5b81356124268482602086016123bf565b91505092915050565b6000806040838503121561244657612445611f5d565b5b600083013567ffffffffffffffff81111561246457612463611f62565b5b61247085828601612401565b925050602083013567ffffffffffffffff81111561249157612490611f62565b5b61249d85828601612401565b9150509250929050565b7f4e487b7100000000000000000000000000000000000000000000000000000000600052602160045260246000fd5b600381106124e7576124e66124a7565b5b50565b60008190506124f8826124d6565b919050565b6000612508826124ea565b9050919050565b612518816124fd565b82525050565b6000602082019050612533600083018461250f565b92915050565b600067ffffffffffffffff82111561255457612553612304565b5b602082029050602081019050919050565b600080fd5b600061257d61257884612539565b612364565b905080838252602082019050602084028301858111156125a05761259f612565565b5b835b818110156125c957806125b58882611fdc565b8452602084019350506020810190506125a2565b5050509392505050565b600082601f8301126125e8576125e76122fa565b5b81356125f884826020860161256a565b91505092915050565b60006020828403121561261757612616611f5d565b5b600082013567ffffffffffffffff81111561263557612634611f62565b5b612641848285016125d3565b91505092915050565b6000819050919050565b600061266f61266a61266584611f67565b61264a565b611f67565b9050919050565b600061268182612654565b9050919050565b600061269382612676565b9050919050565b6126a381612688565b82525050565b60006020820190506126be600083018461269a565b92915050565b600081519050919050565b600082825260208201905092915050565b6000819050602082019050919050565b60006126fc8383612093565b60208301905092915050565b6000602082019050919050565b6000612720826126c4565b61272a81856126cf565b9350612735836126e0565b8060005b8381101561276657815161274d88826126f0565b975061275883612708565b925050600181019050612739565b5085935050505092915050565b6000602082019050818103600083015261278d8184612715565b905092915050565b600082825260208201905092915050565b60006127b1826120b1565b6127bb8185612795565b93506127cb8185602086016120cd565b6127d4816120f7565b840191505092915050565b600060a0820190506127f46000830188611f29565b61280160208301876122a3565b818103604083015261281381866127a6565b9050818103606083015261282781856127a6565b90506128366080830184611f29565b9695505050505050565b7f566f74696e672068617320616c72656164792073746172746564206f7220686160008201527f7320656e64656421000000000000000000000000000000000000000000000000602082015250565b600061289c602883612795565b91506128a782612840565b604082019050919050565b600060208201905081810360008301526128cb8161288f565b9050919050565b7f43616e6e6f7420737461727420766f74696e672077697468206c65737320746860008201527f616e2074776f2063616e64696461746573210000000000000000000000000000602082015250565b600061292e603283612795565b9150612939826128d2565b604082019050919050565b6000602082019050818103600083015261295d81612921565b9050919050565b60008151905061297381611f99565b92915050565b60006020828403121561298f5761298e611f5d565b5b600061299d84828501612964565b91505092915050565b7f4f6e6c792061646d696e2063616e20706572666f726d2074686973206163746960008201527f6f6e210000000000000000000000000000000000000000000000000000000000602082015250565b6000612a02602383612795565b9150612a0d826129a6565b604082019050919050565b60006020820190508181036000830152612a31816129f5565b9050919050565b7f4e487b7100000000000000000000000000000000000000000000000000000000600052601260045260246000fd5b7f4e487b7100000000000000000000000000000000000000000000000000000000600052601160045260246000fd5b6000612aa182611f1f565b9150612aac83611f1f565b925082612abc57612abb612a38565b5b828204905092915050565b6000612ad282611f1f565b9150612add83611f1f565b925082612aed57612aec612a38565b5b828206905092915050565b600081905092915050565b7f496e73756666696369656e74207061796d656e7420746f20737461727420766f60008201527f74696e67206561726c792120596f75206e656564206174206c65617374200000602082015250565b6000612b5f603e83612af8565b9150612b6a82612b03565b603e82019050919050565b6000612b80826120b1565b612b8a8185612af8565b9350612b9a8185602086016120cd565b80840191505092915050565b7f2e00000000000000000000000000000000000000000000000000000000000000600082015250565b6000612bdc600183612af8565b9150612be782612ba6565b600182019050919050565b7f206574686572732e000000000000000000000000000000000000000000000000600082015250565b6000612c28600883612af8565b9150612c3382612bf2565b600882019050919050565b6000612c4982612b52565b9150612c558285612b75565b9150612c6082612bcf565b9150612c6c8284612b75565b9150612c7782612c1b565b91508190509392505050565b60006020820190508181036000830152612c9d81846127a6565b905092915050565b7f4e487b7100000000000000000000000000000000000000000000000000000000600052602260045260246000fd5b60006002820490506001821680612cec57607f821691505b602082108103612cff57612cfe612ca5565b5b50919050565b7f566f74696e6720686173206e6f7420656e646564210000000000000000000000600082015250565b6000612d3b601583612795565b9150612d4682612d05565b602082019050919050565b60006020820190508181036000830152612d6a81612d2e565b9050919050565b7f4e487b7100000000000000000000000000000000000000000000000000000000600052603260045260246000fd5b7f4f6e6c7920726567756c61722075736572732063616e20706572666f726d207460008201527f68697320616374696f6e21000000000000000000000000000000000000000000602082015250565b6000612dfc602b83612795565b9150612e0782612da0565b604082019050919050565b60006020820190508181036000830152612e2b81612def565b9050919050565b7f596f75206861766520616c72656164792063616e646964617465642100000000600082015250565b6000612e68601c83612795565b9150612e7382612e32565b602082019050919050565b60006020820190508181036000830152612e9781612e5b565b9050919050565b60008190508160005260206000209050919050565b60006020601f8301049050919050565b600082821b905092915050565b600060088302612f007fffffffffffffffffffffffffffffffffffffffffffffffffffffffffffffffff82612ec3565b612f0a8683612ec3565b95508019841693508086168417925050509392505050565b6000612f3d612f38612f3384611f1f565b61264a565b611f1f565b9050919050565b6000819050919050565b612f5783612f22565b612f6b612f6382612f44565b848454612ed0565b825550505050565b600090565b612f80612f73565b612f8b818484612f4e565b505050565b5b81811015612faf57612fa4600082612f78565b600181019050612f91565b5050565b601f821115612ff457612fc581612e9e565b612fce84612eb3565b81016020851015612fdd578190505b612ff1612fe985612eb3565b830182612f90565b50505b505050565b600082821c905092915050565b600061301760001984600802612ff9565b1980831691505092915050565b60006130308383613006565b9150826002028217905092915050565b613049826120b1565b67ffffffffffffffff81111561306257613061612304565b5b61306c8254612cd4565b613077828285612fb3565b600060209050601f8311600181146130aa5760008415613098578287015190505b6130a28582613024565b86555061310a565b601f1984166130b886612e9e565b60005b828110156130e0578489015182556001820191506020850194506020810190506130bb565b868310156130fd57848901516130f9601f891682613006565b8355505b6001600288020188555050505b505050505050565b7f566f74696e6720686173206e6f742073746172746564206f722068617320616c60008201527f726561647920656e646564210000000000000000000000000000000000000000602082015250565b600061316e602c83612795565b915061317982613112565b604082019050919050565b6000602082019050818103600083015261319d81613161565b9050919050565b60006131af82611f1f565b91506131ba83611f1f565b92508282039050818111156131d2576131d1612a67565b5b92915050565b60006131e382611f1f565b91506131ee83611f1f565b925082820190508082111561320657613205612a67565b5b92915050565b7f496e73756666696369656e74207061796d656e7420746f20656e6420766f746960008201527f6e67206561726c792120596f75206e656564206174206c656173742000000000602082015250565b6000613268603c83612af8565b91506132738261320c565b603c82019050919050565b60006132898261325b565b91506132958285612b75565b91506132a082612bcf565b91506132ac8284612b75565b91506132b782612c1b565b91508190509392505050565b60006132ce82611f1f565b91507fffffffffffffffffffffffffffffffffffffffffffffffffffffffffffffffff8203613300576132ff612a67565b5b600182019050919050565b7f4e6f2063616e646964617465732073656c656374656420666f7220766f74696e60008201527f6721000000000000000000000000000000000000000000000000000000000000602082015250565b6000613367602283612795565b91506133728261330b565b604082019050919050565b600060208201905081810360008301526133968161335a565b9050919050565b7f496e76616c69642063616e646964617465204944210000000000000000000000600082015250565b60006133d3601583612795565b91506133de8261339d565b602082019050919050565b60006020820190508181036000830152613402816133c6565b9050919050565b7f596f75206861766520616c726561647920766f74656420666f7220746869732060008201527f63616e6469646174652100000000000000000000000000000000000000000000602082015250565b6000613465602a83612795565b915061347082613409565b604082019050919050565b6000602082019050818103600083015261349481613458565b9050919050565b7f596f752063616e6e6f7420766f746520666f7220796f757273656c6621000000600082015250565b60006134d1601d83612795565b91506134dc8261349b565b602082019050919050565b60006020820190508181036000830152613500816134c4565b9050919050565b7f57696e6e6572732068617665206e6f74206265656e207570646174656420796560008201527f7421000000000000000000000000000000000000000000000000000000000000602082015250565b6000613563602283612795565b915061356e82613507565b604082019050919050565b6000602082019050818103600083015261359281613556565b9050919050565b7f526577617264657220636f6e747261637420686173206e6f74206265656e206960008201527f6e697469616c697a656421000000000000000000000000000000000000000000602082015250565b60006135f5602b83612795565b915061360082613599565b604082019050919050565b60006020820190508181036000830152613624816135e8565b9050919050565b7f416d6f756e74206d7573742062652067726561746572207468616e2030210000600082015250565b6000613661601e83612795565b915061366c8261362b565b602082019050919050565b6000602082019050818103600083015261369081613654565b905091905056fea264697066735822122047c373342340c6da73bb1ca50fa838d037c405fec2d864156645902a650a03ba64736f6c63430008180033",
  "linkReferences": {},
  "deployedLinkReferences": {}
}